{
  "_format": "hh-sol-artifact-1",
  "contractName": "Pod",
  "sourceName": "contracts/Pod.sol",
  "abi": [
    {
      "inputs": [
        {
          "internalType": "address",
          "name": "_usdcAddress",
          "type": "address"
        }
      ],
      "stateMutability": "nonpayable",
      "type": "constructor"
    },
    {
      "anonymous": false,
      "inputs": [
        {
          "indexed": true,
          "internalType": "uint256",
          "name": "podId",
          "type": "uint256"
        },
        {
          "indexed": false,
          "internalType": "address",
          "name": "seller",
          "type": "address"
        }
      ],
      "name": "PodCreated",
      "type": "event"
    },
    {
      "anonymous": false,
      "inputs": [
        {
          "indexed": true,
          "internalType": "uint256",
          "name": "podId",
          "type": "uint256"
        },
        {
          "indexed": false,
          "internalType": "address",
          "name": "buyer",
          "type": "address"
        }
      ],
      "name": "PodPurchased",
      "type": "event"
    },
    {
      "anonymous": false,
      "inputs": [
        {
          "indexed": true,
          "internalType": "uint256",
          "name": "podId",
          "type": "uint256"
        },
        {
          "indexed": false,
          "internalType": "address",
          "name": "seller",
          "type": "address"
        }
      ],
      "name": "PodWithdrawn",
      "type": "event"
    },
    {
      "inputs": [],
      "name": "USDC",
      "outputs": [
        {
          "internalType": "contract IERC20",
          "name": "",
          "type": "address"
        }
      ],
      "stateMutability": "view",
      "type": "function"
    },
    {
      "inputs": [
        {
          "internalType": "uint256",
          "name": "podId",
          "type": "uint256"
        }
      ],
      "name": "buyPod",
      "outputs": [],
      "stateMutability": "nonpayable",
      "type": "function"
    },
    {
      "inputs": [
        {
          "internalType": "address[]",
          "name": "_erc20Tokens",
          "type": "address[]"
        },
        {
          "internalType": "uint256[]",
          "name": "_tokenAmounts",
          "type": "uint256[]"
        },
        {
          "internalType": "uint256",
          "name": "_priceInUSDC",
          "type": "uint256"
        }
      ],
      "name": "createPod",
      "outputs": [],
      "stateMutability": "nonpayable",
      "type": "function"
    },
    {
      "inputs": [],
      "name": "getActivePods",
      "outputs": [
        {
          "components": [
            {
              "internalType": "address",
              "name": "seller",
              "type": "address"
            },
            {
              "internalType": "address[]",
              "name": "erc20Tokens",
              "type": "address[]"
            },
            {
              "internalType": "uint256[]",
              "name": "tokenAmounts",
              "type": "uint256[]"
            },
            {
              "internalType": "uint256",
              "name": "priceInUSDC",
              "type": "uint256"
            }
          ],
          "internalType": "struct Pod.Pod[]",
          "name": "",
          "type": "tuple[]"
        }
      ],
      "stateMutability": "view",
      "type": "function"
    },
    {
      "inputs": [
        {
          "internalType": "address",
          "name": "seller",
          "type": "address"
        }
      ],
      "name": "getPodsBySeller",
      "outputs": [
        {
          "internalType": "uint256[]",
          "name": "",
          "type": "uint256[]"
        }
      ],
      "stateMutability": "view",
      "type": "function"
    },
    {
      "inputs": [
        {
          "internalType": "address",
          "name": "user",
          "type": "address"
        }
      ],
      "name": "getPodsByUser",
      "outputs": [
        {
          "internalType": "uint256[]",
          "name": "",
          "type": "uint256[]"
        }
      ],
      "stateMutability": "view",
      "type": "function"
    },
    {
      "inputs": [
        {
          "internalType": "uint256",
          "name": "",
          "type": "uint256"
        }
      ],
      "name": "podIsActive",
      "outputs": [
        {
          "internalType": "bool",
          "name": "",
          "type": "bool"
        }
      ],
      "stateMutability": "view",
      "type": "function"
    },
    {
      "inputs": [
        {
          "internalType": "uint256",
          "name": "",
          "type": "uint256"
        }
      ],
      "name": "pods",
      "outputs": [
        {
          "internalType": "address",
          "name": "seller",
          "type": "address"
        },
        {
          "internalType": "uint256",
          "name": "priceInUSDC",
          "type": "uint256"
        }
      ],
      "stateMutability": "view",
      "type": "function"
    },
    {
      "inputs": [
        {
          "internalType": "address",
          "name": "",
          "type": "address"
        },
        {
          "internalType": "uint256",
          "name": "",
          "type": "uint256"
        }
      ],
      "name": "sellerPods",
      "outputs": [
        {
          "internalType": "uint256",
          "name": "",
          "type": "uint256"
        }
      ],
      "stateMutability": "view",
      "type": "function"
    },
    {
      "inputs": [
        {
          "internalType": "uint256",
          "name": "podId",
          "type": "uint256"
        }
      ],
      "name": "withdrawPod",
      "outputs": [],
      "stateMutability": "nonpayable",
      "type": "function"
    }
  ],
  "bytecode": "0x608060405234801561001057600080fd5b5060405161115138038061115183398101604081905261002f91610054565b600380546001600160a01b0319166001600160a01b0392909216919091179055610084565b60006020828403121561006657600080fd5b81516001600160a01b038116811461007d57600080fd5b9392505050565b6110be806100936000396000f3fe608060405234801561001057600080fd5b506004361061009e5760003560e01c806389a302711161006657806389a3027114610125578063ab00e8af14610150578063d13aef1014610171578063d637b74e14610184578063da9ea9fc1461019757600080fd5b806323737cc8146100a3578063566e6a14146100b857806379e52a40146100f05780637f1810cd146100f057806385e49aca14610110575b600080fd5b6100b66100b1366004610c93565b6101c9565b005b6100db6100c6366004610c93565b60016020526000908152604090205460ff1681565b60405190151581526020015b60405180910390f35b6101036100fe366004610cc8565b61041e565b6040516100e79190610cea565b61011861048a565b6040516100e79190610d69565b600354610138906001600160a01b031681565b6040516001600160a01b0390911681526020016100e7565b61016361015e366004610e3f565b6106c0565b6040519081526020016100e7565b6100b661017f366004610f3f565b6106f1565b6100b6610192366004610c93565b6108f2565b6101aa6101a5366004610c93565b610ba6565b604080516001600160a01b0390931683526020830191909152016100e7565b60008181526001602052604090205460ff166102205760405162461bcd60e51b8152602060048201526011602482015270506f64206973206e6f742061637469766560781b60448201526064015b60405180910390fd5b600080828154811061023457610234611008565b6000918252602090912060049091020180549091506001600160a01b031633146102a05760405162461bcd60e51b815260206004820152601860248201527f4f6e6c792073656c6c65722063616e20776974686472617700000000000000006044820152606401610217565b60005b60018201548110156103cc578160010181815481106102c4576102c4611008565b60009182526020909120015482546002840180546001600160a01b039384169363a9059cbb93169190859081106102fd576102fd611008565b6000918252602090912001546040516001600160e01b031960e085901b1681526001600160a01b03909216600483015260248201526044016020604051808303816000875af1158015610354573d6000803e3d6000fd5b505050506040513d601f19601f82011682018060405250810190610378919061101e565b6103ba5760405162461bcd60e51b8152602060048201526013602482015272151bdad95b881c995d1d5c9b8819985a5b1959606a1b6044820152606401610217565b806103c481611056565b9150506102a3565b50600082815260016020908152604091829020805460ff19169055905133815283917f0fff523bbc115b6695be99927449d21b25c4673c57673864ca4fce55b3350d8391015b60405180910390a25050565b6001600160a01b03811660009081526002602090815260409182902080548351818402810184019094528084526060939283018282801561047e57602002820191906000526020600020905b81548152602001906001019080831161046a575b50505050509050919050565b60606000805b6000548110156104d15760008181526001602052604090205460ff16156104bf57816104bb81611056565b9250505b806104c981611056565b915050610490565b5060008167ffffffffffffffff8111156104ed576104ed610e69565b60405190808252806020026020018201604052801561055257816020015b61053f604051806080016040528060006001600160a01b031681526020016060815260200160608152602001600081525090565b81526020019060019003908161050b5790505b5090506000805b6000548110156106b75760008181526001602052604090205460ff16156106a5576000818154811061058d5761058d611008565b600091825260209182902060408051608081018252600490930290910180546001600160a01b0316835260018101805483518187028101870190945280845293949193858301939283018282801561060e57602002820191906000526020600020905b81546001600160a01b031681526001909101906020018083116105f0575b505050505081526020016002820180548060200260200160405190810160405280929190818152602001828054801561066657602002820191906000526020600020905b815481526020019060010190808311610652575b5050505050815260200160038201548152505083838151811061068b5761068b611008565b602002602001018190525081806106a190611056565b9250505b806106af81611056565b915050610559565b50909392505050565b600260205281600052604060002081815481106106dc57600080fd5b90600052602060002001600091509150505481565b81518351146107425760405162461bcd60e51b815260206004820152601b60248201527f546f6b656e7320616e6420616d6f756e7473206d69736d6174636800000000006044820152606401610217565b60008351116107935760405162461bcd60e51b815260206004820152601b60248201527f4174206c65617374206f6e6520746f6b656e20726571756972656400000000006044820152606401610217565b604080516080810182523381526020808201868152928201859052606082018490526000805460018101825590805282517f290decd9548b62a8d60345a988386fc84ba6bc95484008f6362f93160ef3e563600490920291820180546001600160a01b0319166001600160a01b0390921691909117815593518051939493610844937f290decd9548b62a8d60345a988386fc84ba6bc95484008f6362f93160ef3e564909301929190910190610bde565b5060408201518051610860916002840191602090910190610c43565b50606091909101516003909101556000805461087e9060019061106f565b6000818152600160208181526040808420805460ff191684179055338085526002835281852080549485018155855293829020909201849055905191825291925082917f4c2c76e307465ac1e542797a6c453c76ebd169bd46afcbbe502bb207765364a2910160405180910390a250505050565b60008181526001602052604090205460ff166109445760405162461bcd60e51b8152602060048201526011602482015270506f64206973206e6f742061637469766560781b6044820152606401610217565b600080828154811061095857610958611008565b600091825260209091206003805460049384029092018054918101546040516323b872dd60e01b815233958101959095526001600160a01b0392831660248601526044850152935016906323b872dd906064016020604051808303816000875af11580156109ca573d6000803e3d6000fd5b505050506040513d601f19601f820116820180604052508101906109ee919061101e565b610a315760405162461bcd60e51b81526020600482015260146024820152731554d110c81d1c985b9cd9995c8819985a5b195960621b6044820152606401610217565b60005b6001820154811015610b5c57816001018181548110610a5557610a55611008565b6000918252602090912001546002830180546001600160a01b039092169163a9059cbb91339185908110610a8b57610a8b611008565b6000918252602090912001546040516001600160e01b031960e085901b1681526001600160a01b03909216600483015260248201526044016020604051808303816000875af1158015610ae2573d6000803e3d6000fd5b505050506040513d601f19601f82011682018060405250810190610b06919061101e565b610b4a5760405162461bcd60e51b8152602060048201526015602482015274151bdad95b881d1c985b9cd9995c8819985a5b1959605a1b6044820152606401610217565b80610b5481611056565b915050610a34565b50600082815260016020908152604091829020805460ff19169055905133815283917f096e1d3879b269db2ff5bfa5f3285edeeaa13be63f7e318490a3e7809ff935129101610412565b60008181548110610bb657600080fd5b6000918252602090912060049091020180546003909101546001600160a01b03909116915082565b828054828255906000526020600020908101928215610c33579160200282015b82811115610c3357825182546001600160a01b0319166001600160a01b03909116178255602090920191600190910190610bfe565b50610c3f929150610c7e565b5090565b828054828255906000526020600020908101928215610c33579160200282015b82811115610c33578251825591602001919060010190610c63565b5b80821115610c3f5760008155600101610c7f565b600060208284031215610ca557600080fd5b5035919050565b80356001600160a01b0381168114610cc357600080fd5b919050565b600060208284031215610cda57600080fd5b610ce382610cac565b9392505050565b6020808252825182820181905260009190848201906040850190845b81811015610d2257835183529284019291840191600101610d06565b50909695505050505050565b600081518084526020808501945080840160005b83811015610d5e57815187529582019590820190600101610d42565b509495945050505050565b60006020808301818452808551808352604092508286019150828160051b8701018488016000805b84811015610e3057898403603f19018652825180516001600160a01b0390811686528982015160808b8801819052815190880181905260a0880192918c01919086905b80821015610df657835183168552938d0193928d019260019190910190610dd4565b50505050888201518682038a880152610e0f8282610d2e565b60609384015197909301969096525095880195935091870191600101610d91565b50919998505050505050505050565b60008060408385031215610e5257600080fd5b610e5b83610cac565b946020939093013593505050565b634e487b7160e01b600052604160045260246000fd5b604051601f8201601f1916810167ffffffffffffffff81118282101715610ea857610ea8610e69565b604052919050565b600067ffffffffffffffff821115610eca57610eca610e69565b5060051b60200190565b600082601f830112610ee557600080fd5b81356020610efa610ef583610eb0565b610e7f565b82815260059290921b84018101918181019086841115610f1957600080fd5b8286015b84811015610f345780358352918301918301610f1d565b509695505050505050565b600080600060608486031215610f5457600080fd5b833567ffffffffffffffff80821115610f6c57600080fd5b818601915086601f830112610f8057600080fd5b81356020610f90610ef583610eb0565b82815260059290921b8401810191818101908a841115610faf57600080fd5b948201945b83861015610fd457610fc586610cac565b82529482019490820190610fb4565b97505087013592505080821115610fea57600080fd5b50610ff786828701610ed4565b925050604084013590509250925092565b634e487b7160e01b600052603260045260246000fd5b60006020828403121561103057600080fd5b81518015158114610ce357600080fd5b634e487b7160e01b600052601160045260246000fd5b60006001820161106857611068611040565b5060010190565b8181038181111561108257611082611040565b9291505056fea264697066735822122004935c90fc9f1a9e84b900f8a08af942e870c386c795e40797d8e3b3b94bb65764736f6c63430008110033",
  "linkReferences": {},
  "deployedLinkReferences": {}
}