{
  "_format": "hh-sol-artifact-1",
  "contractName": "Pool",
  "sourceName": "contracts/PoolNative.sol",
  "abi": [
    {
      "inputs": [
        {
          "internalType": "address",
          "name": "_oracleAddress",
          "type": "address"
        },
        {
          "internalType": "address",
          "name": "_wnative",
          "type": "address"
        }
      ],
      "stateMutability": "nonpayable",
      "type": "constructor"
    },
    {
      "anonymous": false,
      "inputs": [
        {
          "indexed": true,
          "internalType": "address",
          "name": "predictor",
          "type": "address"
        },
        {
          "indexed": false,
          "internalType": "enum Pool.Coin",
          "name": "token",
          "type": "uint8"
        },
        {
          "indexed": false,
          "internalType": "uint256",
          "name": "predictedPrice",
          "type": "uint256"
        },
        {
          "indexed": false,
          "internalType": "uint256",
          "name": "actualPrice",
          "type": "uint256"
        },
        {
          "indexed": false,
          "internalType": "uint256",
          "name": "timestamp",
          "type": "uint256"
        },
        {
          "indexed": false,
          "internalType": "uint256",
          "name": "endTime",
          "type": "uint256"
        }
      ],
      "name": "PredictionRegistered",
      "type": "event"
    },
    {
      "anonymous": false,
      "inputs": [
        {
          "indexed": true,
          "internalType": "address",
          "name": "predictor",
          "type": "address"
        },
        {
          "indexed": false,
          "internalType": "uint256",
          "name": "amount",
          "type": "uint256"
        }
      ],
      "name": "RewardWithdrawn",
      "type": "event"
    },
    {
      "inputs": [
        {
          "internalType": "address",
          "name": "user",
          "type": "address"
        }
      ],
      "name": "calculateReward",
      "outputs": [
        {
          "internalType": "uint256",
          "name": "",
          "type": "uint256"
        }
      ],
      "stateMutability": "view",
      "type": "function"
    },
    {
      "inputs": [
        {
          "internalType": "address",
          "name": "",
          "type": "address"
        }
      ],
      "name": "distributionCounter",
      "outputs": [
        {
          "internalType": "uint256",
          "name": "",
          "type": "uint256"
        }
      ],
      "stateMutability": "view",
      "type": "function"
    },
    {
      "inputs": [],
      "name": "exit",
      "outputs": [],
      "stateMutability": "nonpayable",
      "type": "function"
    },
    {
      "inputs": [],
      "name": "exitLimit",
      "outputs": [
        {
          "internalType": "uint256",
          "name": "",
          "type": "uint256"
        }
      ],
      "stateMutability": "view",
      "type": "function"
    },
    {
      "inputs": [
        {
          "internalType": "uint256",
          "name": "index",
          "type": "uint256"
        }
      ],
      "name": "getPrediction",
      "outputs": [
        {
          "components": [
            {
              "internalType": "address",
              "name": "predictor",
              "type": "address"
            },
            {
              "internalType": "enum Pool.Coin",
              "name": "token",
              "type": "uint8"
            },
            {
              "internalType": "uint256",
              "name": "predictedPrice",
              "type": "uint256"
            },
            {
              "internalType": "uint256",
              "name": "actualPrice",
              "type": "uint256"
            },
            {
              "internalType": "uint256",
              "name": "resolvedPrice",
              "type": "uint256"
            },
            {
              "internalType": "uint256",
              "name": "difference",
              "type": "uint256"
            },
            {
              "internalType": "uint256",
              "name": "timestamp",
              "type": "uint256"
            },
            {
              "internalType": "uint256",
              "name": "endTime",
              "type": "uint256"
            },
            {
              "internalType": "bool",
              "name": "resolved",
              "type": "bool"
            }
          ],
          "internalType": "struct Pool.Prediction",
          "name": "",
          "type": "tuple"
        }
      ],
      "stateMutability": "view",
      "type": "function"
    },
    {
      "inputs": [],
      "name": "getPredictionCount",
      "outputs": [
        {
          "internalType": "uint256",
          "name": "",
          "type": "uint256"
        }
      ],
      "stateMutability": "view",
      "type": "function"
    },
    {
      "inputs": [
        {
          "internalType": "uint256",
          "name": "from",
          "type": "uint256"
        },
        {
          "internalType": "uint256",
          "name": "to",
          "type": "uint256"
        }
      ],
      "name": "getPredictionFromTo",
      "outputs": [
        {
          "components": [
            {
              "internalType": "address",
              "name": "predictor",
              "type": "address"
            },
            {
              "internalType": "enum Pool.Coin",
              "name": "token",
              "type": "uint8"
            },
            {
              "internalType": "uint256",
              "name": "predictedPrice",
              "type": "uint256"
            },
            {
              "internalType": "uint256",
              "name": "actualPrice",
              "type": "uint256"
            },
            {
              "internalType": "uint256",
              "name": "resolvedPrice",
              "type": "uint256"
            },
            {
              "internalType": "uint256",
              "name": "difference",
              "type": "uint256"
            },
            {
              "internalType": "uint256",
              "name": "timestamp",
              "type": "uint256"
            },
            {
              "internalType": "uint256",
              "name": "endTime",
              "type": "uint256"
            },
            {
              "internalType": "bool",
              "name": "resolved",
              "type": "bool"
            }
          ],
          "internalType": "struct Pool.Prediction[]",
          "name": "",
          "type": "tuple[]"
        }
      ],
      "stateMutability": "view",
      "type": "function"
    },
    {
      "inputs": [],
      "name": "getSubmissionFee",
      "outputs": [
        {
          "internalType": "uint256",
          "name": "",
          "type": "uint256"
        }
      ],
      "stateMutability": "view",
      "type": "function"
    },
    {
      "inputs": [],
      "name": "getTotalPredictions",
      "outputs": [
        {
          "internalType": "uint256",
          "name": "",
          "type": "uint256"
        }
      ],
      "stateMutability": "view",
      "type": "function"
    },
    {
      "inputs": [],
      "name": "hasAnyUnresolvedPastEndTime",
      "outputs": [
        {
          "internalType": "bool",
          "name": "",
          "type": "bool"
        }
      ],
      "stateMutability": "view",
      "type": "function"
    },
    {
      "inputs": [],
      "name": "hasUnresolvedPredictions",
      "outputs": [
        {
          "internalType": "bool",
          "name": "",
          "type": "bool"
        }
      ],
      "stateMutability": "view",
      "type": "function"
    },
    {
      "inputs": [],
      "name": "last10Predictions",
      "outputs": [
        {
          "components": [
            {
              "internalType": "address",
              "name": "predictor",
              "type": "address"
            },
            {
              "internalType": "enum Pool.Coin",
              "name": "token",
              "type": "uint8"
            },
            {
              "internalType": "uint256",
              "name": "predictedPrice",
              "type": "uint256"
            },
            {
              "internalType": "uint256",
              "name": "actualPrice",
              "type": "uint256"
            },
            {
              "internalType": "uint256",
              "name": "resolvedPrice",
              "type": "uint256"
            },
            {
              "internalType": "uint256",
              "name": "difference",
              "type": "uint256"
            },
            {
              "internalType": "uint256",
              "name": "timestamp",
              "type": "uint256"
            },
            {
              "internalType": "uint256",
              "name": "endTime",
              "type": "uint256"
            },
            {
              "internalType": "bool",
              "name": "resolved",
              "type": "bool"
            }
          ],
          "internalType": "struct Pool.Prediction[]",
          "name": "",
          "type": "tuple[]"
        }
      ],
      "stateMutability": "view",
      "type": "function"
    },
    {
      "inputs": [
        {
          "internalType": "address",
          "name": "",
          "type": "address"
        }
      ],
      "name": "lastWithdraw",
      "outputs": [
        {
          "internalType": "uint256",
          "name": "",
          "type": "uint256"
        }
      ],
      "stateMutability": "view",
      "type": "function"
    },
    {
      "inputs": [],
      "name": "oracle",
      "outputs": [
        {
          "internalType": "contract Oracle",
          "name": "",
          "type": "address"
        }
      ],
      "stateMutability": "view",
      "type": "function"
    },
    {
      "inputs": [],
      "name": "predictionDuration",
      "outputs": [
        {
          "internalType": "uint256",
          "name": "",
          "type": "uint256"
        }
      ],
      "stateMutability": "view",
      "type": "function"
    },
    {
      "inputs": [
        {
          "internalType": "uint256",
          "name": "",
          "type": "uint256"
        }
      ],
      "name": "predictions",
      "outputs": [
        {
          "internalType": "address",
          "name": "predictor",
          "type": "address"
        },
        {
          "internalType": "enum Pool.Coin",
          "name": "token",
          "type": "uint8"
        },
        {
          "internalType": "uint256",
          "name": "predictedPrice",
          "type": "uint256"
        },
        {
          "internalType": "uint256",
          "name": "actualPrice",
          "type": "uint256"
        },
        {
          "internalType": "uint256",
          "name": "resolvedPrice",
          "type": "uint256"
        },
        {
          "internalType": "uint256",
          "name": "difference",
          "type": "uint256"
        },
        {
          "internalType": "uint256",
          "name": "timestamp",
          "type": "uint256"
        },
        {
          "internalType": "uint256",
          "name": "endTime",
          "type": "uint256"
        },
        {
          "internalType": "bool",
          "name": "resolved",
          "type": "bool"
        }
      ],
      "stateMutability": "view",
      "type": "function"
    },
    {
      "inputs": [],
      "name": "resolutionLimit",
      "outputs": [
        {
          "internalType": "uint256",
          "name": "",
          "type": "uint256"
        }
      ],
      "stateMutability": "view",
      "type": "function"
    },
    {
      "inputs": [],
      "name": "resolve",
      "outputs": [],
      "stateMutability": "nonpayable",
      "type": "function"
    },
    {
      "inputs": [],
      "name": "submissionBaseFee",
      "outputs": [
        {
          "internalType": "uint256",
          "name": "",
          "type": "uint256"
        }
      ],
      "stateMutability": "view",
      "type": "function"
    },
    {
      "inputs": [],
      "name": "submissionStepFee",
      "outputs": [
        {
          "internalType": "uint256",
          "name": "",
          "type": "uint256"
        }
      ],
      "stateMutability": "view",
      "type": "function"
    },
    {
      "inputs": [
        {
          "internalType": "enum Pool.Coin",
          "name": "_token",
          "type": "uint8"
        },
        {
          "internalType": "uint256",
          "name": "_predictedPrice",
          "type": "uint256"
        }
      ],
      "name": "submit",
      "outputs": [],
      "stateMutability": "payable",
      "type": "function"
    },
    {
      "inputs": [],
      "name": "totalDistribution",
      "outputs": [
        {
          "internalType": "uint256",
          "name": "",
          "type": "uint256"
        }
      ],
      "stateMutability": "view",
      "type": "function"
    },
    {
      "inputs": [],
      "name": "totalPredictions",
      "outputs": [
        {
          "internalType": "uint256",
          "name": "",
          "type": "uint256"
        }
      ],
      "stateMutability": "view",
      "type": "function"
    },
    {
      "inputs": [
        {
          "internalType": "address",
          "name": "",
          "type": "address"
        }
      ],
      "name": "userSubmissionFees",
      "outputs": [
        {
          "internalType": "uint256",
          "name": "",
          "type": "uint256"
        }
      ],
      "stateMutability": "view",
      "type": "function"
    },
    {
      "inputs": [],
      "name": "wnative",
      "outputs": [
        {
          "internalType": "contract IWETH",
          "name": "",
          "type": "address"
        }
      ],
      "stateMutability": "view",
      "type": "function"
    },
    {
      "stateMutability": "payable",
      "type": "receive"
    }
  ],
  "bytecode": "0x6080604052662386f26fc1000060045566038d7ea4c680006005556201518060065561025860075562093a8060085560006009556000600a553480156200004557600080fd5b5060405162001ac838038062001ac88339810160408190526200006891620000bc565b6001600081905580546001600160a01b039384166001600160a01b03199182161790915560028054929093169116179055620000f4565b80516001600160a01b0381168114620000b757600080fd5b919050565b60008060408385031215620000d057600080fd5b620000db836200009f565b9150620000eb602084016200009f565b90509250929050565b6119c480620001046000396000f3fe6080604052600436106101695760003560e01c8063624d7b72116100d1578063cd6347921161008a578063e75e454e11610064578063e75e454e14610410578063e9fad8ee14610426578063f9be85231461043b578063fe83bece1461045d57600080fd5b8063cd634792146103c5578063d1c4e1b4146103db578063d82e3962146103f057600080fd5b8063624d7b721461032057806370246a1e1461034d57806371d61cd514610363578063779bd562146103795780637dc0d1d01461038f57806380450cde146103af57600080fd5b806344ed9f661161012357806344ed9f66146102735780634abf93b7146102895780634ce93cc81461029e5780635590cfa9146102b15780635c580061146102de578063600bebf5146102f357600080fd5b80624fbbb01461017557806301668096146101b3578063037361e9146101d25780632810e1d6146101ff5780632cebdeb214610216578063371d5d021461024e57600080fd5b3661017057005b600080fd5b34801561018157600080fd5b50610195610190366004611694565b61048a565b6040516101aa999897969594939291906116e5565b60405180910390f35b3480156101bf57600080fd5b506003545b6040519081526020016101aa565b3480156101de57600080fd5b506101c46101ed36600461173c565b600b6020526000908152604090205481565b34801561020b57600080fd5b506102146104f7565b005b34801561022257600080fd5b50600254610236906001600160a01b031681565b6040516001600160a01b0390911681526020016101aa565b34801561025a57600080fd5b5061026361081f565b60405190151581526020016101aa565b34801561027f57600080fd5b506101c460085481565b34801561029557600080fd5b5061026361087d565b6102146102ac36600461176c565b610904565b3480156102bd57600080fd5b506102d16102cc36600461179c565b610c4a565b6040516101aa919061182d565b3480156102ea57600080fd5b506009546101c4565b3480156102ff57600080fd5b506101c461030e36600461173c565b600d6020526000908152604090205481565b34801561032c57600080fd5b506101c461033b36600461173c565b600c6020526000908152604090205481565b34801561035957600080fd5b506101c460065481565b34801561036f57600080fd5b506101c460075481565b34801561038557600080fd5b506101c460095481565b34801561039b57600080fd5b50600154610236906001600160a01b031681565b3480156103bb57600080fd5b506101c460055481565b3480156103d157600080fd5b506101c460045481565b3480156103e757600080fd5b506102d1610e36565b3480156103fc57600080fd5b506101c461040b36600461173c565b610fc1565b34801561041c57600080fd5b506101c4600a5481565b34801561043257600080fd5b50610214611156565b34801561044757600080fd5b50336000908152600d60205260409020546101c4565b34801561046957600080fd5b5061047d610478366004611694565b611316565b6040516101aa919061187c565b6003818154811061049a57600080fd5b6000918252602090912060089091020180546001820154600283015460038401546004850154600586015460068701546007909701546001600160a01b038716985060ff600160a01b909704871697959694959394929391921689565b60015460408051638e15f47360e01b815290516000926001600160a01b031691638e15f4739160048083019260209291908290030181865afa158015610541573d6000803e3d6000fd5b505050506040513d601f19601f82011682018060405250810190610565919061188b565b610574906402540be4006118ba565b905060005b6003548110156107e65760038181548110610596576105966118d1565b600091825260209091206007600890920201015460ff161580156105de5750600381815481106105c8576105c86118d1565b9060005260206000209060080201600601544210155b156107d4576000600382815481106105f8576105f86118d1565b906000526020600020906008020160010154905060008382116106245761061f82856118e7565b61062e565b61062e84836118e7565b9050600061063c8386611421565b905060075460038581548110610654576106546118d1565b90600052602060002090600802016006015461067091906118fa565b42116106d3576000600b60006003878154811061068f5761068f6118d1565b600091825260208083206008909202909101546001600160a01b03168352820192909252604001812080549091906106c89084906118fa565b9091555061072a9050565b80600b6000600387815481106106eb576106eb6118d1565b600091825260208083206008909202909101546001600160a01b03168352820192909252604001812080549091906107249084906118fa565b90915550505b816003858154811061073e5761073e6118d1565b906000526020600020906008020160040181905550600160038581548110610768576107686118d1565b906000526020600020906008020160070160006101000a81548160ff02191690831515021790555084600385815481106107a4576107a46118d1565b90600052602060002090600802016003018190555080600a60008282546107cb91906118fa565b90915550505050505b806107de8161190d565b915050610579565b50336000908152600b602052604081208054916108028361190d565b9091555050600a80549060006108178361190d565b919050555050565b6000805b6003548110156108755760038181548110610840576108406118d1565b600091825260209091206007600890920201015460ff1661086357600191505090565b8061086d8161190d565b915050610823565b506000905090565b6000805b600354811015610875576003818154811061089e5761089e6118d1565b600091825260209091206007600890920201015460ff161580156108e55750600381815481106108d0576108d06118d1565b90600052602060002090600802016006015442115b156108f257600191505090565b806108fc8161190d565b915050610881565b6004543410156109505760405162461bcd60e51b8152602060048201526012602482015271125b9d985b1a590819995948185b5bdd5b9d60721b60448201526064015b60405180910390fd5b336000908152600d60205260409020543410156109a45760405162461bcd60e51b8152602060048201526012602482015271125b9d985b1a590819995948185b5bdd5b9d60721b6044820152606401610947565b336000908152600d602052604081203480825560055492906109c79084906118fa565b909155505060015460408051638e15f47360e01b815290516000926001600160a01b031691638e15f4739160048083019260209291908290030181865afa158015610a16573d6000803e3d6000fd5b505050506040513d601f19601f82011682018060405250810190610a3a919061188b565b610a49906402540be4006118ba565b90506003604051806101200160405280336001600160a01b03168152602001856000811115610a7a57610a7a6116ad565b8152602001848152602001838152602001600081526020016000815260200142815260200160065442610aad91906118fa565b8152600060209182018190528354600181018555938152819020825160089094020180546001600160a01b039094166001600160a01b031985168117825591830151929390929183916001600160a81b03191617600160a01b838015610b1557610b156116ad565b021790555060408201516001820155606082015160028201556080820151600382015560a0820151600482015560c0820151600582015560e08201516006820155610100909101516007909101805460ff191691151591909117905560098054906000610b818361190d565b9190505550600260009054906101000a90046001600160a01b03166001600160a01b031663d0e30db0346040518263ffffffff1660e01b81526004016000604051808303818588803b158015610bd657600080fd5b505af1158015610bea573d6000803e3d6000fd5b5050505050336001600160a01b03167f046796fc72779cbabd1ea8b64c35f18f13d4d3d4693526deb779040b773c311b8484844260065442610c2c91906118fa565b604051610c3d959493929190611926565b60405180910390a2505050565b6060818310610c8b5760405162461bcd60e51b815260206004820152600d60248201526c496e76616c69642072616e676560981b6044820152606401610947565b600354821115610ccd5760405162461bcd60e51b815260206004820152600d60248201526c496e76616c69642072616e676560981b6044820152606401610947565b6000610cd984846118e7565b67ffffffffffffffff811115610cf157610cf1611956565b604051908082528060200260200182016040528015610d2a57816020015b610d17611645565b815260200190600190039081610d0f5790505b509050835b83811015610e2c5760038181548110610d4a57610d4a6118d1565b600091825260209182902060408051610120810190915260089092020180546001600160a01b0381168352919290919083019060ff600160a01b909104168015610d9657610d966116ad565b8015610da457610da46116ad565b815260018201546020820152600282015460408201526003820154606082015260048201546080820152600582015460a0820152600682015460c082015260079091015460ff16151560e09091015282610dfe87846118e7565b81518110610e0e57610e0e6118d1565b60200260200101819052508080610e249061190d565b915050610d2f565b5090505b92915050565b6003546060906000600a8211610e4d576000610e58565b610e58600a836118e7565b90506000610e6682846118e7565b67ffffffffffffffff811115610e7e57610e7e611956565b604051908082528060200260200182016040528015610eb757816020015b610ea4611645565b815260200190600190039081610e9c5790505b509050815b83811015610fb95760038181548110610ed757610ed76118d1565b600091825260209182902060408051610120810190915260089092020180546001600160a01b0381168352919290919083019060ff600160a01b909104168015610f2357610f236116ad565b8015610f3157610f316116ad565b815260018201546020820152600282015460408201526003820154606082015260048201546080820152600582015460a0820152600682015460c082015260079091015460ff16151560e09091015282610f8b85846118e7565b81518110610f9b57610f9b6118d1565b60200260200101819052508080610fb19061190d565b915050610ebc565b509392505050565b6001600160a01b0381166000908152600b602052604081205461101c5760405162461bcd60e51b81526020600482015260136024820152724e6f2070726564696374696f6e73206d61646560681b6044820152606401610947565b6000600a54116110655760405162461bcd60e51b81526020600482015260146024820152734e6f207265776172647320617661696c61626c6560601b6044820152606401610947565b600a546001600160a01b0383166000908152600b602052604081205490919061109690670de0b6b3a76400006118ba565b6110a0919061196c565b6002546040516370a0823160e01b81523060048201529192506000916001600160a01b03909116906370a0823190602401602060405180830381865afa1580156110ee573d6000803e3d6000fd5b505050506040513d601f19601f82011682018060405250810190611112919061188b565b90506000670de0b6b3a764000061112984846118ba565b611133919061196c565b9050600061114260028361196c565b61114c90836118e7565b9695505050505050565b600854336000908152600c602052604090205461117390426118e7565b10156111d15760405162461bcd60e51b815260206004820152602760248201527f5761697420666f7220657869744c696d6974206265666f7265206e65787420776044820152666974686472617760c81b6064820152608401610947565b60006111dc33610fc1565b9050600081116112245760405162461bcd60e51b81526020600482015260136024820152724e6f2072657761726420617661696c61626c6560681b6044820152606401610947565b600254604051632e1a7d4d60e01b8152600481018390526001600160a01b0390911690632e1a7d4d90602401600060405180830381600087803b15801561126a57600080fd5b505af115801561127e573d6000803e3d6000fd5b5050336000908152600b60205260408120546009805491945092506112a49084906118e7565b9091555050336000818152600b60209081526040808320839055600c8252808320429055600454600d909252909120556112de9082611527565b60405181815233907f1d3eee4ca001cff39eec6ec7615aacf2f2bd61791273830728ba00ccbd6e13379060200160405180910390a250565b61131e611645565b600354821061135f5760405162461bcd60e51b815260206004820152600d60248201526c092dcecc2d8d2c840d2dcc8caf609b1b6044820152606401610947565b60038281548110611372576113726118d1565b600091825260209182902060408051610120810190915260089092020180546001600160a01b0381168352919290919083019060ff600160a01b9091041680156113be576113be6116ad565b80156113cc576113cc6116ad565b815260018201546020820152600282015460408201526003820154606082015260048201546080820152600582015460a0820152600682015460c082015260079091015460ff16151560e09091015292915050565b60008160000361143357506001610e30565b600082841161144b5761144684846118e7565b611455565b61145583856118e7565b90506000836114658360646118ba565b61146f919061196c565b90508060000361148457600a92505050610e30565b6005811161149757600992505050610e30565b600a81116114aa57600892505050610e30565b600f81116114bd57600792505050610e30565b601481116114d057600692505050610e30565b601981116114e357600592505050610e30565b601e81116114f657600492505050610e30565b6023811161150957600392505050610e30565b6028811161151c57600292505050610e30565b600192505050610e30565b804710156115775760405162461bcd60e51b815260206004820152601d60248201527f416464726573733a20696e73756666696369656e742062616c616e63650000006044820152606401610947565b6000826001600160a01b03168260405160006040518083038185875af1925050503d80600081146115c4576040519150601f19603f3d011682016040523d82523d6000602084013e6115c9565b606091505b50509050806116405760405162461bcd60e51b815260206004820152603a60248201527f416464726573733a20756e61626c6520746f2073656e642076616c75652c207260448201527f6563697069656e74206d617920686176652072657665727465640000000000006064820152608401610947565b505050565b6040805161012081019091526000808252602082019081526020016000815260200160008152602001600081526020016000815260200160008152602001600081526020016000151581525090565b6000602082840312156116a657600080fd5b5035919050565b634e487b7160e01b600052602160045260246000fd5b600181106116e157634e487b7160e01b600052602160045260246000fd5b9052565b6001600160a01b038a1681526101208101611703602083018b6116c3565b60408201989098526060810196909652608086019490945260a085019290925260c084015260e083015215156101009091015292915050565b60006020828403121561174e57600080fd5b81356001600160a01b038116811461176557600080fd5b9392505050565b6000806040838503121561177f57600080fd5b82356001811061178e57600080fd5b946020939093013593505050565b600080604083850312156117af57600080fd5b50508035926020909101359150565b80516001600160a01b03168252602080820151906117de908401826116c3565b5060408101516040830152606081015160608301526080810151608083015260a081015160a083015260c081015160c083015260e081015160e083015261010080820151151581840152505050565b6020808252825182820181905260009190848201906040850190845b818110156118705761185c8385516117be565b928401926101209290920191600101611849565b50909695505050505050565b6101208101610e3082846117be565b60006020828403121561189d57600080fd5b5051919050565b634e487b7160e01b600052601160045260246000fd5b8082028115828204841417610e3057610e306118a4565b634e487b7160e01b600052603260045260246000fd5b81810381811115610e3057610e306118a4565b80820180821115610e3057610e306118a4565b60006001820161191f5761191f6118a4565b5060010190565b60a0810161193482886116c3565b8560208301528460408301528360608301528260808301529695505050505050565b634e487b7160e01b600052604160045260246000fd5b60008261198957634e487b7160e01b600052601260045260246000fd5b50049056fea2646970667358221220c89da8577420d7f34d36bbb87da73d8d0e2c84f0f08dba17c9f7a99e335a1ce664736f6c63430008110033",
  "linkReferences": {},
  "deployedLinkReferences": {}
}