{
  "_format": "hh-sol-artifact-1",
  "contractName": "PoolYearn",
  "sourceName": "contracts/PoolYearn.sol",
  "abi": [
    {
      "inputs": [
        {
          "internalType": "address",
          "name": "_oracleAddress",
          "type": "address"
        },
        {
          "internalType": "address",
          "name": "_wnative",
          "type": "address"
        },
        {
          "internalType": "address",
          "name": "_yearnVault",
          "type": "address"
        }
      ],
      "stateMutability": "nonpayable",
      "type": "constructor"
    },
    {
      "anonymous": false,
      "inputs": [
        {
          "indexed": true,
          "internalType": "address",
          "name": "predictor",
          "type": "address"
        },
        {
          "indexed": false,
          "internalType": "enum PoolYearn.Coin",
          "name": "token",
          "type": "uint8"
        },
        {
          "indexed": false,
          "internalType": "uint256",
          "name": "predictedPrice",
          "type": "uint256"
        },
        {
          "indexed": false,
          "internalType": "uint256",
          "name": "actualPrice",
          "type": "uint256"
        },
        {
          "indexed": false,
          "internalType": "uint256",
          "name": "timestamp",
          "type": "uint256"
        },
        {
          "indexed": false,
          "internalType": "uint256",
          "name": "endTime",
          "type": "uint256"
        }
      ],
      "name": "PredictionRegistered",
      "type": "event"
    },
    {
      "anonymous": false,
      "inputs": [
        {
          "indexed": true,
          "internalType": "address",
          "name": "predictor",
          "type": "address"
        },
        {
          "indexed": false,
          "internalType": "uint256",
          "name": "amount",
          "type": "uint256"
        }
      ],
      "name": "RewardWithdrawn",
      "type": "event"
    },
    {
      "inputs": [
        {
          "internalType": "address",
          "name": "user",
          "type": "address"
        }
      ],
      "name": "calculateReward",
      "outputs": [
        {
          "internalType": "uint256",
          "name": "",
          "type": "uint256"
        }
      ],
      "stateMutability": "view",
      "type": "function"
    },
    {
      "inputs": [
        {
          "internalType": "address",
          "name": "",
          "type": "address"
        }
      ],
      "name": "distributionCounter",
      "outputs": [
        {
          "internalType": "uint256",
          "name": "",
          "type": "uint256"
        }
      ],
      "stateMutability": "view",
      "type": "function"
    },
    {
      "inputs": [],
      "name": "exit",
      "outputs": [],
      "stateMutability": "nonpayable",
      "type": "function"
    },
    {
      "inputs": [],
      "name": "exitLimit",
      "outputs": [
        {
          "internalType": "uint256",
          "name": "",
          "type": "uint256"
        }
      ],
      "stateMutability": "view",
      "type": "function"
    },
    {
      "inputs": [
        {
          "internalType": "uint256",
          "name": "index",
          "type": "uint256"
        }
      ],
      "name": "getPrediction",
      "outputs": [
        {
          "components": [
            {
              "internalType": "address",
              "name": "predictor",
              "type": "address"
            },
            {
              "internalType": "enum PoolYearn.Coin",
              "name": "token",
              "type": "uint8"
            },
            {
              "internalType": "uint256",
              "name": "predictedPrice",
              "type": "uint256"
            },
            {
              "internalType": "uint256",
              "name": "actualPrice",
              "type": "uint256"
            },
            {
              "internalType": "uint256",
              "name": "resolvedPrice",
              "type": "uint256"
            },
            {
              "internalType": "uint256",
              "name": "difference",
              "type": "uint256"
            },
            {
              "internalType": "uint256",
              "name": "timestamp",
              "type": "uint256"
            },
            {
              "internalType": "uint256",
              "name": "endTime",
              "type": "uint256"
            },
            {
              "internalType": "bool",
              "name": "resolved",
              "type": "bool"
            }
          ],
          "internalType": "struct PoolYearn.Prediction",
          "name": "",
          "type": "tuple"
        }
      ],
      "stateMutability": "view",
      "type": "function"
    },
    {
      "inputs": [],
      "name": "getPredictionCount",
      "outputs": [
        {
          "internalType": "uint256",
          "name": "",
          "type": "uint256"
        }
      ],
      "stateMutability": "view",
      "type": "function"
    },
    {
      "inputs": [
        {
          "internalType": "uint256",
          "name": "from",
          "type": "uint256"
        },
        {
          "internalType": "uint256",
          "name": "to",
          "type": "uint256"
        }
      ],
      "name": "getPredictionFromTo",
      "outputs": [
        {
          "components": [
            {
              "internalType": "address",
              "name": "predictor",
              "type": "address"
            },
            {
              "internalType": "enum PoolYearn.Coin",
              "name": "token",
              "type": "uint8"
            },
            {
              "internalType": "uint256",
              "name": "predictedPrice",
              "type": "uint256"
            },
            {
              "internalType": "uint256",
              "name": "actualPrice",
              "type": "uint256"
            },
            {
              "internalType": "uint256",
              "name": "resolvedPrice",
              "type": "uint256"
            },
            {
              "internalType": "uint256",
              "name": "difference",
              "type": "uint256"
            },
            {
              "internalType": "uint256",
              "name": "timestamp",
              "type": "uint256"
            },
            {
              "internalType": "uint256",
              "name": "endTime",
              "type": "uint256"
            },
            {
              "internalType": "bool",
              "name": "resolved",
              "type": "bool"
            }
          ],
          "internalType": "struct PoolYearn.Prediction[]",
          "name": "",
          "type": "tuple[]"
        }
      ],
      "stateMutability": "view",
      "type": "function"
    },
    {
      "inputs": [],
      "name": "getSubmissionFee",
      "outputs": [
        {
          "internalType": "uint256",
          "name": "",
          "type": "uint256"
        }
      ],
      "stateMutability": "view",
      "type": "function"
    },
    {
      "inputs": [],
      "name": "getTotalPredictions",
      "outputs": [
        {
          "internalType": "uint256",
          "name": "",
          "type": "uint256"
        }
      ],
      "stateMutability": "view",
      "type": "function"
    },
    {
      "inputs": [],
      "name": "hasAnyUnresolvedPastEndTime",
      "outputs": [
        {
          "internalType": "bool",
          "name": "",
          "type": "bool"
        }
      ],
      "stateMutability": "view",
      "type": "function"
    },
    {
      "inputs": [],
      "name": "hasUnresolvedPredictions",
      "outputs": [
        {
          "internalType": "bool",
          "name": "",
          "type": "bool"
        }
      ],
      "stateMutability": "view",
      "type": "function"
    },
    {
      "inputs": [],
      "name": "last10Predictions",
      "outputs": [
        {
          "components": [
            {
              "internalType": "address",
              "name": "predictor",
              "type": "address"
            },
            {
              "internalType": "enum PoolYearn.Coin",
              "name": "token",
              "type": "uint8"
            },
            {
              "internalType": "uint256",
              "name": "predictedPrice",
              "type": "uint256"
            },
            {
              "internalType": "uint256",
              "name": "actualPrice",
              "type": "uint256"
            },
            {
              "internalType": "uint256",
              "name": "resolvedPrice",
              "type": "uint256"
            },
            {
              "internalType": "uint256",
              "name": "difference",
              "type": "uint256"
            },
            {
              "internalType": "uint256",
              "name": "timestamp",
              "type": "uint256"
            },
            {
              "internalType": "uint256",
              "name": "endTime",
              "type": "uint256"
            },
            {
              "internalType": "bool",
              "name": "resolved",
              "type": "bool"
            }
          ],
          "internalType": "struct PoolYearn.Prediction[]",
          "name": "",
          "type": "tuple[]"
        }
      ],
      "stateMutability": "view",
      "type": "function"
    },
    {
      "inputs": [
        {
          "internalType": "address",
          "name": "",
          "type": "address"
        }
      ],
      "name": "lastWithdraw",
      "outputs": [
        {
          "internalType": "uint256",
          "name": "",
          "type": "uint256"
        }
      ],
      "stateMutability": "view",
      "type": "function"
    },
    {
      "inputs": [],
      "name": "oracle",
      "outputs": [
        {
          "internalType": "contract Oracle",
          "name": "",
          "type": "address"
        }
      ],
      "stateMutability": "view",
      "type": "function"
    },
    {
      "inputs": [],
      "name": "predictionDuration",
      "outputs": [
        {
          "internalType": "uint256",
          "name": "",
          "type": "uint256"
        }
      ],
      "stateMutability": "view",
      "type": "function"
    },
    {
      "inputs": [
        {
          "internalType": "uint256",
          "name": "",
          "type": "uint256"
        }
      ],
      "name": "predictions",
      "outputs": [
        {
          "internalType": "address",
          "name": "predictor",
          "type": "address"
        },
        {
          "internalType": "enum PoolYearn.Coin",
          "name": "token",
          "type": "uint8"
        },
        {
          "internalType": "uint256",
          "name": "predictedPrice",
          "type": "uint256"
        },
        {
          "internalType": "uint256",
          "name": "actualPrice",
          "type": "uint256"
        },
        {
          "internalType": "uint256",
          "name": "resolvedPrice",
          "type": "uint256"
        },
        {
          "internalType": "uint256",
          "name": "difference",
          "type": "uint256"
        },
        {
          "internalType": "uint256",
          "name": "timestamp",
          "type": "uint256"
        },
        {
          "internalType": "uint256",
          "name": "endTime",
          "type": "uint256"
        },
        {
          "internalType": "bool",
          "name": "resolved",
          "type": "bool"
        }
      ],
      "stateMutability": "view",
      "type": "function"
    },
    {
      "inputs": [],
      "name": "resolutionLimit",
      "outputs": [
        {
          "internalType": "uint256",
          "name": "",
          "type": "uint256"
        }
      ],
      "stateMutability": "view",
      "type": "function"
    },
    {
      "inputs": [],
      "name": "resolve",
      "outputs": [],
      "stateMutability": "nonpayable",
      "type": "function"
    },
    {
      "inputs": [],
      "name": "submissionBaseFee",
      "outputs": [
        {
          "internalType": "uint256",
          "name": "",
          "type": "uint256"
        }
      ],
      "stateMutability": "view",
      "type": "function"
    },
    {
      "inputs": [],
      "name": "submissionStepFee",
      "outputs": [
        {
          "internalType": "uint256",
          "name": "",
          "type": "uint256"
        }
      ],
      "stateMutability": "view",
      "type": "function"
    },
    {
      "inputs": [
        {
          "internalType": "enum PoolYearn.Coin",
          "name": "_token",
          "type": "uint8"
        },
        {
          "internalType": "uint256",
          "name": "_predictedPrice",
          "type": "uint256"
        }
      ],
      "name": "submit",
      "outputs": [],
      "stateMutability": "payable",
      "type": "function"
    },
    {
      "inputs": [],
      "name": "totalDistribution",
      "outputs": [
        {
          "internalType": "uint256",
          "name": "",
          "type": "uint256"
        }
      ],
      "stateMutability": "view",
      "type": "function"
    },
    {
      "inputs": [],
      "name": "totalPredictions",
      "outputs": [
        {
          "internalType": "uint256",
          "name": "",
          "type": "uint256"
        }
      ],
      "stateMutability": "view",
      "type": "function"
    },
    {
      "inputs": [
        {
          "internalType": "address",
          "name": "",
          "type": "address"
        }
      ],
      "name": "userSubmissionFees",
      "outputs": [
        {
          "internalType": "uint256",
          "name": "",
          "type": "uint256"
        }
      ],
      "stateMutability": "view",
      "type": "function"
    },
    {
      "inputs": [],
      "name": "wnative",
      "outputs": [
        {
          "internalType": "contract IWETH",
          "name": "",
          "type": "address"
        }
      ],
      "stateMutability": "view",
      "type": "function"
    },
    {
      "inputs": [],
      "name": "yearnVault",
      "outputs": [
        {
          "internalType": "contract IVault",
          "name": "",
          "type": "address"
        }
      ],
      "stateMutability": "view",
      "type": "function"
    },
    {
      "stateMutability": "payable",
      "type": "receive"
    }
  ],
  "bytecode": "0x6080604052662386f26fc1000060055566038d7ea4c680006006556201518060075561025860085562093a806009556000600a556000600b553480156200004557600080fd5b5060405162001d2938038062001d298339810160408190526200006891620000cd565b6001600081905580546001600160a01b039485166001600160a01b03199182161790915560038054938516938216939093179092556004805491909316911617905562000117565b80516001600160a01b0381168114620000c857600080fd5b919050565b600080600060608486031215620000e357600080fd5b620000ee84620000b0565b9250620000fe60208501620000b0565b91506200010e60408501620000b0565b90509250925092565b611c0280620001276000396000f3fe6080604052600436106101845760003560e01c806370246a1e116100d1578063cd6347921161008a578063e75e454e11610064578063e75e454e1461044b578063e9fad8ee14610461578063f9be852314610476578063fe83bece1461049857600080fd5b8063cd63479214610400578063d1c4e1b414610416578063d82e39621461042b57600080fd5b806370246a1e1461036857806371d61cd51461037e578063779bd562146103945780637dc0d1d0146103aa57806380450cde146103ca5780639db5df46146103e057600080fd5b806344ed9f661161013e5780635590cfa9116101185780635590cfa9146102cc5780635c580061146102f9578063600bebf51461030e578063624d7b721461033b57600080fd5b806344ed9f661461028e5780634abf93b7146102a45780634ce93cc8146102b957600080fd5b80624fbbb01461019057806301668096146101ce578063037361e9146101ed5780632810e1d61461021a5780632cebdeb214610231578063371d5d021461026957600080fd5b3661018b57005b600080fd5b34801561019c57600080fd5b506101b06101ab3660046118b0565b6104c5565b6040516101c599989796959493929190611901565b60405180910390f35b3480156101da57600080fd5b506002545b6040519081526020016101c5565b3480156101f957600080fd5b506101df610208366004611958565b600c6020526000908152604090205481565b34801561022657600080fd5b5061022f610532565b005b34801561023d57600080fd5b50600354610251906001600160a01b031681565b6040516001600160a01b0390911681526020016101c5565b34801561027557600080fd5b5061027e61085a565b60405190151581526020016101c5565b34801561029a57600080fd5b506101df60095481565b3480156102b057600080fd5b5061027e6108b8565b61022f6102c7366004611988565b61093f565b3480156102d857600080fd5b506102ec6102e73660046119b8565b610d67565b6040516101c59190611a49565b34801561030557600080fd5b50600a546101df565b34801561031a57600080fd5b506101df610329366004611958565b600e6020526000908152604090205481565b34801561034757600080fd5b506101df610356366004611958565b600d6020526000908152604090205481565b34801561037457600080fd5b506101df60075481565b34801561038a57600080fd5b506101df60085481565b3480156103a057600080fd5b506101df600a5481565b3480156103b657600080fd5b50600154610251906001600160a01b031681565b3480156103d657600080fd5b506101df60065481565b3480156103ec57600080fd5b50600454610251906001600160a01b031681565b34801561040c57600080fd5b506101df60055481565b34801561042257600080fd5b506102ec610f53565b34801561043757600080fd5b506101df610446366004611958565b6110de565b34801561045757600080fd5b506101df600b5481565b34801561046d57600080fd5b5061022f611274565b34801561048257600080fd5b50336000908152600e60205260409020546101df565b3480156104a457600080fd5b506104b86104b33660046118b0565b611532565b6040516101c59190611a98565b600281815481106104d557600080fd5b6000918252602090912060089091020180546001820154600283015460038401546004850154600586015460068701546007909701546001600160a01b038716985060ff600160a01b909704871697959694959394929391921689565b60015460408051638e15f47360e01b815290516000926001600160a01b031691638e15f4739160048083019260209291908290030181865afa15801561057c573d6000803e3d6000fd5b505050506040513d601f19601f820116820180604052508101906105a09190611aa7565b6105af906402540be400611ad6565b905060005b60025481101561082157600281815481106105d1576105d1611aed565b600091825260209091206007600890920201015460ff1615801561061957506002818154811061060357610603611aed565b9060005260206000209060080201600601544210155b1561080f5760006002828154811061063357610633611aed565b9060005260206000209060080201600101549050600083821161065f5761065a8285611b03565b610669565b6106698483611b03565b90506000610677838661163d565b90506008546002858154811061068f5761068f611aed565b9060005260206000209060080201600601546106ab9190611b16565b421161070e576000600c6000600287815481106106ca576106ca611aed565b600091825260208083206008909202909101546001600160a01b0316835282019290925260400181208054909190610703908490611b16565b909155506107659050565b80600c60006002878154811061072657610726611aed565b600091825260208083206008909202909101546001600160a01b031683528201929092526040018120805490919061075f908490611b16565b90915550505b816002858154811061077957610779611aed565b9060005260206000209060080201600401819055506001600285815481106107a3576107a3611aed565b906000526020600020906008020160070160006101000a81548160ff02191690831515021790555084600285815481106107df576107df611aed565b90600052602060002090600802016003018190555080600b60008282546108069190611b16565b90915550505050505b8061081981611b29565b9150506105b4565b50336000908152600c6020526040812080549161083d83611b29565b9091555050600b805490600061085283611b29565b919050555050565b6000805b6002548110156108b0576002818154811061087b5761087b611aed565b600091825260209091206007600890920201015460ff1661089e57600191505090565b806108a881611b29565b91505061085e565b506000905090565b6000805b6002548110156108b057600281815481106108d9576108d9611aed565b600091825260209091206007600890920201015460ff1615801561092057506002818154811061090b5761090b611aed565b90600052602060002090600802016006015442115b1561092d57600191505090565b8061093781611b29565b9150506108bc565b60055434101561098b5760405162461bcd60e51b8152602060048201526012602482015271125b9d985b1a590819995948185b5bdd5b9d60721b60448201526064015b60405180910390fd5b336000908152600e60205260409020543410156109df5760405162461bcd60e51b8152602060048201526012602482015271125b9d985b1a590819995948185b5bdd5b9d60721b6044820152606401610982565b336000908152600e60205260408120348082556006549290610a02908490611b16565b909155505060015460408051638e15f47360e01b815290516000926001600160a01b031691638e15f4739160048083019260209291908290030181865afa158015610a51573d6000803e3d6000fd5b505050506040513d601f19601f82011682018060405250810190610a759190611aa7565b610a84906402540be400611ad6565b90506002604051806101200160405280336001600160a01b03168152602001856000811115610ab557610ab56118c9565b8152602001848152602001838152602001600081526020016000815260200142815260200160075442610ae89190611b16565b8152600060209182018190528354600181018555938152819020825160089094020180546001600160a01b039094166001600160a01b031985168117825591830151929390929183916001600160a81b03191617600160a01b838015610b5057610b506118c9565b021790555060408201516001820155606082015160028201556080820151600382015560a0820151600482015560c0820151600582015560e08201516006820155610100909101516007909101805460ff1916911515919091179055600a8054906000610bbc83611b29565b9190505550600360009054906101000a90046001600160a01b03166001600160a01b031663d0e30db0346040518263ffffffff1660e01b81526004016000604051808303818588803b158015610c1157600080fd5b505af1158015610c25573d6000803e3d6000fd5b50506003546004805460405163095ea7b360e01b81526001600160a01b0391821692810192909252346024830152909116935063095ea7b3925060440190506020604051808303816000875af1158015610c83573d6000803e3d6000fd5b505050506040513d601f19601f82011682018060405250810190610ca79190611b42565b5060048054604051636e553f6560e01b815234928101929092523060248301526001600160a01b031690636e553f6590604401600060405180830381600087803b158015610cf457600080fd5b505af1158015610d08573d6000803e3d6000fd5b50505050336001600160a01b03167f046796fc72779cbabd1ea8b64c35f18f13d4d3d4693526deb779040b773c311b8484844260075442610d499190611b16565b604051610d5a959493929190611b64565b60405180910390a2505050565b6060818310610da85760405162461bcd60e51b815260206004820152600d60248201526c496e76616c69642072616e676560981b6044820152606401610982565b600254821115610dea5760405162461bcd60e51b815260206004820152600d60248201526c496e76616c69642072616e676560981b6044820152606401610982565b6000610df68484611b03565b67ffffffffffffffff811115610e0e57610e0e611b94565b604051908082528060200260200182016040528015610e4757816020015b610e34611861565b815260200190600190039081610e2c5790505b509050835b83811015610f495760028181548110610e6757610e67611aed565b600091825260209182902060408051610120810190915260089092020180546001600160a01b0381168352919290919083019060ff600160a01b909104168015610eb357610eb36118c9565b8015610ec157610ec16118c9565b815260018201546020820152600282015460408201526003820154606082015260048201546080820152600582015460a0820152600682015460c082015260079091015460ff16151560e09091015282610f1b8784611b03565b81518110610f2b57610f2b611aed565b60200260200101819052508080610f4190611b29565b915050610e4c565b5090505b92915050565b6002546060906000600a8211610f6a576000610f75565b610f75600a83611b03565b90506000610f838284611b03565b67ffffffffffffffff811115610f9b57610f9b611b94565b604051908082528060200260200182016040528015610fd457816020015b610fc1611861565b815260200190600190039081610fb95790505b509050815b838110156110d65760028181548110610ff457610ff4611aed565b600091825260209182902060408051610120810190915260089092020180546001600160a01b0381168352919290919083019060ff600160a01b909104168015611040576110406118c9565b801561104e5761104e6118c9565b815260018201546020820152600282015460408201526003820154606082015260048201546080820152600582015460a0820152600682015460c082015260079091015460ff16151560e090910152826110a88584611b03565b815181106110b8576110b8611aed565b602002602001018190525080806110ce90611b29565b915050610fd9565b509392505050565b6001600160a01b0381166000908152600c60205260408120546111395760405162461bcd60e51b81526020600482015260136024820152724e6f2070726564696374696f6e73206d61646560681b6044820152606401610982565b6000600b54116111825760405162461bcd60e51b81526020600482015260146024820152734e6f207265776172647320617661696c61626c6560601b6044820152606401610982565b600b546001600160a01b0383166000908152600c60205260408120549091906111b390670de0b6b3a7640000611ad6565b6111bd9190611baa565b600480546040516370a0823160e01b815230928101929092529192506000916001600160a01b0316906370a0823190602401602060405180830381865afa15801561120c573d6000803e3d6000fd5b505050506040513d601f19601f820116820180604052508101906112309190611aa7565b90506000670de0b6b3a76400006112478484611ad6565b6112519190611baa565b90506000611260600283611baa565b61126a9083611b03565b9695505050505050565b600954336000908152600d60205260409020546112919042611b03565b10156112ef5760405162461bcd60e51b815260206004820152602760248201527f5761697420666f7220657869744c696d6974206265666f7265206e65787420776044820152666974686472617760c81b6064820152608401610982565b60006112fa336110de565b9050600081116113425760405162461bcd60e51b81526020600482015260136024820152724e6f2072657761726420617661696c61626c6560681b6044820152606401610982565b6004805460405163095ea7b360e01b81526001600160a01b039091169181018290526024810183905263095ea7b3906044016020604051808303816000875af1158015611393573d6000803e3d6000fd5b505050506040513d601f19601f820116820180604052508101906113b79190611b42565b50600480546040516328c6306960e21b81529182018390523060248301819052604483015260c8606483015247916001600160a01b039091169063a318c1a490608401600060405180830381600087803b15801561141457600080fd5b505af1158015611428573d6000803e3d6000fd5b504792506000915061143c90508383611b03565b600354604051632e1a7d4d60e01b8152600481018390529192506001600160a01b031690632e1a7d4d90602401600060405180830381600087803b15801561148357600080fd5b505af1158015611497573d6000803e3d6000fd5b5050336000908152600c6020526040812054600a805491945092506114bd908490611b03565b9091555050336000818152600c60209081526040808320839055600d8252808320429055600554600e909252909120556114f79082611743565b60405181815233907f1d3eee4ca001cff39eec6ec7615aacf2f2bd61791273830728ba00ccbd6e13379060200160405180910390a250505050565b61153a611861565b600254821061157b5760405162461bcd60e51b815260206004820152600d60248201526c092dcecc2d8d2c840d2dcc8caf609b1b6044820152606401610982565b6002828154811061158e5761158e611aed565b600091825260209182902060408051610120810190915260089092020180546001600160a01b0381168352919290919083019060ff600160a01b9091041680156115da576115da6118c9565b80156115e8576115e86118c9565b815260018201546020820152600282015460408201526003820154606082015260048201546080820152600582015460a0820152600682015460c082015260079091015460ff16151560e09091015292915050565b60008160000361164f57506001610f4d565b6000828411611667576116628484611b03565b611671565b6116718385611b03565b9050600083611681836064611ad6565b61168b9190611baa565b9050806000036116a057600a92505050610f4d565b600581116116b357600992505050610f4d565b600a81116116c657600892505050610f4d565b600f81116116d957600792505050610f4d565b601481116116ec57600692505050610f4d565b601981116116ff57600592505050610f4d565b601e811161171257600492505050610f4d565b6023811161172557600392505050610f4d565b6028811161173857600292505050610f4d565b600192505050610f4d565b804710156117935760405162461bcd60e51b815260206004820152601d60248201527f416464726573733a20696e73756666696369656e742062616c616e63650000006044820152606401610982565b6000826001600160a01b03168260405160006040518083038185875af1925050503d80600081146117e0576040519150601f19603f3d011682016040523d82523d6000602084013e6117e5565b606091505b505090508061185c5760405162461bcd60e51b815260206004820152603a60248201527f416464726573733a20756e61626c6520746f2073656e642076616c75652c207260448201527f6563697069656e74206d617920686176652072657665727465640000000000006064820152608401610982565b505050565b6040805161012081019091526000808252602082019081526020016000815260200160008152602001600081526020016000815260200160008152602001600081526020016000151581525090565b6000602082840312156118c257600080fd5b5035919050565b634e487b7160e01b600052602160045260246000fd5b600181106118fd57634e487b7160e01b600052602160045260246000fd5b9052565b6001600160a01b038a168152610120810161191f602083018b6118df565b60408201989098526060810196909652608086019490945260a085019290925260c084015260e083015215156101009091015292915050565b60006020828403121561196a57600080fd5b81356001600160a01b038116811461198157600080fd5b9392505050565b6000806040838503121561199b57600080fd5b8235600181106119aa57600080fd5b946020939093013593505050565b600080604083850312156119cb57600080fd5b50508035926020909101359150565b80516001600160a01b03168252602080820151906119fa908401826118df565b5060408101516040830152606081015160608301526080810151608083015260a081015160a083015260c081015160c083015260e081015160e083015261010080820151151581840152505050565b6020808252825182820181905260009190848201906040850190845b81811015611a8c57611a788385516119da565b928401926101209290920191600101611a65565b50909695505050505050565b6101208101610f4d82846119da565b600060208284031215611ab957600080fd5b5051919050565b634e487b7160e01b600052601160045260246000fd5b8082028115828204841417610f4d57610f4d611ac0565b634e487b7160e01b600052603260045260246000fd5b81810381811115610f4d57610f4d611ac0565b80820180821115610f4d57610f4d611ac0565b600060018201611b3b57611b3b611ac0565b5060010190565b600060208284031215611b5457600080fd5b8151801515811461198157600080fd5b60a08101611b7282886118df565b8560208301528460408301528360608301528260808301529695505050505050565b634e487b7160e01b600052604160045260246000fd5b600082611bc757634e487b7160e01b600052601260045260246000fd5b50049056fea26469706673582212203ed4132d0c82e6901bf1b1783ec2400d1c92194e81787f6602dd6d996cdfa8db64736f6c63430008110033",
  "linkReferences": {},
  "deployedLinkReferences": {}
}