{
  "_format": "hh-sol-artifact-1",
  "contractName": "Tournament",
  "sourceName": "contracts/Tournament.sol",
  "abi": [
    {
      "inputs": [
        {
          "internalType": "address",
          "name": "_oracleAddress",
          "type": "address"
        },
        {
          "internalType": "uint256",
          "name": "_maxParticipants",
          "type": "uint256"
        }
      ],
      "stateMutability": "nonpayable",
      "type": "constructor"
    },
    {
      "anonymous": false,
      "inputs": [
        {
          "indexed": false,
          "internalType": "uint256",
          "name": "round",
          "type": "uint256"
        },
        {
          "indexed": true,
          "internalType": "address",
          "name": "predictor",
          "type": "address"
        },
        {
          "indexed": false,
          "internalType": "uint256",
          "name": "predictedPrice",
          "type": "uint256"
        },
        {
          "indexed": false,
          "internalType": "uint256",
          "name": "amount",
          "type": "uint256"
        }
      ],
      "name": "PredictionSubmitted",
      "type": "event"
    },
    {
      "anonymous": false,
      "inputs": [
        {
          "indexed": false,
          "internalType": "uint256",
          "name": "round",
          "type": "uint256"
        },
        {
          "indexed": false,
          "internalType": "address[]",
          "name": "winners",
          "type": "address[]"
        },
        {
          "indexed": false,
          "internalType": "uint256[]",
          "name": "prizeAmounts",
          "type": "uint256[]"
        }
      ],
      "name": "TournamentResolved",
      "type": "event"
    },
    {
      "inputs": [],
      "name": "currentRound",
      "outputs": [
        {
          "internalType": "uint256",
          "name": "",
          "type": "uint256"
        }
      ],
      "stateMutability": "view",
      "type": "function"
    },
    {
      "inputs": [],
      "name": "getCurrentPricePool",
      "outputs": [
        {
          "internalType": "uint256",
          "name": "",
          "type": "uint256"
        }
      ],
      "stateMutability": "view",
      "type": "function"
    },
    {
      "inputs": [],
      "name": "getCurrentRound",
      "outputs": [
        {
          "internalType": "uint256",
          "name": "",
          "type": "uint256"
        }
      ],
      "stateMutability": "view",
      "type": "function"
    },
    {
      "inputs": [],
      "name": "getCurrentRoundPartecipants",
      "outputs": [
        {
          "internalType": "uint256",
          "name": "",
          "type": "uint256"
        }
      ],
      "stateMutability": "view",
      "type": "function"
    },
    {
      "inputs": [],
      "name": "getLastWinners",
      "outputs": [
        {
          "internalType": "address[]",
          "name": "",
          "type": "address[]"
        }
      ],
      "stateMutability": "view",
      "type": "function"
    },
    {
      "inputs": [],
      "name": "getLatestRoundPrice",
      "outputs": [
        {
          "internalType": "uint256",
          "name": "",
          "type": "uint256"
        }
      ],
      "stateMutability": "view",
      "type": "function"
    },
    {
      "inputs": [],
      "name": "getMaxPartecipants",
      "outputs": [
        {
          "internalType": "uint256",
          "name": "",
          "type": "uint256"
        }
      ],
      "stateMutability": "view",
      "type": "function"
    },
    {
      "inputs": [],
      "name": "getNextVerificationTime",
      "outputs": [
        {
          "internalType": "uint256",
          "name": "",
          "type": "uint256"
        }
      ],
      "stateMutability": "view",
      "type": "function"
    },
    {
      "inputs": [],
      "name": "getPartecipants",
      "outputs": [
        {
          "internalType": "address[]",
          "name": "",
          "type": "address[]"
        }
      ],
      "stateMutability": "view",
      "type": "function"
    },
    {
      "inputs": [],
      "name": "getPredictions",
      "outputs": [
        {
          "components": [
            {
              "internalType": "uint256",
              "name": "round",
              "type": "uint256"
            },
            {
              "internalType": "address",
              "name": "predictor",
              "type": "address"
            },
            {
              "internalType": "uint256",
              "name": "predictedPrice",
              "type": "uint256"
            },
            {
              "internalType": "uint256",
              "name": "amount",
              "type": "uint256"
            }
          ],
          "internalType": "struct Tournament.Prediction[]",
          "name": "",
          "type": "tuple[]"
        }
      ],
      "stateMutability": "view",
      "type": "function"
    },
    {
      "inputs": [],
      "name": "getPrice",
      "outputs": [
        {
          "internalType": "uint256",
          "name": "",
          "type": "uint256"
        }
      ],
      "stateMutability": "view",
      "type": "function"
    },
    {
      "inputs": [],
      "name": "isRoundOpen",
      "outputs": [
        {
          "internalType": "bool",
          "name": "",
          "type": "bool"
        }
      ],
      "stateMutability": "view",
      "type": "function"
    },
    {
      "inputs": [],
      "name": "keeperPercentageFee",
      "outputs": [
        {
          "internalType": "uint256",
          "name": "",
          "type": "uint256"
        }
      ],
      "stateMutability": "view",
      "type": "function"
    },
    {
      "inputs": [],
      "name": "lastRoundPrice",
      "outputs": [
        {
          "internalType": "uint256",
          "name": "",
          "type": "uint256"
        }
      ],
      "stateMutability": "view",
      "type": "function"
    },
    {
      "inputs": [],
      "name": "maxParticipants",
      "outputs": [
        {
          "internalType": "uint256",
          "name": "",
          "type": "uint256"
        }
      ],
      "stateMutability": "view",
      "type": "function"
    },
    {
      "inputs": [],
      "name": "oracle",
      "outputs": [
        {
          "internalType": "contract Oracle",
          "name": "",
          "type": "address"
        }
      ],
      "stateMutability": "view",
      "type": "function"
    },
    {
      "inputs": [
        {
          "internalType": "uint256",
          "name": "",
          "type": "uint256"
        }
      ],
      "name": "predictions",
      "outputs": [
        {
          "internalType": "uint256",
          "name": "round",
          "type": "uint256"
        },
        {
          "internalType": "address",
          "name": "predictor",
          "type": "address"
        },
        {
          "internalType": "uint256",
          "name": "predictedPrice",
          "type": "uint256"
        },
        {
          "internalType": "uint256",
          "name": "amount",
          "type": "uint256"
        }
      ],
      "stateMutability": "view",
      "type": "function"
    },
    {
      "inputs": [],
      "name": "priceFeedAddress",
      "outputs": [
        {
          "internalType": "address",
          "name": "",
          "type": "address"
        }
      ],
      "stateMutability": "view",
      "type": "function"
    },
    {
      "inputs": [],
      "name": "prizePool",
      "outputs": [
        {
          "internalType": "uint256",
          "name": "",
          "type": "uint256"
        }
      ],
      "stateMutability": "view",
      "type": "function"
    },
    {
      "inputs": [],
      "name": "resolutionEndTime",
      "outputs": [
        {
          "internalType": "uint256",
          "name": "",
          "type": "uint256"
        }
      ],
      "stateMutability": "view",
      "type": "function"
    },
    {
      "inputs": [],
      "name": "resolveTournament",
      "outputs": [],
      "stateMutability": "nonpayable",
      "type": "function"
    },
    {
      "inputs": [
        {
          "internalType": "uint256",
          "name": "",
          "type": "uint256"
        }
      ],
      "name": "roundWinners",
      "outputs": [
        {
          "internalType": "address",
          "name": "",
          "type": "address"
        }
      ],
      "stateMutability": "view",
      "type": "function"
    },
    {
      "inputs": [],
      "name": "submissionEndTime",
      "outputs": [
        {
          "internalType": "uint256",
          "name": "",
          "type": "uint256"
        }
      ],
      "stateMutability": "view",
      "type": "function"
    },
    {
      "inputs": [
        {
          "internalType": "uint256",
          "name": "_predictedPrice",
          "type": "uint256"
        }
      ],
      "name": "submitPrediction",
      "outputs": [],
      "stateMutability": "payable",
      "type": "function"
    },
    {
      "inputs": [],
      "name": "verificationEndTime",
      "outputs": [
        {
          "internalType": "uint256",
          "name": "",
          "type": "uint256"
        }
      ],
      "stateMutability": "view",
      "type": "function"
    },
    {
      "inputs": [],
      "name": "verificationTime",
      "outputs": [
        {
          "internalType": "uint256",
          "name": "",
          "type": "uint256"
        }
      ],
      "stateMutability": "view",
      "type": "function"
    },
    {
      "stateMutability": "payable",
      "type": "receive"
    }
  ],
  "bytecode": "0x6080604052606460025561708060035562015180600455610e106005556000600c5534801561002d57600080fd5b50604051620019903803806200199083398101604081905261004e9161008b565b6001600081905580546001600160a01b0319166001600160a01b038416179055600681905560045461008090426100c5565b600955506100ec9050565b6000806040838503121561009e57600080fd5b82516001600160a01b03811681146100b557600080fd5b6020939093015192949293505050565b808201808211156100e657634e487b7160e01b600052601160045260246000fd5b92915050565b61189480620000fc6000396000f3fe6080604052600436106101835760003560e01c80638a19c8bc116100d1578063bb9b110b1161008a578063e2f1dcc611610064578063e2f1dcc614610426578063ef949f4a1461043b578063f985ad9314610450578063f9ceb3ea1461046657600080fd5b8063bb9b110b146103bf578063c78c3a83146103e4578063e0abca0b1461040657600080fd5b80638a19c8bc146103315780638dd78d671461034757806393bc976e1461035d578063956909361461037357806398d5fdca14610395578063a32bf597146103aa57600080fd5b8063532eaca01161013e578063719ce73e11610118578063719ce73e146102ae57806376a4956c146102c45780637dc0d1d0146102fc57806385d62b451461031c57600080fd5b8063532eaca01461026e57806358f6b9c5146102845780635d21b2551461029957600080fd5b80624fbbb0146101a7578062614418146101f4578063149c6dac1461021857806324924bf71461022e578063308d19ab14610244578063344c8e371461025957600080fd5b366101a25734600b600082825461019a919061163c565b925050819055005b600080fd5b3480156101b357600080fd5b506101c76101c2366004611655565b61047b565b604080519485526001600160a01b0390931660208501529183015260608201526080015b60405180910390f35b34801561020057600080fd5b5061020a60095481565b6040519081526020016101eb565b34801561022457600080fd5b5061020a60025481565b34801561023a57600080fd5b5061020a60065481565b34801561025057600080fd5b5060065461020a565b34801561026557600080fd5b5060095461020a565b34801561027a57600080fd5b5061020a60035481565b34801561029057600080fd5b5060075461020a565b3480156102a557600080fd5b50600b5461020a565b3480156102ba57600080fd5b5061020a600b5481565b3480156102d057600080fd5b506102e46102df366004611655565b6104be565b6040516001600160a01b0390911681526020016101eb565b34801561030857600080fd5b506001546102e4906001600160a01b031681565b61032f61032a366004611655565b6104e8565b005b34801561033d57600080fd5b5061020a600c5481565b34801561035357600080fd5b5061020a60075481565b34801561036957600080fd5b5061020a60045481565b34801561037f57600080fd5b5061038861075d565b6040516101eb91906116b2565b3480156103a157600080fd5b5061020a6107bf565b3480156103b657600080fd5b50600c5461020a565b3480156103cb57600080fd5b506103d4610841565b60405190151581526020016101eb565b3480156103f057600080fd5b506103f961085b565b6040516101eb91906116cc565b34801561041257600080fd5b50600a546102e4906001600160a01b031681565b34801561043257600080fd5b5060085461020a565b34801561044757600080fd5b5061032f6108e5565b34801561045c57600080fd5b5061020a60055481565b34801561047257600080fd5b50610388611280565b6008818154811061048b57600080fd5b600091825260209091206004909102018054600182015460028301546003909301549193506001600160a01b0316919084565b600f81815481106104ce57600080fd5b6000918252602090912001546001600160a01b0316905081565b662386f26fc100003410156105445760405162461bcd60e51b815260206004820152601760248201527f456e7472792066656520697320302e303120657468657200000000000000000060448201526064015b60405180910390fd5b600654600854106105975760405162461bcd60e51b815260206004820152601960248201527f5061727469636970616e74206c696d6974207265616368656400000000000000604482015260640161053b565b6003546009546105a79190611739565b42111561060b5760405162461bcd60e51b815260206004820152602c60248201527f5375626d697373696f6e7320636c6f736564203420686f757273206265666f7260448201526b6520726f756e6420656e647360a01b606482015260840161053b565b60408051608081018252600c5481523360208201908152918101838152346060830181815260088054600181018255600091825294517ff3f7a9fe364faab93b216da50a3214154f22a0a2b415b23a84c8169e8b636ee360049096029586015594517ff3f7a9fe364faab93b216da50a3214154f22a0a2b415b23a84c8169e8b636ee4850180546001600160a01b0319166001600160a01b0390921691909117905591517ff3f7a9fe364faab93b216da50a3214154f22a0a2b415b23a84c8169e8b636ee584015590517ff3f7a9fe364faab93b216da50a3214154f22a0a2b415b23a84c8169e8b636ee690920191909155600b80549192909161071090849061163c565b9091555050600c546040805191825260208201839052349082015233907f6508c7e3d28df907ed24f614c03b61c067dbc85e84a98bb8f78ffb1c8a711e559060600160405180910390a250565b6060600f8054806020026020016040519081016040528092919081815260200182805480156107b557602002820191906000526020600020905b81546001600160a01b03168152600190910190602001808311610797575b5050505050905090565b60015460408051638e15f47360e01b815290516000926001600160a01b031691638e15f4739160048083019260209291908290030181865afa158015610809573d6000803e3d6000fd5b505050506040513d601f19601f8201168201806040525081019061082d919061174c565b61083c906402540be400611765565b905090565b60006138406009546108539190611739565b421115905090565b60606008805480602002602001604051908101604052809291908181526020016000905b828210156108dc5760008481526020908190206040805160808101825260048602909201805483526001808201546001600160a01b031684860152600282015492840192909252600301546060830152908352909201910161087f565b50505050905090565b6108ed611354565b6009544210156109495760405162461bcd60e51b815260206004820152602160248201527f546f75726e616d656e742063616e6e6f74206265207265736f6c7665642079656044820152601d60fa1b606482015260840161053b565b600554600954610959919061163c565b4210610a305760005b6008548110156109e3576109d1600882815481106109825761098261177c565b906000526020600020906004020160010160009054906101000a90046001600160a01b0316600883815481106109ba576109ba61177c565b9060005260206000209060040201600301546113ad565b806109db81611792565b915050610962565b50600c54604080516000808252602082019081528183019283905260008051602061183f83398151915293610a1b93909291906117c1565b60405180910390a1610a2b6114cb565b611274565b60015460408051638e15f47360e01b815290516000926001600160a01b031691638e15f4739160048083019260209291908290030181865afa158015610a7a573d6000803e3d6000fd5b505050506040513d601f19601f82011682018060405250810190610a9e919061174c565b90506000610ab1826402540be400611765565b6007819055600854909150600003610b2f57600c54604080516000808252602082019081528183019283905260008051602061183f83398151915293610afa93909291906117c1565b60405180910390a16040805160008152602081019182905251610b1f91600f91611509565b50610b286114cb565b5050611274565b600854600103610c91576040805160018082528183019092526000916020808301908036833750506040805160018082528183019092529293506000929150602080830190803683370190505090506008600081548110610b9257610b9261177c565b6000918252602082206001600490920201015483516001600160a01b03909116918491610bc157610bc161177c565b60200260200101906001600160a01b031690816001600160a01b031681525050600b5481600081518110610bf757610bf761177c565b602002602001018181525050610c4182600081518110610c1957610c1961177c565b602002602001015182600081518110610c3457610c3461177c565b60200260200101516113ad565b60008051602061183f833981519152600c548383604051610c64939291906117c1565b60405180910390a18151610c7f90600f906020850190611509565b50610c886114cb565b50505050611274565b600854600203610e1b5760408051600280825260608201835260009260208301908036833750506040805160028082526060820183529394506000939092509060208301908036833701905050905060006002600b54610cf1919061181c565b905060005b6002811015610dc95760088181548110610d1257610d1261177c565b906000526020600020906004020160010160009054906101000a90046001600160a01b0316848281518110610d4957610d4961177c565b60200260200101906001600160a01b031690816001600160a01b03168152505081838281518110610d7c57610d7c61177c565b602002602001018181525050610db7848281518110610d9d57610d9d61177c565b6020026020010151848381518110610c3457610c3461177c565b80610dc181611792565b915050610cf6565b5060008051602061183f833981519152600c548484604051610ded939291906117c1565b60405180910390a18251610e0890600f906020860190611509565b50610e116114cb565b5050505050611274565b610e2361156e565b6000805b600854811015610fd45760008460088381548110610e4757610e4761177c565b90600052602060002090600402016002015411610e935760088281548110610e7157610e7161177c565b90600052602060002090600402016002015485610e8e9190611739565b610ec3565b8460088381548110610ea757610ea761177c565b906000526020600020906004020160020154610ec39190611739565b90506003831015610f1557604051806060016040528083815260200182815260200160011515815250848460038110610efe57610efe61177c565b602002015282610f0d81611792565b935050610fc1565b83516020015160009060015b6003811015610f7f5781878260038110610f3d57610f3d61177c565b6020020151602001511115610f6d57868160038110610f5e57610f5e61177c565b60200201516020015191508092505b80610f7781611792565b915050610f21565b5080831015610fbe57604051806060016040528085815260200184815260200160011515815250868360038110610fb857610fb861177c565b60200201525b50505b5080610fcc81611792565b915050610e27565b506000805b6008548110156110275760088181548110610ff657610ff661177c565b90600052602060002090600402016003015482611013919061163c565b91508061101f81611792565b915050610fd9565b506000612710600254600b5461103d9190611765565b611047919061181c565b905080600b600082825461105b9190611739565b9091555061106b905033826113ad565b60008367ffffffffffffffff811115611086576110866117ab565b6040519080825280602002602001820160405280156110af578160200160208202803683370190505b50905060008467ffffffffffffffff8111156110cd576110cd6117ab565b6040519080825280602002602001820160405280156110f6578160200160208202803683370190505b50905060005b6008548110156112235760006008828154811061111b5761111b61177c565b906000526020600020906004020160030154905060008682600b546111409190611765565b61114a919061181c565b90508084848151811061115f5761115f61177c565b6020026020010181815250506008838154811061117e5761117e61177c565b906000526020600020906004020160010160009054906101000a90046001600160a01b03168584815181106111b5576111b561177c565b60200260200101906001600160a01b031690816001600160a01b03168152505061120e600884815481106111eb576111eb61177c565b60009182526020909120600160049092020101546001600160a01b0316826113ad565b5050808061121b90611792565b9150506110fc565b50815161123790600f906020850190611509565b5060008051602061183f833981519152600c54838360405161125b939291906117c1565b60405180910390a161126b6114cb565b50505050505050505b61127e6001600055565b565b60085460609060009067ffffffffffffffff8111156112a1576112a16117ab565b6040519080825280602002602001820160405280156112ca578160200160208202803683370190505b50905060005b60085481101561134e57600881815481106112ed576112ed61177c565b906000526020600020906004020160010160009054906101000a90046001600160a01b03168282815181106113245761132461177c565b6001600160a01b03909216602092830291909101909101528061134681611792565b9150506112d0565b50919050565b6002600054036113a65760405162461bcd60e51b815260206004820152601f60248201527f5265656e7472616e637947756172643a207265656e7472616e742063616c6c00604482015260640161053b565b6002600055565b804710156113fd5760405162461bcd60e51b815260206004820152601d60248201527f416464726573733a20696e73756666696369656e742062616c616e6365000000604482015260640161053b565b6000826001600160a01b03168260405160006040518083038185875af1925050503d806000811461144a576040519150601f19603f3d011682016040523d82523d6000602084013e61144f565b606091505b50509050806114c65760405162461bcd60e51b815260206004820152603a60248201527f416464726573733a20756e61626c6520746f2073656e642076616c75652c207260448201527f6563697069656e74206d61792068617665207265766572746564000000000000606482015260840161053b565b505050565b6114d7600860006115b9565b6000600b556004546114e9904261163c565b6009819055506001600c6000828254611502919061163c565b9091555050565b82805482825590600052602060002090810192821561155e579160200282015b8281111561155e57825182546001600160a01b0319166001600160a01b03909116178255602090920191600190910190611529565b5061156a9291506115dd565b5090565b60405180606001604052806003905b6115a3604051806060016040528060008152602001600081526020016000151581525090565b81526020019060019003908161157d5790505090565b50805460008255600402906000526020600020908101906115da91906115f2565b50565b5b8082111561156a57600081556001016115de565b5b8082111561156a5760008082556001820180546001600160a01b03191690556002820181905560038201556004016115f3565b634e487b7160e01b600052601160045260246000fd5b8082018082111561164f5761164f611626565b92915050565b60006020828403121561166757600080fd5b5035919050565b600081518084526020808501945080840160005b838110156116a75781516001600160a01b031687529582019590820190600101611682565b509495945050505050565b6020815260006116c5602083018461166e565b9392505050565b602080825282518282018190526000919060409081850190868401855b8281101561172c57815180518552868101516001600160a01b031687860152858101518686015260609081015190850152608090930192908501906001016116e9565b5091979650505050505050565b8181038181111561164f5761164f611626565b60006020828403121561175e57600080fd5b5051919050565b808202811582820484141761164f5761164f611626565b634e487b7160e01b600052603260045260246000fd5b6000600182016117a4576117a4611626565b5060010190565b634e487b7160e01b600052604160045260246000fd5b838152600060206060818401526117db606084018661166e565b838103604085015284518082528286019183019060005b8181101561180e578351835292840192918401916001016117f2565b509098975050505050505050565b60008261183957634e487b7160e01b600052601260045260246000fd5b50049056fe4fd7288032271e74afa3073bdad87433c58165b48192fee01cb3ca4d114c3a0fa264697066735822122076058bb218e52d7ad618a485c5d13177111cc11e6aea27962b7d8f67d71522d864736f6c63430008110033",
  "linkReferences": {},
  "deployedLinkReferences": {}
}