{"contracts/Tournament.sol":{"Tournament":{"abi":[{"inputs":[{"internalType":"address","name":"_oracleAddress","type":"address"},{"internalType":"uint256","name":"_maxParticipants","type":"uint256"}],"stateMutability":"nonpayable","type":"constructor"},{"anonymous":false,"inputs":[{"indexed":false,"internalType":"uint256","name":"round","type":"uint256"},{"indexed":true,"internalType":"address","name":"predictor","type":"address"},{"indexed":false,"internalType":"uint256","name":"predictedPrice","type":"uint256"},{"indexed":false,"internalType":"uint256","name":"amount","type":"uint256"}],"name":"PredictionSubmitted","type":"event"},{"anonymous":false,"inputs":[{"indexed":false,"internalType":"uint256","name":"round","type":"uint256"},{"indexed":false,"internalType":"address[]","name":"winners","type":"address[]"},{"indexed":false,"internalType":"uint256[]","name":"prizeAmounts","type":"uint256[]"}],"name":"TournamentResolved","type":"event"},{"inputs":[],"name":"currentRound","outputs":[{"internalType":"uint256","name":"","type":"uint256"}],"stateMutability":"view","type":"function"},{"inputs":[],"name":"getCurrentPricePool","outputs":[{"internalType":"uint256","name":"","type":"uint256"}],"stateMutability":"view","type":"function"},{"inputs":[],"name":"getCurrentRound","outputs":[{"internalType":"uint256","name":"","type":"uint256"}],"stateMutability":"view","type":"function"},{"inputs":[],"name":"getCurrentRoundPartecipants","outputs":[{"internalType":"uint256","name":"","type":"uint256"}],"stateMutability":"view","type":"function"},{"inputs":[],"name":"getLastWinners","outputs":[{"internalType":"address[]","name":"","type":"address[]"}],"stateMutability":"view","type":"function"},{"inputs":[],"name":"getLatestRoundPrice","outputs":[{"internalType":"uint256","name":"","type":"uint256"}],"stateMutability":"view","type":"function"},{"inputs":[],"name":"getMaxPartecipants","outputs":[{"internalType":"uint256","name":"","type":"uint256"}],"stateMutability":"view","type":"function"},{"inputs":[],"name":"getNextVerificationTime","outputs":[{"internalType":"uint256","name":"","type":"uint256"}],"stateMutability":"view","type":"function"},{"inputs":[],"name":"getPartecipants","outputs":[{"internalType":"address[]","name":"","type":"address[]"}],"stateMutability":"view","type":"function"},{"inputs":[],"name":"getPredictions","outputs":[{"components":[{"internalType":"uint256","name":"round","type":"uint256"},{"internalType":"address","name":"predictor","type":"address"},{"internalType":"uint256","name":"predictedPrice","type":"uint256"},{"internalType":"uint256","name":"amount","type":"uint256"}],"internalType":"struct Tournament.Prediction[]","name":"","type":"tuple[]"}],"stateMutability":"view","type":"function"},{"inputs":[],"name":"getPrice","outputs":[{"internalType":"uint256","name":"","type":"uint256"}],"stateMutability":"view","type":"function"},{"inputs":[],"name":"isRoundOpen","outputs":[{"internalType":"bool","name":"","type":"bool"}],"stateMutability":"view","type":"function"},{"inputs":[],"name":"keeperPercentageFee","outputs":[{"internalType":"uint256","name":"","type":"uint256"}],"stateMutability":"view","type":"function"},{"inputs":[],"name":"lastRoundPrice","outputs":[{"internalType":"uint256","name":"","type":"uint256"}],"stateMutability":"view","type":"function"},{"inputs":[],"name":"maxParticipants","outputs":[{"internalType":"uint256","name":"","type":"uint256"}],"stateMutability":"view","type":"function"},{"inputs":[],"name":"oracle","outputs":[{"internalType":"contract Oracle","name":"","type":"address"}],"stateMutability":"view","type":"function"},{"inputs":[{"internalType":"uint256","name":"","type":"uint256"}],"name":"predictions","outputs":[{"internalType":"uint256","name":"round","type":"uint256"},{"internalType":"address","name":"predictor","type":"address"},{"internalType":"uint256","name":"predictedPrice","type":"uint256"},{"internalType":"uint256","name":"amount","type":"uint256"}],"stateMutability":"view","type":"function"},{"inputs":[],"name":"priceFeedAddress","outputs":[{"internalType":"address","name":"","type":"address"}],"stateMutability":"view","type":"function"},{"inputs":[],"name":"prizePool","outputs":[{"internalType":"uint256","name":"","type":"uint256"}],"stateMutability":"view","type":"function"},{"inputs":[],"name":"resolutionEndTime","outputs":[{"internalType":"uint256","name":"","type":"uint256"}],"stateMutability":"view","type":"function"},{"inputs":[],"name":"resolveTournament","outputs":[],"stateMutability":"nonpayable","type":"function"},{"inputs":[{"internalType":"uint256","name":"","type":"uint256"}],"name":"roundWinners","outputs":[{"internalType":"address","name":"","type":"address"}],"stateMutability":"view","type":"function"},{"inputs":[],"name":"submissionEndTime","outputs":[{"internalType":"uint256","name":"","type":"uint256"}],"stateMutability":"view","type":"function"},{"inputs":[{"internalType":"uint256","name":"_predictedPrice","type":"uint256"}],"name":"submitPrediction","outputs":[],"stateMutability":"payable","type":"function"},{"inputs":[],"name":"verificationEndTime","outputs":[{"internalType":"uint256","name":"","type":"uint256"}],"stateMutability":"view","type":"function"},{"inputs":[],"name":"verificationTime","outputs":[{"internalType":"uint256","name":"","type":"uint256"}],"stateMutability":"view","type":"function"},{"stateMutability":"payable","type":"receive"}],"devdoc":{"kind":"dev","methods":{},"version":1},"evm":{"bytecode":{"linkReferences":{},"object":"6080604052606460025561708060035562015180600455610e106005556000600c5534801561002d57600080fd5b50604051620019033803806200190383398101604081905261004e9161008b565b6001600081905580546001600160a01b0319166001600160a01b038416179055600681905560045461008090426100c5565b600955506100ec9050565b6000806040838503121561009e57600080fd5b82516001600160a01b03811681146100b557600080fd5b6020939093015192949293505050565b808201808211156100e657634e487b7160e01b600052601160045260246000fd5b92915050565b61180780620000fc6000396000f3fe6080604052600436106101835760003560e01c80638a19c8bc116100d1578063bb9b110b1161008a578063e2f1dcc611610064578063e2f1dcc614610426578063ef949f4a1461043b578063f985ad9314610450578063f9ceb3ea1461046657600080fd5b8063bb9b110b146103bf578063c78c3a83146103e4578063e0abca0b1461040657600080fd5b80638a19c8bc146103315780638dd78d671461034757806393bc976e1461035d578063956909361461037357806398d5fdca14610395578063a32bf597146103aa57600080fd5b8063532eaca01161013e578063719ce73e11610118578063719ce73e146102ae57806376a4956c146102c45780637dc0d1d0146102fc57806385d62b451461031c57600080fd5b8063532eaca01461026e57806358f6b9c5146102845780635d21b2551461029957600080fd5b80624fbbb0146101a7578062614418146101f4578063149c6dac1461021857806324924bf71461022e578063308d19ab14610244578063344c8e371461025957600080fd5b366101a25734600b600082825461019a91906115af565b925050819055005b600080fd5b3480156101b357600080fd5b506101c76101c23660046115c8565b61047b565b604080519485526001600160a01b0390931660208501529183015260608201526080015b60405180910390f35b34801561020057600080fd5b5061020a60095481565b6040519081526020016101eb565b34801561022457600080fd5b5061020a60025481565b34801561023a57600080fd5b5061020a60065481565b34801561025057600080fd5b5060065461020a565b34801561026557600080fd5b5060095461020a565b34801561027a57600080fd5b5061020a60035481565b34801561029057600080fd5b5060075461020a565b3480156102a557600080fd5b50600b5461020a565b3480156102ba57600080fd5b5061020a600b5481565b3480156102d057600080fd5b506102e46102df3660046115c8565b6104be565b6040516001600160a01b0390911681526020016101eb565b34801561030857600080fd5b506001546102e4906001600160a01b031681565b61032f61032a3660046115c8565b6104e8565b005b34801561033d57600080fd5b5061020a600c5481565b34801561035357600080fd5b5061020a60075481565b34801561036957600080fd5b5061020a60045481565b34801561037f57600080fd5b5061038861075d565b6040516101eb9190611625565b3480156103a157600080fd5b5061020a6107bf565b3480156103b657600080fd5b50600c5461020a565b3480156103cb57600080fd5b506103d4610841565b60405190151581526020016101eb565b3480156103f057600080fd5b506103f961085b565b6040516101eb919061163f565b34801561041257600080fd5b50600a546102e4906001600160a01b031681565b34801561043257600080fd5b5060085461020a565b34801561044757600080fd5b5061032f6108e5565b34801561045c57600080fd5b5061020a60055481565b34801561047257600080fd5b506103886111f3565b6008818154811061048b57600080fd5b600091825260209091206004909102018054600182015460028301546003909301549193506001600160a01b0316919084565b600f81815481106104ce57600080fd5b6000918252602090912001546001600160a01b0316905081565b662386f26fc100003410156105445760405162461bcd60e51b815260206004820152601760248201527f456e7472792066656520697320302e303120657468657200000000000000000060448201526064015b60405180910390fd5b600654600854106105975760405162461bcd60e51b815260206004820152601960248201527f5061727469636970616e74206c696d6974207265616368656400000000000000604482015260640161053b565b6003546009546105a791906116ac565b42111561060b5760405162461bcd60e51b815260206004820152602c60248201527f5375626d697373696f6e7320636c6f736564203420686f757273206265666f7260448201526b6520726f756e6420656e647360a01b606482015260840161053b565b60408051608081018252600c5481523360208201908152918101838152346060830181815260088054600181018255600091825294517ff3f7a9fe364faab93b216da50a3214154f22a0a2b415b23a84c8169e8b636ee360049096029586015594517ff3f7a9fe364faab93b216da50a3214154f22a0a2b415b23a84c8169e8b636ee4850180546001600160a01b0319166001600160a01b0390921691909117905591517ff3f7a9fe364faab93b216da50a3214154f22a0a2b415b23a84c8169e8b636ee584015590517ff3f7a9fe364faab93b216da50a3214154f22a0a2b415b23a84c8169e8b636ee690920191909155600b8054919290916107109084906115af565b9091555050600c546040805191825260208201839052349082015233907f6508c7e3d28df907ed24f614c03b61c067dbc85e84a98bb8f78ffb1c8a711e559060600160405180910390a250565b6060600f8054806020026020016040519081016040528092919081815260200182805480156107b557602002820191906000526020600020905b81546001600160a01b03168152600190910190602001808311610797575b5050505050905090565b60015460408051638e15f47360e01b815290516000926001600160a01b031691638e15f4739160048083019260209291908290030181865afa158015610809573d6000803e3d6000fd5b505050506040513d601f19601f8201168201806040525081019061082d91906116bf565b61083c906402540be4006116d8565b905090565b600061384060095461085391906116ac565b421115905090565b60606008805480602002602001604051908101604052809291908181526020016000905b828210156108dc5760008481526020908190206040805160808101825260048602909201805483526001808201546001600160a01b031684860152600282015492840192909252600301546060830152908352909201910161087f565b50505050905090565b6108ed6112c7565b6009544210156109495760405162461bcd60e51b815260206004820152602160248201527f546f75726e616d656e742063616e6e6f74206265207265736f6c7665642079656044820152601d60fa1b606482015260840161053b565b60055460095461095991906115af565b4210610a305760005b6008548110156109e3576109d160088281548110610982576109826116ef565b906000526020600020906004020160010160009054906101000a90046001600160a01b0316600883815481106109ba576109ba6116ef565b906000526020600020906004020160030154611320565b806109db81611705565b915050610962565b50600c5460408051600080825260208201908152818301928390526000805160206117b283398151915293610a1b9390929190611734565b60405180910390a1610a2b61143e565b6111e7565b60015460408051638e15f47360e01b815290516000926001600160a01b031691638e15f4739160048083019260209291908290030181865afa158015610a7a573d6000803e3d6000fd5b505050506040513d601f19601f82011682018060405250810190610a9e91906116bf565b90506000610ab1826402540be4006116d8565b6007819055600854909150600003610b2f57600c5460408051600080825260208201908152818301928390526000805160206117b283398151915293610afa9390929190611734565b60405180910390a16040805160008152602081019182905251610b1f91600f9161147c565b50610b2861143e565b50506111e7565b600854600103610c91576040805160018082528183019092526000916020808301908036833750506040805160018082528183019092529293506000929150602080830190803683370190505090506008600081548110610b9257610b926116ef565b6000918252602082206001600490920201015483516001600160a01b03909116918491610bc157610bc16116ef565b60200260200101906001600160a01b031690816001600160a01b031681525050600b5481600081518110610bf757610bf76116ef565b602002602001018181525050610c4182600081518110610c1957610c196116ef565b602002602001015182600081518110610c3457610c346116ef565b6020026020010151611320565b6000805160206117b2833981519152600c548383604051610c6493929190611734565b60405180910390a18151610c7f90600f90602085019061147c565b50610c8861143e565b505050506111e7565b600854600203610e1b5760408051600280825260608201835260009260208301908036833750506040805160028082526060820183529394506000939092509060208301908036833701905050905060006002600b54610cf1919061178f565b905060005b6002811015610dc95760088181548110610d1257610d126116ef565b906000526020600020906004020160010160009054906101000a90046001600160a01b0316848281518110610d4957610d496116ef565b60200260200101906001600160a01b031690816001600160a01b03168152505081838281518110610d7c57610d7c6116ef565b602002602001018181525050610db7848281518110610d9d57610d9d6116ef565b6020026020010151848381518110610c3457610c346116ef565b80610dc181611705565b915050610cf6565b506000805160206117b2833981519152600c548484604051610ded93929190611734565b60405180910390a18251610e0890600f90602086019061147c565b50610e1161143e565b50505050506111e7565b610e236114e1565b6000805b600854811015610fd45760008460088381548110610e4757610e476116ef565b90600052602060002090600402016002015411610e935760088281548110610e7157610e716116ef565b90600052602060002090600402016002015485610e8e91906116ac565b610ec3565b8460088381548110610ea757610ea76116ef565b906000526020600020906004020160020154610ec391906116ac565b90506003831015610f1557604051806060016040528083815260200182815260200160011515815250848460038110610efe57610efe6116ef565b602002015282610f0d81611705565b935050610fc1565b83516020015160009060015b6003811015610f7f5781878260038110610f3d57610f3d6116ef565b6020020151602001511115610f6d57868160038110610f5e57610f5e6116ef565b60200201516020015191508092505b80610f7781611705565b915050610f21565b5080831015610fbe57604051806060016040528085815260200184815260200160011515815250868360038110610fb857610fb86116ef565b60200201525b50505b5080610fcc81611705565b915050610e27565b506000612710600254600b54610fea91906116d8565b610ff4919061178f565b905080600b600082825461100891906116ac565b9091555061101890503382611320565b600b5460008367ffffffffffffffff8111156110365761103661171e565b60405190808252806020026020018201604052801561105f578160200160208202803683370190505b50905060008467ffffffffffffffff81111561107d5761107d61171e565b6040519080825280602002602001820160405280156110a6578160200160208202803683370190505b50905060005b858110156111965760088782600381106110c8576110c86116ef565b602002015151815481106110de576110de6116ef565b906000526020600020906004020160010160009054906101000a90046001600160a01b0316838281518110611115576111156116ef565b6001600160a01b0390921660209283029190910190910152611137868561178f565b828281518110611149576111496116ef565b60200260200101818152505061118483828151811061116a5761116a6116ef565b6020026020010151838381518110610c3457610c346116ef565b8061118e81611705565b9150506110ac565b5081516111aa90600f90602085019061147c565b506000805160206117b2833981519152600c5483836040516111ce93929190611734565b60405180910390a16111de61143e565b50505050505050505b6111f16001600055565b565b60085460609060009067ffffffffffffffff8111156112145761121461171e565b60405190808252806020026020018201604052801561123d578160200160208202803683370190505b50905060005b6008548110156112c15760088181548110611260576112606116ef565b906000526020600020906004020160010160009054906101000a90046001600160a01b0316828281518110611297576112976116ef565b6001600160a01b0390921660209283029190910190910152806112b981611705565b915050611243565b50919050565b6002600054036113195760405162461bcd60e51b815260206004820152601f60248201527f5265656e7472616e637947756172643a207265656e7472616e742063616c6c00604482015260640161053b565b6002600055565b804710156113705760405162461bcd60e51b815260206004820152601d60248201527f416464726573733a20696e73756666696369656e742062616c616e6365000000604482015260640161053b565b6000826001600160a01b03168260405160006040518083038185875af1925050503d80600081146113bd576040519150601f19603f3d011682016040523d82523d6000602084013e6113c2565b606091505b50509050806114395760405162461bcd60e51b815260206004820152603a60248201527f416464726573733a20756e61626c6520746f2073656e642076616c75652c207260448201527f6563697069656e74206d61792068617665207265766572746564000000000000606482015260840161053b565b505050565b61144a6008600061152c565b6000600b5560045461145c90426115af565b6009819055506001600c600082825461147591906115af565b9091555050565b8280548282559060005260206000209081019282156114d1579160200282015b828111156114d157825182546001600160a01b0319166001600160a01b0390911617825560209092019160019091019061149c565b506114dd929150611550565b5090565b60405180606001604052806003905b611516604051806060016040528060008152602001600081526020016000151581525090565b8152602001906001900390816114f05790505090565b508054600082556004029060005260206000209081019061154d9190611565565b50565b5b808211156114dd5760008155600101611551565b5b808211156114dd5760008082556001820180546001600160a01b0319169055600282018190556003820155600401611566565b634e487b7160e01b600052601160045260246000fd5b808201808211156115c2576115c2611599565b92915050565b6000602082840312156115da57600080fd5b5035919050565b600081518084526020808501945080840160005b8381101561161a5781516001600160a01b0316875295820195908201906001016115f5565b509495945050505050565b60208152600061163860208301846115e1565b9392505050565b602080825282518282018190526000919060409081850190868401855b8281101561169f57815180518552868101516001600160a01b0316878601528581015186860152606090810151908501526080909301929085019060010161165c565b5091979650505050505050565b818103818111156115c2576115c2611599565b6000602082840312156116d157600080fd5b5051919050565b80820281158282048414176115c2576115c2611599565b634e487b7160e01b600052603260045260246000fd5b60006001820161171757611717611599565b5060010190565b634e487b7160e01b600052604160045260246000fd5b8381526000602060608184015261174e60608401866115e1565b838103604085015284518082528286019183019060005b8181101561178157835183529284019291840191600101611765565b509098975050505050505050565b6000826117ac57634e487b7160e01b600052601260045260246000fd5b50049056fe4fd7288032271e74afa3073bdad87433c58165b48192fee01cb3ca4d114c3a0fa264697066735822122057f591ce422c33b29d31b11c5ed56ea56a3424f2adafc921aa1ebbda45fcebab64736f6c63430008110033","opcodes":"PUSH1 0x80 PUSH1 0x40 MSTORE PUSH1 0x64 PUSH1 0x2 SSTORE PUSH2 0x7080 PUSH1 0x3 SSTORE PUSH3 0x15180 PUSH1 0x4 SSTORE PUSH2 0xE10 PUSH1 0x5 SSTORE PUSH1 0x0 PUSH1 0xC SSTORE CALLVALUE DUP1 ISZERO PUSH2 0x2D JUMPI PUSH1 0x0 DUP1 REVERT JUMPDEST POP PUSH1 0x40 MLOAD PUSH3 0x1903 CODESIZE SUB DUP1 PUSH3 0x1903 DUP4 CODECOPY DUP2 ADD PUSH1 0x40 DUP2 SWAP1 MSTORE PUSH2 0x4E SWAP2 PUSH2 0x8B JUMP JUMPDEST PUSH1 0x1 PUSH1 0x0 DUP2 SWAP1 SSTORE DUP1 SLOAD PUSH1 0x1 PUSH1 0x1 PUSH1 0xA0 SHL SUB NOT AND PUSH1 0x1 PUSH1 0x1 PUSH1 0xA0 SHL SUB DUP5 AND OR SWAP1 SSTORE PUSH1 0x6 DUP2 SWAP1 SSTORE PUSH1 0x4 SLOAD PUSH2 0x80 SWAP1 TIMESTAMP PUSH2 0xC5 JUMP JUMPDEST PUSH1 0x9 SSTORE POP PUSH2 0xEC SWAP1 POP JUMP JUMPDEST PUSH1 0x0 DUP1 PUSH1 0x40 DUP4 DUP6 SUB SLT ISZERO PUSH2 0x9E JUMPI PUSH1 0x0 DUP1 REVERT JUMPDEST DUP3 MLOAD PUSH1 0x1 PUSH1 0x1 PUSH1 0xA0 SHL SUB DUP2 AND DUP2 EQ PUSH2 0xB5 JUMPI PUSH1 0x0 DUP1 REVERT JUMPDEST PUSH1 0x20 SWAP4 SWAP1 SWAP4 ADD MLOAD SWAP3 SWAP5 SWAP3 SWAP4 POP POP POP JUMP JUMPDEST DUP1 DUP3 ADD DUP1 DUP3 GT ISZERO PUSH2 0xE6 JUMPI PUSH4 0x4E487B71 PUSH1 0xE0 SHL PUSH1 0x0 MSTORE PUSH1 0x11 PUSH1 0x4 MSTORE PUSH1 0x24 PUSH1 0x0 REVERT JUMPDEST SWAP3 SWAP2 POP POP JUMP JUMPDEST PUSH2 0x1807 DUP1 PUSH3 0xFC PUSH1 0x0 CODECOPY PUSH1 0x0 RETURN INVALID PUSH1 0x80 PUSH1 0x40 MSTORE PUSH1 0x4 CALLDATASIZE LT PUSH2 0x183 JUMPI PUSH1 0x0 CALLDATALOAD PUSH1 0xE0 SHR DUP1 PUSH4 0x8A19C8BC GT PUSH2 0xD1 JUMPI DUP1 PUSH4 0xBB9B110B GT PUSH2 0x8A JUMPI DUP1 PUSH4 0xE2F1DCC6 GT PUSH2 0x64 JUMPI DUP1 PUSH4 0xE2F1DCC6 EQ PUSH2 0x426 JUMPI DUP1 PUSH4 0xEF949F4A EQ PUSH2 0x43B JUMPI DUP1 PUSH4 0xF985AD93 EQ PUSH2 0x450 JUMPI DUP1 PUSH4 0xF9CEB3EA EQ PUSH2 0x466 JUMPI PUSH1 0x0 DUP1 REVERT JUMPDEST DUP1 PUSH4 0xBB9B110B EQ PUSH2 0x3BF JUMPI DUP1 PUSH4 0xC78C3A83 EQ PUSH2 0x3E4 JUMPI DUP1 PUSH4 0xE0ABCA0B EQ PUSH2 0x406 JUMPI PUSH1 0x0 DUP1 REVERT JUMPDEST DUP1 PUSH4 0x8A19C8BC EQ PUSH2 0x331 JUMPI DUP1 PUSH4 0x8DD78D67 EQ PUSH2 0x347 JUMPI DUP1 PUSH4 0x93BC976E EQ PUSH2 0x35D JUMPI DUP1 PUSH4 0x95690936 EQ PUSH2 0x373 JUMPI DUP1 PUSH4 0x98D5FDCA EQ PUSH2 0x395 JUMPI DUP1 PUSH4 0xA32BF597 EQ PUSH2 0x3AA JUMPI PUSH1 0x0 DUP1 REVERT JUMPDEST DUP1 PUSH4 0x532EACA0 GT PUSH2 0x13E JUMPI DUP1 PUSH4 0x719CE73E GT PUSH2 0x118 JUMPI DUP1 PUSH4 0x719CE73E EQ PUSH2 0x2AE JUMPI DUP1 PUSH4 0x76A4956C EQ PUSH2 0x2C4 JUMPI DUP1 PUSH4 0x7DC0D1D0 EQ PUSH2 0x2FC JUMPI DUP1 PUSH4 0x85D62B45 EQ PUSH2 0x31C JUMPI PUSH1 0x0 DUP1 REVERT JUMPDEST DUP1 PUSH4 0x532EACA0 EQ PUSH2 0x26E JUMPI DUP1 PUSH4 0x58F6B9C5 EQ PUSH2 0x284 JUMPI DUP1 PUSH4 0x5D21B255 EQ PUSH2 0x299 JUMPI PUSH1 0x0 DUP1 REVERT JUMPDEST DUP1 PUSH3 0x4FBBB0 EQ PUSH2 0x1A7 JUMPI DUP1 PUSH3 0x614418 EQ PUSH2 0x1F4 JUMPI DUP1 PUSH4 0x149C6DAC EQ PUSH2 0x218 JUMPI DUP1 PUSH4 0x24924BF7 EQ PUSH2 0x22E JUMPI DUP1 PUSH4 0x308D19AB EQ PUSH2 0x244 JUMPI DUP1 PUSH4 0x344C8E37 EQ PUSH2 0x259 JUMPI PUSH1 0x0 DUP1 REVERT JUMPDEST CALLDATASIZE PUSH2 0x1A2 JUMPI CALLVALUE PUSH1 0xB PUSH1 0x0 DUP3 DUP3 SLOAD PUSH2 0x19A SWAP2 SWAP1 PUSH2 0x15AF JUMP JUMPDEST SWAP3 POP POP DUP2 SWAP1 SSTORE STOP JUMPDEST PUSH1 0x0 DUP1 REVERT JUMPDEST CALLVALUE DUP1 ISZERO PUSH2 0x1B3 JUMPI PUSH1 0x0 DUP1 REVERT JUMPDEST POP PUSH2 0x1C7 PUSH2 0x1C2 CALLDATASIZE PUSH1 0x4 PUSH2 0x15C8 JUMP JUMPDEST PUSH2 0x47B JUMP JUMPDEST PUSH1 0x40 DUP1 MLOAD SWAP5 DUP6 MSTORE PUSH1 0x1 PUSH1 0x1 PUSH1 0xA0 SHL SUB SWAP1 SWAP4 AND PUSH1 0x20 DUP6 ADD MSTORE SWAP2 DUP4 ADD MSTORE PUSH1 0x60 DUP3 ADD MSTORE PUSH1 0x80 ADD JUMPDEST PUSH1 0x40 MLOAD DUP1 SWAP2 SUB SWAP1 RETURN JUMPDEST CALLVALUE DUP1 ISZERO PUSH2 0x200 JUMPI PUSH1 0x0 DUP1 REVERT JUMPDEST POP PUSH2 0x20A PUSH1 0x9 SLOAD DUP2 JUMP JUMPDEST PUSH1 0x40 MLOAD SWAP1 DUP2 MSTORE PUSH1 0x20 ADD PUSH2 0x1EB JUMP JUMPDEST CALLVALUE DUP1 ISZERO PUSH2 0x224 JUMPI PUSH1 0x0 DUP1 REVERT JUMPDEST POP PUSH2 0x20A PUSH1 0x2 SLOAD DUP2 JUMP JUMPDEST CALLVALUE DUP1 ISZERO PUSH2 0x23A JUMPI PUSH1 0x0 DUP1 REVERT JUMPDEST POP PUSH2 0x20A PUSH1 0x6 SLOAD DUP2 JUMP JUMPDEST CALLVALUE DUP1 ISZERO PUSH2 0x250 JUMPI PUSH1 0x0 DUP1 REVERT JUMPDEST POP PUSH1 0x6 SLOAD PUSH2 0x20A JUMP JUMPDEST CALLVALUE DUP1 ISZERO PUSH2 0x265 JUMPI PUSH1 0x0 DUP1 REVERT JUMPDEST POP PUSH1 0x9 SLOAD PUSH2 0x20A JUMP JUMPDEST CALLVALUE DUP1 ISZERO PUSH2 0x27A JUMPI PUSH1 0x0 DUP1 REVERT JUMPDEST POP PUSH2 0x20A PUSH1 0x3 SLOAD DUP2 JUMP JUMPDEST CALLVALUE DUP1 ISZERO PUSH2 0x290 JUMPI PUSH1 0x0 DUP1 REVERT JUMPDEST POP PUSH1 0x7 SLOAD PUSH2 0x20A JUMP JUMPDEST CALLVALUE DUP1 ISZERO PUSH2 0x2A5 JUMPI PUSH1 0x0 DUP1 REVERT JUMPDEST POP PUSH1 0xB SLOAD PUSH2 0x20A JUMP JUMPDEST CALLVALUE DUP1 ISZERO PUSH2 0x2BA JUMPI PUSH1 0x0 DUP1 REVERT JUMPDEST POP PUSH2 0x20A PUSH1 0xB SLOAD DUP2 JUMP JUMPDEST CALLVALUE DUP1 ISZERO PUSH2 0x2D0 JUMPI PUSH1 0x0 DUP1 REVERT JUMPDEST POP PUSH2 0x2E4 PUSH2 0x2DF CALLDATASIZE PUSH1 0x4 PUSH2 0x15C8 JUMP JUMPDEST PUSH2 0x4BE JUMP JUMPDEST PUSH1 0x40 MLOAD PUSH1 0x1 PUSH1 0x1 PUSH1 0xA0 SHL SUB SWAP1 SWAP2 AND DUP2 MSTORE PUSH1 0x20 ADD PUSH2 0x1EB JUMP JUMPDEST CALLVALUE DUP1 ISZERO PUSH2 0x308 JUMPI PUSH1 0x0 DUP1 REVERT JUMPDEST POP PUSH1 0x1 SLOAD PUSH2 0x2E4 SWAP1 PUSH1 0x1 PUSH1 0x1 PUSH1 0xA0 SHL SUB AND DUP2 JUMP JUMPDEST PUSH2 0x32F PUSH2 0x32A CALLDATASIZE PUSH1 0x4 PUSH2 0x15C8 JUMP JUMPDEST PUSH2 0x4E8 JUMP JUMPDEST STOP JUMPDEST CALLVALUE DUP1 ISZERO PUSH2 0x33D JUMPI PUSH1 0x0 DUP1 REVERT JUMPDEST POP PUSH2 0x20A PUSH1 0xC SLOAD DUP2 JUMP JUMPDEST CALLVALUE DUP1 ISZERO PUSH2 0x353 JUMPI PUSH1 0x0 DUP1 REVERT JUMPDEST POP PUSH2 0x20A PUSH1 0x7 SLOAD DUP2 JUMP JUMPDEST CALLVALUE DUP1 ISZERO PUSH2 0x369 JUMPI PUSH1 0x0 DUP1 REVERT JUMPDEST POP PUSH2 0x20A PUSH1 0x4 SLOAD DUP2 JUMP JUMPDEST CALLVALUE DUP1 ISZERO PUSH2 0x37F JUMPI PUSH1 0x0 DUP1 REVERT JUMPDEST POP PUSH2 0x388 PUSH2 0x75D JUMP JUMPDEST PUSH1 0x40 MLOAD PUSH2 0x1EB SWAP2 SWAP1 PUSH2 0x1625 JUMP JUMPDEST CALLVALUE DUP1 ISZERO PUSH2 0x3A1 JUMPI PUSH1 0x0 DUP1 REVERT JUMPDEST POP PUSH2 0x20A PUSH2 0x7BF JUMP JUMPDEST CALLVALUE DUP1 ISZERO PUSH2 0x3B6 JUMPI PUSH1 0x0 DUP1 REVERT JUMPDEST POP PUSH1 0xC SLOAD PUSH2 0x20A JUMP JUMPDEST CALLVALUE DUP1 ISZERO PUSH2 0x3CB JUMPI PUSH1 0x0 DUP1 REVERT JUMPDEST POP PUSH2 0x3D4 PUSH2 0x841 JUMP JUMPDEST PUSH1 0x40 MLOAD SWAP1 ISZERO ISZERO DUP2 MSTORE PUSH1 0x20 ADD PUSH2 0x1EB JUMP JUMPDEST CALLVALUE DUP1 ISZERO PUSH2 0x3F0 JUMPI PUSH1 0x0 DUP1 REVERT JUMPDEST POP PUSH2 0x3F9 PUSH2 0x85B JUMP JUMPDEST PUSH1 0x40 MLOAD PUSH2 0x1EB SWAP2 SWAP1 PUSH2 0x163F JUMP JUMPDEST CALLVALUE DUP1 ISZERO PUSH2 0x412 JUMPI PUSH1 0x0 DUP1 REVERT JUMPDEST POP PUSH1 0xA SLOAD PUSH2 0x2E4 SWAP1 PUSH1 0x1 PUSH1 0x1 PUSH1 0xA0 SHL SUB AND DUP2 JUMP JUMPDEST CALLVALUE DUP1 ISZERO PUSH2 0x432 JUMPI PUSH1 0x0 DUP1 REVERT JUMPDEST POP PUSH1 0x8 SLOAD PUSH2 0x20A JUMP JUMPDEST CALLVALUE DUP1 ISZERO PUSH2 0x447 JUMPI PUSH1 0x0 DUP1 REVERT JUMPDEST POP PUSH2 0x32F PUSH2 0x8E5 JUMP JUMPDEST CALLVALUE DUP1 ISZERO PUSH2 0x45C JUMPI PUSH1 0x0 DUP1 REVERT JUMPDEST POP PUSH2 0x20A PUSH1 0x5 SLOAD DUP2 JUMP JUMPDEST CALLVALUE DUP1 ISZERO PUSH2 0x472 JUMPI PUSH1 0x0 DUP1 REVERT JUMPDEST POP PUSH2 0x388 PUSH2 0x11F3 JUMP JUMPDEST PUSH1 0x8 DUP2 DUP2 SLOAD DUP2 LT PUSH2 0x48B JUMPI PUSH1 0x0 DUP1 REVERT JUMPDEST PUSH1 0x0 SWAP2 DUP3 MSTORE PUSH1 0x20 SWAP1 SWAP2 KECCAK256 PUSH1 0x4 SWAP1 SWAP2 MUL ADD DUP1 SLOAD PUSH1 0x1 DUP3 ADD SLOAD PUSH1 0x2 DUP4 ADD SLOAD PUSH1 0x3 SWAP1 SWAP4 ADD SLOAD SWAP2 SWAP4 POP PUSH1 0x1 PUSH1 0x1 PUSH1 0xA0 SHL SUB AND SWAP2 SWAP1 DUP5 JUMP JUMPDEST PUSH1 0xF DUP2 DUP2 SLOAD DUP2 LT PUSH2 0x4CE JUMPI PUSH1 0x0 DUP1 REVERT JUMPDEST PUSH1 0x0 SWAP2 DUP3 MSTORE PUSH1 0x20 SWAP1 SWAP2 KECCAK256 ADD SLOAD PUSH1 0x1 PUSH1 0x1 PUSH1 0xA0 SHL SUB AND SWAP1 POP DUP2 JUMP JUMPDEST PUSH7 0x2386F26FC10000 CALLVALUE LT ISZERO PUSH2 0x544 JUMPI PUSH1 0x40 MLOAD PUSH3 0x461BCD PUSH1 0xE5 SHL DUP2 MSTORE PUSH1 0x20 PUSH1 0x4 DUP3 ADD MSTORE PUSH1 0x17 PUSH1 0x24 DUP3 ADD MSTORE PUSH32 0x456E7472792066656520697320302E3031206574686572000000000000000000 PUSH1 0x44 DUP3 ADD MSTORE PUSH1 0x64 ADD JUMPDEST PUSH1 0x40 MLOAD DUP1 SWAP2 SUB SWAP1 REVERT JUMPDEST PUSH1 0x6 SLOAD PUSH1 0x8 SLOAD LT PUSH2 0x597 JUMPI PUSH1 0x40 MLOAD PUSH3 0x461BCD PUSH1 0xE5 SHL DUP2 MSTORE PUSH1 0x20 PUSH1 0x4 DUP3 ADD MSTORE PUSH1 0x19 PUSH1 0x24 DUP3 ADD MSTORE PUSH32 0x5061727469636970616E74206C696D6974207265616368656400000000000000 PUSH1 0x44 DUP3 ADD MSTORE PUSH1 0x64 ADD PUSH2 0x53B JUMP JUMPDEST PUSH1 0x3 SLOAD PUSH1 0x9 SLOAD PUSH2 0x5A7 SWAP2 SWAP1 PUSH2 0x16AC JUMP JUMPDEST TIMESTAMP GT ISZERO PUSH2 0x60B JUMPI PUSH1 0x40 MLOAD PUSH3 0x461BCD PUSH1 0xE5 SHL DUP2 MSTORE PUSH1 0x20 PUSH1 0x4 DUP3 ADD MSTORE PUSH1 0x2C PUSH1 0x24 DUP3 ADD MSTORE PUSH32 0x5375626D697373696F6E7320636C6F736564203420686F757273206265666F72 PUSH1 0x44 DUP3 ADD MSTORE PUSH12 0x6520726F756E6420656E6473 PUSH1 0xA0 SHL PUSH1 0x64 DUP3 ADD MSTORE PUSH1 0x84 ADD PUSH2 0x53B JUMP JUMPDEST PUSH1 0x40 DUP1 MLOAD PUSH1 0x80 DUP2 ADD DUP3 MSTORE PUSH1 0xC SLOAD DUP2 MSTORE CALLER PUSH1 0x20 DUP3 ADD SWAP1 DUP2 MSTORE SWAP2 DUP2 ADD DUP4 DUP2 MSTORE CALLVALUE PUSH1 0x60 DUP4 ADD DUP2 DUP2 MSTORE PUSH1 0x8 DUP1 SLOAD PUSH1 0x1 DUP2 ADD DUP3 SSTORE PUSH1 0x0 SWAP2 DUP3 MSTORE SWAP5 MLOAD PUSH32 0xF3F7A9FE364FAAB93B216DA50A3214154F22A0A2B415B23A84C8169E8B636EE3 PUSH1 0x4 SWAP1 SWAP7 MUL SWAP6 DUP7 ADD SSTORE SWAP5 MLOAD PUSH32 0xF3F7A9FE364FAAB93B216DA50A3214154F22A0A2B415B23A84C8169E8B636EE4 DUP6 ADD DUP1 SLOAD PUSH1 0x1 PUSH1 0x1 PUSH1 0xA0 SHL SUB NOT AND PUSH1 0x1 PUSH1 0x1 PUSH1 0xA0 SHL SUB SWAP1 SWAP3 AND SWAP2 SWAP1 SWAP2 OR SWAP1 SSTORE SWAP2 MLOAD PUSH32 0xF3F7A9FE364FAAB93B216DA50A3214154F22A0A2B415B23A84C8169E8B636EE5 DUP5 ADD SSTORE SWAP1 MLOAD PUSH32 0xF3F7A9FE364FAAB93B216DA50A3214154F22A0A2B415B23A84C8169E8B636EE6 SWAP1 SWAP3 ADD SWAP2 SWAP1 SWAP2 SSTORE PUSH1 0xB DUP1 SLOAD SWAP2 SWAP3 SWAP1 SWAP2 PUSH2 0x710 SWAP1 DUP5 SWAP1 PUSH2 0x15AF JUMP JUMPDEST SWAP1 SWAP2 SSTORE POP POP PUSH1 0xC SLOAD PUSH1 0x40 DUP1 MLOAD SWAP2 DUP3 MSTORE PUSH1 0x20 DUP3 ADD DUP4 SWAP1 MSTORE CALLVALUE SWAP1 DUP3 ADD MSTORE CALLER SWAP1 PUSH32 0x6508C7E3D28DF907ED24F614C03B61C067DBC85E84A98BB8F78FFB1C8A711E55 SWAP1 PUSH1 0x60 ADD PUSH1 0x40 MLOAD DUP1 SWAP2 SUB SWAP1 LOG2 POP JUMP JUMPDEST PUSH1 0x60 PUSH1 0xF DUP1 SLOAD DUP1 PUSH1 0x20 MUL PUSH1 0x20 ADD PUSH1 0x40 MLOAD SWAP1 DUP2 ADD PUSH1 0x40 MSTORE DUP1 SWAP3 SWAP2 SWAP1 DUP2 DUP2 MSTORE PUSH1 0x20 ADD DUP3 DUP1 SLOAD DUP1 ISZERO PUSH2 0x7B5 JUMPI PUSH1 0x20 MUL DUP3 ADD SWAP2 SWAP1 PUSH1 0x0 MSTORE PUSH1 0x20 PUSH1 0x0 KECCAK256 SWAP1 JUMPDEST DUP2 SLOAD PUSH1 0x1 PUSH1 0x1 PUSH1 0xA0 SHL SUB AND DUP2 MSTORE PUSH1 0x1 SWAP1 SWAP2 ADD SWAP1 PUSH1 0x20 ADD DUP1 DUP4 GT PUSH2 0x797 JUMPI JUMPDEST POP POP POP POP POP SWAP1 POP SWAP1 JUMP JUMPDEST PUSH1 0x1 SLOAD PUSH1 0x40 DUP1 MLOAD PUSH4 0x8E15F473 PUSH1 0xE0 SHL DUP2 MSTORE SWAP1 MLOAD PUSH1 0x0 SWAP3 PUSH1 0x1 PUSH1 0x1 PUSH1 0xA0 SHL SUB AND SWAP2 PUSH4 0x8E15F473 SWAP2 PUSH1 0x4 DUP1 DUP4 ADD SWAP3 PUSH1 0x20 SWAP3 SWAP2 SWAP1 DUP3 SWAP1 SUB ADD DUP2 DUP7 GAS STATICCALL ISZERO DUP1 ISZERO PUSH2 0x809 JUMPI RETURNDATASIZE PUSH1 0x0 DUP1 RETURNDATACOPY RETURNDATASIZE PUSH1 0x0 REVERT JUMPDEST POP POP POP POP PUSH1 0x40 MLOAD RETURNDATASIZE PUSH1 0x1F NOT PUSH1 0x1F DUP3 ADD AND DUP3 ADD DUP1 PUSH1 0x40 MSTORE POP DUP2 ADD SWAP1 PUSH2 0x82D SWAP2 SWAP1 PUSH2 0x16BF JUMP JUMPDEST PUSH2 0x83C SWAP1 PUSH5 0x2540BE400 PUSH2 0x16D8 JUMP JUMPDEST SWAP1 POP SWAP1 JUMP JUMPDEST PUSH1 0x0 PUSH2 0x3840 PUSH1 0x9 SLOAD PUSH2 0x853 SWAP2 SWAP1 PUSH2 0x16AC JUMP JUMPDEST TIMESTAMP GT ISZERO SWAP1 POP SWAP1 JUMP JUMPDEST PUSH1 0x60 PUSH1 0x8 DUP1 SLOAD DUP1 PUSH1 0x20 MUL PUSH1 0x20 ADD PUSH1 0x40 MLOAD SWAP1 DUP2 ADD PUSH1 0x40 MSTORE DUP1 SWAP3 SWAP2 SWAP1 DUP2 DUP2 MSTORE PUSH1 0x20 ADD PUSH1 0x0 SWAP1 JUMPDEST DUP3 DUP3 LT ISZERO PUSH2 0x8DC JUMPI PUSH1 0x0 DUP5 DUP2 MSTORE PUSH1 0x20 SWAP1 DUP2 SWAP1 KECCAK256 PUSH1 0x40 DUP1 MLOAD PUSH1 0x80 DUP2 ADD DUP3 MSTORE PUSH1 0x4 DUP7 MUL SWAP1 SWAP3 ADD DUP1 SLOAD DUP4 MSTORE PUSH1 0x1 DUP1 DUP3 ADD SLOAD PUSH1 0x1 PUSH1 0x1 PUSH1 0xA0 SHL SUB AND DUP5 DUP7 ADD MSTORE PUSH1 0x2 DUP3 ADD SLOAD SWAP3 DUP5 ADD SWAP3 SWAP1 SWAP3 MSTORE PUSH1 0x3 ADD SLOAD PUSH1 0x60 DUP4 ADD MSTORE SWAP1 DUP4 MSTORE SWAP1 SWAP3 ADD SWAP2 ADD PUSH2 0x87F JUMP JUMPDEST POP POP POP POP SWAP1 POP SWAP1 JUMP JUMPDEST PUSH2 0x8ED PUSH2 0x12C7 JUMP JUMPDEST PUSH1 0x9 SLOAD TIMESTAMP LT ISZERO PUSH2 0x949 JUMPI PUSH1 0x40 MLOAD PUSH3 0x461BCD PUSH1 0xE5 SHL DUP2 MSTORE PUSH1 0x20 PUSH1 0x4 DUP3 ADD MSTORE PUSH1 0x21 PUSH1 0x24 DUP3 ADD MSTORE PUSH32 0x546F75726E616D656E742063616E6E6F74206265207265736F6C766564207965 PUSH1 0x44 DUP3 ADD MSTORE PUSH1 0x1D PUSH1 0xFA SHL PUSH1 0x64 DUP3 ADD MSTORE PUSH1 0x84 ADD PUSH2 0x53B JUMP JUMPDEST PUSH1 0x5 SLOAD PUSH1 0x9 SLOAD PUSH2 0x959 SWAP2 SWAP1 PUSH2 0x15AF JUMP JUMPDEST TIMESTAMP LT PUSH2 0xA30 JUMPI PUSH1 0x0 JUMPDEST PUSH1 0x8 SLOAD DUP2 LT ISZERO PUSH2 0x9E3 JUMPI PUSH2 0x9D1 PUSH1 0x8 DUP3 DUP2 SLOAD DUP2 LT PUSH2 0x982 JUMPI PUSH2 0x982 PUSH2 0x16EF JUMP JUMPDEST SWAP1 PUSH1 0x0 MSTORE PUSH1 0x20 PUSH1 0x0 KECCAK256 SWAP1 PUSH1 0x4 MUL ADD PUSH1 0x1 ADD PUSH1 0x0 SWAP1 SLOAD SWAP1 PUSH2 0x100 EXP SWAP1 DIV PUSH1 0x1 PUSH1 0x1 PUSH1 0xA0 SHL SUB AND PUSH1 0x8 DUP4 DUP2 SLOAD DUP2 LT PUSH2 0x9BA JUMPI PUSH2 0x9BA PUSH2 0x16EF JUMP JUMPDEST SWAP1 PUSH1 0x0 MSTORE PUSH1 0x20 PUSH1 0x0 KECCAK256 SWAP1 PUSH1 0x4 MUL ADD PUSH1 0x3 ADD SLOAD PUSH2 0x1320 JUMP JUMPDEST DUP1 PUSH2 0x9DB DUP2 PUSH2 0x1705 JUMP JUMPDEST SWAP2 POP POP PUSH2 0x962 JUMP JUMPDEST POP PUSH1 0xC SLOAD PUSH1 0x40 DUP1 MLOAD PUSH1 0x0 DUP1 DUP3 MSTORE PUSH1 0x20 DUP3 ADD SWAP1 DUP2 MSTORE DUP2 DUP4 ADD SWAP3 DUP4 SWAP1 MSTORE PUSH1 0x0 DUP1 MLOAD PUSH1 0x20 PUSH2 0x17B2 DUP4 CODECOPY DUP2 MLOAD SWAP2 MSTORE SWAP4 PUSH2 0xA1B SWAP4 SWAP1 SWAP3 SWAP2 SWAP1 PUSH2 0x1734 JUMP JUMPDEST PUSH1 0x40 MLOAD DUP1 SWAP2 SUB SWAP1 LOG1 PUSH2 0xA2B PUSH2 0x143E JUMP JUMPDEST PUSH2 0x11E7 JUMP JUMPDEST PUSH1 0x1 SLOAD PUSH1 0x40 DUP1 MLOAD PUSH4 0x8E15F473 PUSH1 0xE0 SHL DUP2 MSTORE SWAP1 MLOAD PUSH1 0x0 SWAP3 PUSH1 0x1 PUSH1 0x1 PUSH1 0xA0 SHL SUB AND SWAP2 PUSH4 0x8E15F473 SWAP2 PUSH1 0x4 DUP1 DUP4 ADD SWAP3 PUSH1 0x20 SWAP3 SWAP2 SWAP1 DUP3 SWAP1 SUB ADD DUP2 DUP7 GAS STATICCALL ISZERO DUP1 ISZERO PUSH2 0xA7A JUMPI RETURNDATASIZE PUSH1 0x0 DUP1 RETURNDATACOPY RETURNDATASIZE PUSH1 0x0 REVERT JUMPDEST POP POP POP POP PUSH1 0x40 MLOAD RETURNDATASIZE PUSH1 0x1F NOT PUSH1 0x1F DUP3 ADD AND DUP3 ADD DUP1 PUSH1 0x40 MSTORE POP DUP2 ADD SWAP1 PUSH2 0xA9E SWAP2 SWAP1 PUSH2 0x16BF JUMP JUMPDEST SWAP1 POP PUSH1 0x0 PUSH2 0xAB1 DUP3 PUSH5 0x2540BE400 PUSH2 0x16D8 JUMP JUMPDEST PUSH1 0x7 DUP2 SWAP1 SSTORE PUSH1 0x8 SLOAD SWAP1 SWAP2 POP PUSH1 0x0 SUB PUSH2 0xB2F JUMPI PUSH1 0xC SLOAD PUSH1 0x40 DUP1 MLOAD PUSH1 0x0 DUP1 DUP3 MSTORE PUSH1 0x20 DUP3 ADD SWAP1 DUP2 MSTORE DUP2 DUP4 ADD SWAP3 DUP4 SWAP1 MSTORE PUSH1 0x0 DUP1 MLOAD PUSH1 0x20 PUSH2 0x17B2 DUP4 CODECOPY DUP2 MLOAD SWAP2 MSTORE SWAP4 PUSH2 0xAFA SWAP4 SWAP1 SWAP3 SWAP2 SWAP1 PUSH2 0x1734 JUMP JUMPDEST PUSH1 0x40 MLOAD DUP1 SWAP2 SUB SWAP1 LOG1 PUSH1 0x40 DUP1 MLOAD PUSH1 0x0 DUP2 MSTORE PUSH1 0x20 DUP2 ADD SWAP2 DUP3 SWAP1 MSTORE MLOAD PUSH2 0xB1F SWAP2 PUSH1 0xF SWAP2 PUSH2 0x147C JUMP JUMPDEST POP PUSH2 0xB28 PUSH2 0x143E JUMP JUMPDEST POP POP PUSH2 0x11E7 JUMP JUMPDEST PUSH1 0x8 SLOAD PUSH1 0x1 SUB PUSH2 0xC91 JUMPI PUSH1 0x40 DUP1 MLOAD PUSH1 0x1 DUP1 DUP3 MSTORE DUP2 DUP4 ADD SWAP1 SWAP3 MSTORE PUSH1 0x0 SWAP2 PUSH1 0x20 DUP1 DUP4 ADD SWAP1 DUP1 CALLDATASIZE DUP4 CALLDATACOPY POP POP PUSH1 0x40 DUP1 MLOAD PUSH1 0x1 DUP1 DUP3 MSTORE DUP2 DUP4 ADD SWAP1 SWAP3 MSTORE SWAP3 SWAP4 POP PUSH1 0x0 SWAP3 SWAP2 POP PUSH1 0x20 DUP1 DUP4 ADD SWAP1 DUP1 CALLDATASIZE DUP4 CALLDATACOPY ADD SWAP1 POP POP SWAP1 POP PUSH1 0x8 PUSH1 0x0 DUP2 SLOAD DUP2 LT PUSH2 0xB92 JUMPI PUSH2 0xB92 PUSH2 0x16EF JUMP JUMPDEST PUSH1 0x0 SWAP2 DUP3 MSTORE PUSH1 0x20 DUP3 KECCAK256 PUSH1 0x1 PUSH1 0x4 SWAP1 SWAP3 MUL ADD ADD SLOAD DUP4 MLOAD PUSH1 0x1 PUSH1 0x1 PUSH1 0xA0 SHL SUB SWAP1 SWAP2 AND SWAP2 DUP5 SWAP2 PUSH2 0xBC1 JUMPI PUSH2 0xBC1 PUSH2 0x16EF JUMP JUMPDEST PUSH1 0x20 MUL PUSH1 0x20 ADD ADD SWAP1 PUSH1 0x1 PUSH1 0x1 PUSH1 0xA0 SHL SUB AND SWAP1 DUP2 PUSH1 0x1 PUSH1 0x1 PUSH1 0xA0 SHL SUB AND DUP2 MSTORE POP POP PUSH1 0xB SLOAD DUP2 PUSH1 0x0 DUP2 MLOAD DUP2 LT PUSH2 0xBF7 JUMPI PUSH2 0xBF7 PUSH2 0x16EF JUMP JUMPDEST PUSH1 0x20 MUL PUSH1 0x20 ADD ADD DUP2 DUP2 MSTORE POP POP PUSH2 0xC41 DUP3 PUSH1 0x0 DUP2 MLOAD DUP2 LT PUSH2 0xC19 JUMPI PUSH2 0xC19 PUSH2 0x16EF JUMP JUMPDEST PUSH1 0x20 MUL PUSH1 0x20 ADD ADD MLOAD DUP3 PUSH1 0x0 DUP2 MLOAD DUP2 LT PUSH2 0xC34 JUMPI PUSH2 0xC34 PUSH2 0x16EF JUMP JUMPDEST PUSH1 0x20 MUL PUSH1 0x20 ADD ADD MLOAD PUSH2 0x1320 JUMP JUMPDEST PUSH1 0x0 DUP1 MLOAD PUSH1 0x20 PUSH2 0x17B2 DUP4 CODECOPY DUP2 MLOAD SWAP2 MSTORE PUSH1 0xC SLOAD DUP4 DUP4 PUSH1 0x40 MLOAD PUSH2 0xC64 SWAP4 SWAP3 SWAP2 SWAP1 PUSH2 0x1734 JUMP JUMPDEST PUSH1 0x40 MLOAD DUP1 SWAP2 SUB SWAP1 LOG1 DUP2 MLOAD PUSH2 0xC7F SWAP1 PUSH1 0xF SWAP1 PUSH1 0x20 DUP6 ADD SWAP1 PUSH2 0x147C JUMP JUMPDEST POP PUSH2 0xC88 PUSH2 0x143E JUMP JUMPDEST POP POP POP POP PUSH2 0x11E7 JUMP JUMPDEST PUSH1 0x8 SLOAD PUSH1 0x2 SUB PUSH2 0xE1B JUMPI PUSH1 0x40 DUP1 MLOAD PUSH1 0x2 DUP1 DUP3 MSTORE PUSH1 0x60 DUP3 ADD DUP4 MSTORE PUSH1 0x0 SWAP3 PUSH1 0x20 DUP4 ADD SWAP1 DUP1 CALLDATASIZE DUP4 CALLDATACOPY POP POP PUSH1 0x40 DUP1 MLOAD PUSH1 0x2 DUP1 DUP3 MSTORE PUSH1 0x60 DUP3 ADD DUP4 MSTORE SWAP4 SWAP5 POP PUSH1 0x0 SWAP4 SWAP1 SWAP3 POP SWAP1 PUSH1 0x20 DUP4 ADD SWAP1 DUP1 CALLDATASIZE DUP4 CALLDATACOPY ADD SWAP1 POP POP SWAP1 POP PUSH1 0x0 PUSH1 0x2 PUSH1 0xB SLOAD PUSH2 0xCF1 SWAP2 SWAP1 PUSH2 0x178F JUMP JUMPDEST SWAP1 POP PUSH1 0x0 JUMPDEST PUSH1 0x2 DUP2 LT ISZERO PUSH2 0xDC9 JUMPI PUSH1 0x8 DUP2 DUP2 SLOAD DUP2 LT PUSH2 0xD12 JUMPI PUSH2 0xD12 PUSH2 0x16EF JUMP JUMPDEST SWAP1 PUSH1 0x0 MSTORE PUSH1 0x20 PUSH1 0x0 KECCAK256 SWAP1 PUSH1 0x4 MUL ADD PUSH1 0x1 ADD PUSH1 0x0 SWAP1 SLOAD SWAP1 PUSH2 0x100 EXP SWAP1 DIV PUSH1 0x1 PUSH1 0x1 PUSH1 0xA0 SHL SUB AND DUP5 DUP3 DUP2 MLOAD DUP2 LT PUSH2 0xD49 JUMPI PUSH2 0xD49 PUSH2 0x16EF JUMP JUMPDEST PUSH1 0x20 MUL PUSH1 0x20 ADD ADD SWAP1 PUSH1 0x1 PUSH1 0x1 PUSH1 0xA0 SHL SUB AND SWAP1 DUP2 PUSH1 0x1 PUSH1 0x1 PUSH1 0xA0 SHL SUB AND DUP2 MSTORE POP POP DUP2 DUP4 DUP3 DUP2 MLOAD DUP2 LT PUSH2 0xD7C JUMPI PUSH2 0xD7C PUSH2 0x16EF JUMP JUMPDEST PUSH1 0x20 MUL PUSH1 0x20 ADD ADD DUP2 DUP2 MSTORE POP POP PUSH2 0xDB7 DUP5 DUP3 DUP2 MLOAD DUP2 LT PUSH2 0xD9D JUMPI PUSH2 0xD9D PUSH2 0x16EF JUMP JUMPDEST PUSH1 0x20 MUL PUSH1 0x20 ADD ADD MLOAD DUP5 DUP4 DUP2 MLOAD DUP2 LT PUSH2 0xC34 JUMPI PUSH2 0xC34 PUSH2 0x16EF JUMP JUMPDEST DUP1 PUSH2 0xDC1 DUP2 PUSH2 0x1705 JUMP JUMPDEST SWAP2 POP POP PUSH2 0xCF6 JUMP JUMPDEST POP PUSH1 0x0 DUP1 MLOAD PUSH1 0x20 PUSH2 0x17B2 DUP4 CODECOPY DUP2 MLOAD SWAP2 MSTORE PUSH1 0xC SLOAD DUP5 DUP5 PUSH1 0x40 MLOAD PUSH2 0xDED SWAP4 SWAP3 SWAP2 SWAP1 PUSH2 0x1734 JUMP JUMPDEST PUSH1 0x40 MLOAD DUP1 SWAP2 SUB SWAP1 LOG1 DUP3 MLOAD PUSH2 0xE08 SWAP1 PUSH1 0xF SWAP1 PUSH1 0x20 DUP7 ADD SWAP1 PUSH2 0x147C JUMP JUMPDEST POP PUSH2 0xE11 PUSH2 0x143E JUMP JUMPDEST POP POP POP POP POP PUSH2 0x11E7 JUMP JUMPDEST PUSH2 0xE23 PUSH2 0x14E1 JUMP JUMPDEST PUSH1 0x0 DUP1 JUMPDEST PUSH1 0x8 SLOAD DUP2 LT ISZERO PUSH2 0xFD4 JUMPI PUSH1 0x0 DUP5 PUSH1 0x8 DUP4 DUP2 SLOAD DUP2 LT PUSH2 0xE47 JUMPI PUSH2 0xE47 PUSH2 0x16EF JUMP JUMPDEST SWAP1 PUSH1 0x0 MSTORE PUSH1 0x20 PUSH1 0x0 KECCAK256 SWAP1 PUSH1 0x4 MUL ADD PUSH1 0x2 ADD SLOAD GT PUSH2 0xE93 JUMPI PUSH1 0x8 DUP3 DUP2 SLOAD DUP2 LT PUSH2 0xE71 JUMPI PUSH2 0xE71 PUSH2 0x16EF JUMP JUMPDEST SWAP1 PUSH1 0x0 MSTORE PUSH1 0x20 PUSH1 0x0 KECCAK256 SWAP1 PUSH1 0x4 MUL ADD PUSH1 0x2 ADD SLOAD DUP6 PUSH2 0xE8E SWAP2 SWAP1 PUSH2 0x16AC JUMP JUMPDEST PUSH2 0xEC3 JUMP JUMPDEST DUP5 PUSH1 0x8 DUP4 DUP2 SLOAD DUP2 LT PUSH2 0xEA7 JUMPI PUSH2 0xEA7 PUSH2 0x16EF JUMP JUMPDEST SWAP1 PUSH1 0x0 MSTORE PUSH1 0x20 PUSH1 0x0 KECCAK256 SWAP1 PUSH1 0x4 MUL ADD PUSH1 0x2 ADD SLOAD PUSH2 0xEC3 SWAP2 SWAP1 PUSH2 0x16AC JUMP JUMPDEST SWAP1 POP PUSH1 0x3 DUP4 LT ISZERO PUSH2 0xF15 JUMPI PUSH1 0x40 MLOAD DUP1 PUSH1 0x60 ADD PUSH1 0x40 MSTORE DUP1 DUP4 DUP2 MSTORE PUSH1 0x20 ADD DUP3 DUP2 MSTORE PUSH1 0x20 ADD PUSH1 0x1 ISZERO ISZERO DUP2 MSTORE POP DUP5 DUP5 PUSH1 0x3 DUP2 LT PUSH2 0xEFE JUMPI PUSH2 0xEFE PUSH2 0x16EF JUMP JUMPDEST PUSH1 0x20 MUL ADD MSTORE DUP3 PUSH2 0xF0D DUP2 PUSH2 0x1705 JUMP JUMPDEST SWAP4 POP POP PUSH2 0xFC1 JUMP JUMPDEST DUP4 MLOAD PUSH1 0x20 ADD MLOAD PUSH1 0x0 SWAP1 PUSH1 0x1 JUMPDEST PUSH1 0x3 DUP2 LT ISZERO PUSH2 0xF7F JUMPI DUP2 DUP8 DUP3 PUSH1 0x3 DUP2 LT PUSH2 0xF3D JUMPI PUSH2 0xF3D PUSH2 0x16EF JUMP JUMPDEST PUSH1 0x20 MUL ADD MLOAD PUSH1 0x20 ADD MLOAD GT ISZERO PUSH2 0xF6D JUMPI DUP7 DUP2 PUSH1 0x3 DUP2 LT PUSH2 0xF5E JUMPI PUSH2 0xF5E PUSH2 0x16EF JUMP JUMPDEST PUSH1 0x20 MUL ADD MLOAD PUSH1 0x20 ADD MLOAD SWAP2 POP DUP1 SWAP3 POP JUMPDEST DUP1 PUSH2 0xF77 DUP2 PUSH2 0x1705 JUMP JUMPDEST SWAP2 POP POP PUSH2 0xF21 JUMP JUMPDEST POP DUP1 DUP4 LT ISZERO PUSH2 0xFBE JUMPI PUSH1 0x40 MLOAD DUP1 PUSH1 0x60 ADD PUSH1 0x40 MSTORE DUP1 DUP6 DUP2 MSTORE PUSH1 0x20 ADD DUP5 DUP2 MSTORE PUSH1 0x20 ADD PUSH1 0x1 ISZERO ISZERO DUP2 MSTORE POP DUP7 DUP4 PUSH1 0x3 DUP2 LT PUSH2 0xFB8 JUMPI PUSH2 0xFB8 PUSH2 0x16EF JUMP JUMPDEST PUSH1 0x20 MUL ADD MSTORE JUMPDEST POP POP JUMPDEST POP DUP1 PUSH2 0xFCC DUP2 PUSH2 0x1705 JUMP JUMPDEST SWAP2 POP POP PUSH2 0xE27 JUMP JUMPDEST POP PUSH1 0x0 PUSH2 0x2710 PUSH1 0x2 SLOAD PUSH1 0xB SLOAD PUSH2 0xFEA SWAP2 SWAP1 PUSH2 0x16D8 JUMP JUMPDEST PUSH2 0xFF4 SWAP2 SWAP1 PUSH2 0x178F JUMP JUMPDEST SWAP1 POP DUP1 PUSH1 0xB PUSH1 0x0 DUP3 DUP3 SLOAD PUSH2 0x1008 SWAP2 SWAP1 PUSH2 0x16AC JUMP JUMPDEST SWAP1 SWAP2 SSTORE POP PUSH2 0x1018 SWAP1 POP CALLER DUP3 PUSH2 0x1320 JUMP JUMPDEST PUSH1 0xB SLOAD PUSH1 0x0 DUP4 PUSH8 0xFFFFFFFFFFFFFFFF DUP2 GT ISZERO PUSH2 0x1036 JUMPI PUSH2 0x1036 PUSH2 0x171E JUMP JUMPDEST PUSH1 0x40 MLOAD SWAP1 DUP1 DUP3 MSTORE DUP1 PUSH1 0x20 MUL PUSH1 0x20 ADD DUP3 ADD PUSH1 0x40 MSTORE DUP1 ISZERO PUSH2 0x105F JUMPI DUP2 PUSH1 0x20 ADD PUSH1 0x20 DUP3 MUL DUP1 CALLDATASIZE DUP4 CALLDATACOPY ADD SWAP1 POP JUMPDEST POP SWAP1 POP PUSH1 0x0 DUP5 PUSH8 0xFFFFFFFFFFFFFFFF DUP2 GT ISZERO PUSH2 0x107D JUMPI PUSH2 0x107D PUSH2 0x171E JUMP JUMPDEST PUSH1 0x40 MLOAD SWAP1 DUP1 DUP3 MSTORE DUP1 PUSH1 0x20 MUL PUSH1 0x20 ADD DUP3 ADD PUSH1 0x40 MSTORE DUP1 ISZERO PUSH2 0x10A6 JUMPI DUP2 PUSH1 0x20 ADD PUSH1 0x20 DUP3 MUL DUP1 CALLDATASIZE DUP4 CALLDATACOPY ADD SWAP1 POP JUMPDEST POP SWAP1 POP PUSH1 0x0 JUMPDEST DUP6 DUP2 LT ISZERO PUSH2 0x1196 JUMPI PUSH1 0x8 DUP8 DUP3 PUSH1 0x3 DUP2 LT PUSH2 0x10C8 JUMPI PUSH2 0x10C8 PUSH2 0x16EF JUMP JUMPDEST PUSH1 0x20 MUL ADD MLOAD MLOAD DUP2 SLOAD DUP2 LT PUSH2 0x10DE JUMPI PUSH2 0x10DE PUSH2 0x16EF JUMP JUMPDEST SWAP1 PUSH1 0x0 MSTORE PUSH1 0x20 PUSH1 0x0 KECCAK256 SWAP1 PUSH1 0x4 MUL ADD PUSH1 0x1 ADD PUSH1 0x0 SWAP1 SLOAD SWAP1 PUSH2 0x100 EXP SWAP1 DIV PUSH1 0x1 PUSH1 0x1 PUSH1 0xA0 SHL SUB AND DUP4 DUP3 DUP2 MLOAD DUP2 LT PUSH2 0x1115 JUMPI PUSH2 0x1115 PUSH2 0x16EF JUMP JUMPDEST PUSH1 0x1 PUSH1 0x1 PUSH1 0xA0 SHL SUB SWAP1 SWAP3 AND PUSH1 0x20 SWAP3 DUP4 MUL SWAP2 SWAP1 SWAP2 ADD SWAP1 SWAP2 ADD MSTORE PUSH2 0x1137 DUP7 DUP6 PUSH2 0x178F JUMP JUMPDEST DUP3 DUP3 DUP2 MLOAD DUP2 LT PUSH2 0x1149 JUMPI PUSH2 0x1149 PUSH2 0x16EF JUMP JUMPDEST PUSH1 0x20 MUL PUSH1 0x20 ADD ADD DUP2 DUP2 MSTORE POP POP PUSH2 0x1184 DUP4 DUP3 DUP2 MLOAD DUP2 LT PUSH2 0x116A JUMPI PUSH2 0x116A PUSH2 0x16EF JUMP JUMPDEST PUSH1 0x20 MUL PUSH1 0x20 ADD ADD MLOAD DUP4 DUP4 DUP2 MLOAD DUP2 LT PUSH2 0xC34 JUMPI PUSH2 0xC34 PUSH2 0x16EF JUMP JUMPDEST DUP1 PUSH2 0x118E DUP2 PUSH2 0x1705 JUMP JUMPDEST SWAP2 POP POP PUSH2 0x10AC JUMP JUMPDEST POP DUP2 MLOAD PUSH2 0x11AA SWAP1 PUSH1 0xF SWAP1 PUSH1 0x20 DUP6 ADD SWAP1 PUSH2 0x147C JUMP JUMPDEST POP PUSH1 0x0 DUP1 MLOAD PUSH1 0x20 PUSH2 0x17B2 DUP4 CODECOPY DUP2 MLOAD SWAP2 MSTORE PUSH1 0xC SLOAD DUP4 DUP4 PUSH1 0x40 MLOAD PUSH2 0x11CE SWAP4 SWAP3 SWAP2 SWAP1 PUSH2 0x1734 JUMP JUMPDEST PUSH1 0x40 MLOAD DUP1 SWAP2 SUB SWAP1 LOG1 PUSH2 0x11DE PUSH2 0x143E JUMP JUMPDEST POP POP POP POP POP POP POP POP JUMPDEST PUSH2 0x11F1 PUSH1 0x1 PUSH1 0x0 SSTORE JUMP JUMPDEST JUMP JUMPDEST PUSH1 0x8 SLOAD PUSH1 0x60 SWAP1 PUSH1 0x0 SWAP1 PUSH8 0xFFFFFFFFFFFFFFFF DUP2 GT ISZERO PUSH2 0x1214 JUMPI PUSH2 0x1214 PUSH2 0x171E JUMP JUMPDEST PUSH1 0x40 MLOAD SWAP1 DUP1 DUP3 MSTORE DUP1 PUSH1 0x20 MUL PUSH1 0x20 ADD DUP3 ADD PUSH1 0x40 MSTORE DUP1 ISZERO PUSH2 0x123D JUMPI DUP2 PUSH1 0x20 ADD PUSH1 0x20 DUP3 MUL DUP1 CALLDATASIZE DUP4 CALLDATACOPY ADD SWAP1 POP JUMPDEST POP SWAP1 POP PUSH1 0x0 JUMPDEST PUSH1 0x8 SLOAD DUP2 LT ISZERO PUSH2 0x12C1 JUMPI PUSH1 0x8 DUP2 DUP2 SLOAD DUP2 LT PUSH2 0x1260 JUMPI PUSH2 0x1260 PUSH2 0x16EF JUMP JUMPDEST SWAP1 PUSH1 0x0 MSTORE PUSH1 0x20 PUSH1 0x0 KECCAK256 SWAP1 PUSH1 0x4 MUL ADD PUSH1 0x1 ADD PUSH1 0x0 SWAP1 SLOAD SWAP1 PUSH2 0x100 EXP SWAP1 DIV PUSH1 0x1 PUSH1 0x1 PUSH1 0xA0 SHL SUB AND DUP3 DUP3 DUP2 MLOAD DUP2 LT PUSH2 0x1297 JUMPI PUSH2 0x1297 PUSH2 0x16EF JUMP JUMPDEST PUSH1 0x1 PUSH1 0x1 PUSH1 0xA0 SHL SUB SWAP1 SWAP3 AND PUSH1 0x20 SWAP3 DUP4 MUL SWAP2 SWAP1 SWAP2 ADD SWAP1 SWAP2 ADD MSTORE DUP1 PUSH2 0x12B9 DUP2 PUSH2 0x1705 JUMP JUMPDEST SWAP2 POP POP PUSH2 0x1243 JUMP JUMPDEST POP SWAP2 SWAP1 POP JUMP JUMPDEST PUSH1 0x2 PUSH1 0x0 SLOAD SUB PUSH2 0x1319 JUMPI PUSH1 0x40 MLOAD PUSH3 0x461BCD PUSH1 0xE5 SHL DUP2 MSTORE PUSH1 0x20 PUSH1 0x4 DUP3 ADD MSTORE PUSH1 0x1F PUSH1 0x24 DUP3 ADD MSTORE PUSH32 0x5265656E7472616E637947756172643A207265656E7472616E742063616C6C00 PUSH1 0x44 DUP3 ADD MSTORE PUSH1 0x64 ADD PUSH2 0x53B JUMP JUMPDEST PUSH1 0x2 PUSH1 0x0 SSTORE JUMP JUMPDEST DUP1 SELFBALANCE LT ISZERO PUSH2 0x1370 JUMPI PUSH1 0x40 MLOAD PUSH3 0x461BCD PUSH1 0xE5 SHL DUP2 MSTORE PUSH1 0x20 PUSH1 0x4 DUP3 ADD MSTORE PUSH1 0x1D PUSH1 0x24 DUP3 ADD MSTORE PUSH32 0x416464726573733A20696E73756666696369656E742062616C616E6365000000 PUSH1 0x44 DUP3 ADD MSTORE PUSH1 0x64 ADD PUSH2 0x53B JUMP JUMPDEST PUSH1 0x0 DUP3 PUSH1 0x1 PUSH1 0x1 PUSH1 0xA0 SHL SUB AND DUP3 PUSH1 0x40 MLOAD PUSH1 0x0 PUSH1 0x40 MLOAD DUP1 DUP4 SUB DUP2 DUP6 DUP8 GAS CALL SWAP3 POP POP POP RETURNDATASIZE DUP1 PUSH1 0x0 DUP2 EQ PUSH2 0x13BD JUMPI PUSH1 0x40 MLOAD SWAP2 POP PUSH1 0x1F NOT PUSH1 0x3F RETURNDATASIZE ADD AND DUP3 ADD PUSH1 0x40 MSTORE RETURNDATASIZE DUP3 MSTORE RETURNDATASIZE PUSH1 0x0 PUSH1 0x20 DUP5 ADD RETURNDATACOPY PUSH2 0x13C2 JUMP JUMPDEST PUSH1 0x60 SWAP2 POP JUMPDEST POP POP SWAP1 POP DUP1 PUSH2 0x1439 JUMPI PUSH1 0x40 MLOAD PUSH3 0x461BCD PUSH1 0xE5 SHL DUP2 MSTORE PUSH1 0x20 PUSH1 0x4 DUP3 ADD MSTORE PUSH1 0x3A PUSH1 0x24 DUP3 ADD MSTORE PUSH32 0x416464726573733A20756E61626C6520746F2073656E642076616C75652C2072 PUSH1 0x44 DUP3 ADD MSTORE PUSH32 0x6563697069656E74206D61792068617665207265766572746564000000000000 PUSH1 0x64 DUP3 ADD MSTORE PUSH1 0x84 ADD PUSH2 0x53B JUMP JUMPDEST POP POP POP JUMP JUMPDEST PUSH2 0x144A PUSH1 0x8 PUSH1 0x0 PUSH2 0x152C JUMP JUMPDEST PUSH1 0x0 PUSH1 0xB SSTORE PUSH1 0x4 SLOAD PUSH2 0x145C SWAP1 TIMESTAMP PUSH2 0x15AF JUMP JUMPDEST PUSH1 0x9 DUP2 SWAP1 SSTORE POP PUSH1 0x1 PUSH1 0xC PUSH1 0x0 DUP3 DUP3 SLOAD PUSH2 0x1475 SWAP2 SWAP1 PUSH2 0x15AF JUMP JUMPDEST SWAP1 SWAP2 SSTORE POP POP JUMP JUMPDEST DUP3 DUP1 SLOAD DUP3 DUP3 SSTORE SWAP1 PUSH1 0x0 MSTORE PUSH1 0x20 PUSH1 0x0 KECCAK256 SWAP1 DUP2 ADD SWAP3 DUP3 ISZERO PUSH2 0x14D1 JUMPI SWAP2 PUSH1 0x20 MUL DUP3 ADD JUMPDEST DUP3 DUP2 GT ISZERO PUSH2 0x14D1 JUMPI DUP3 MLOAD DUP3 SLOAD PUSH1 0x1 PUSH1 0x1 PUSH1 0xA0 SHL SUB NOT AND PUSH1 0x1 PUSH1 0x1 PUSH1 0xA0 SHL SUB SWAP1 SWAP2 AND OR DUP3 SSTORE PUSH1 0x20 SWAP1 SWAP3 ADD SWAP2 PUSH1 0x1 SWAP1 SWAP2 ADD SWAP1 PUSH2 0x149C JUMP JUMPDEST POP PUSH2 0x14DD SWAP3 SWAP2 POP PUSH2 0x1550 JUMP JUMPDEST POP SWAP1 JUMP JUMPDEST PUSH1 0x40 MLOAD DUP1 PUSH1 0x60 ADD PUSH1 0x40 MSTORE DUP1 PUSH1 0x3 SWAP1 JUMPDEST PUSH2 0x1516 PUSH1 0x40 MLOAD DUP1 PUSH1 0x60 ADD PUSH1 0x40 MSTORE DUP1 PUSH1 0x0 DUP2 MSTORE PUSH1 0x20 ADD PUSH1 0x0 DUP2 MSTORE PUSH1 0x20 ADD PUSH1 0x0 ISZERO ISZERO DUP2 MSTORE POP SWAP1 JUMP JUMPDEST DUP2 MSTORE PUSH1 0x20 ADD SWAP1 PUSH1 0x1 SWAP1 SUB SWAP1 DUP2 PUSH2 0x14F0 JUMPI SWAP1 POP POP SWAP1 JUMP JUMPDEST POP DUP1 SLOAD PUSH1 0x0 DUP3 SSTORE PUSH1 0x4 MUL SWAP1 PUSH1 0x0 MSTORE PUSH1 0x20 PUSH1 0x0 KECCAK256 SWAP1 DUP2 ADD SWAP1 PUSH2 0x154D SWAP2 SWAP1 PUSH2 0x1565 JUMP JUMPDEST POP JUMP JUMPDEST JUMPDEST DUP1 DUP3 GT ISZERO PUSH2 0x14DD JUMPI PUSH1 0x0 DUP2 SSTORE PUSH1 0x1 ADD PUSH2 0x1551 JUMP JUMPDEST JUMPDEST DUP1 DUP3 GT ISZERO PUSH2 0x14DD JUMPI PUSH1 0x0 DUP1 DUP3 SSTORE PUSH1 0x1 DUP3 ADD DUP1 SLOAD PUSH1 0x1 PUSH1 0x1 PUSH1 0xA0 SHL SUB NOT AND SWAP1 SSTORE PUSH1 0x2 DUP3 ADD DUP2 SWAP1 SSTORE PUSH1 0x3 DUP3 ADD SSTORE PUSH1 0x4 ADD PUSH2 0x1566 JUMP JUMPDEST PUSH4 0x4E487B71 PUSH1 0xE0 SHL PUSH1 0x0 MSTORE PUSH1 0x11 PUSH1 0x4 MSTORE PUSH1 0x24 PUSH1 0x0 REVERT JUMPDEST DUP1 DUP3 ADD DUP1 DUP3 GT ISZERO PUSH2 0x15C2 JUMPI PUSH2 0x15C2 PUSH2 0x1599 JUMP JUMPDEST SWAP3 SWAP2 POP POP JUMP JUMPDEST PUSH1 0x0 PUSH1 0x20 DUP3 DUP5 SUB SLT ISZERO PUSH2 0x15DA JUMPI PUSH1 0x0 DUP1 REVERT JUMPDEST POP CALLDATALOAD SWAP2 SWAP1 POP JUMP JUMPDEST PUSH1 0x0 DUP2 MLOAD DUP1 DUP5 MSTORE PUSH1 0x20 DUP1 DUP6 ADD SWAP5 POP DUP1 DUP5 ADD PUSH1 0x0 JUMPDEST DUP4 DUP2 LT ISZERO PUSH2 0x161A JUMPI DUP2 MLOAD PUSH1 0x1 PUSH1 0x1 PUSH1 0xA0 SHL SUB AND DUP8 MSTORE SWAP6 DUP3 ADD SWAP6 SWAP1 DUP3 ADD SWAP1 PUSH1 0x1 ADD PUSH2 0x15F5 JUMP JUMPDEST POP SWAP5 SWAP6 SWAP5 POP POP POP POP POP JUMP JUMPDEST PUSH1 0x20 DUP2 MSTORE PUSH1 0x0 PUSH2 0x1638 PUSH1 0x20 DUP4 ADD DUP5 PUSH2 0x15E1 JUMP JUMPDEST SWAP4 SWAP3 POP POP POP JUMP JUMPDEST PUSH1 0x20 DUP1 DUP3 MSTORE DUP3 MLOAD DUP3 DUP3 ADD DUP2 SWAP1 MSTORE PUSH1 0x0 SWAP2 SWAP1 PUSH1 0x40 SWAP1 DUP2 DUP6 ADD SWAP1 DUP7 DUP5 ADD DUP6 JUMPDEST DUP3 DUP2 LT ISZERO PUSH2 0x169F JUMPI DUP2 MLOAD DUP1 MLOAD DUP6 MSTORE DUP7 DUP2 ADD MLOAD PUSH1 0x1 PUSH1 0x1 PUSH1 0xA0 SHL SUB AND DUP8 DUP7 ADD MSTORE DUP6 DUP2 ADD MLOAD DUP7 DUP7 ADD MSTORE PUSH1 0x60 SWAP1 DUP2 ADD MLOAD SWAP1 DUP6 ADD MSTORE PUSH1 0x80 SWAP1 SWAP4 ADD SWAP3 SWAP1 DUP6 ADD SWAP1 PUSH1 0x1 ADD PUSH2 0x165C JUMP JUMPDEST POP SWAP2 SWAP8 SWAP7 POP POP POP POP POP POP POP JUMP JUMPDEST DUP2 DUP2 SUB DUP2 DUP2 GT ISZERO PUSH2 0x15C2 JUMPI PUSH2 0x15C2 PUSH2 0x1599 JUMP JUMPDEST PUSH1 0x0 PUSH1 0x20 DUP3 DUP5 SUB SLT ISZERO PUSH2 0x16D1 JUMPI PUSH1 0x0 DUP1 REVERT JUMPDEST POP MLOAD SWAP2 SWAP1 POP JUMP JUMPDEST DUP1 DUP3 MUL DUP2 ISZERO DUP3 DUP3 DIV DUP5 EQ OR PUSH2 0x15C2 JUMPI PUSH2 0x15C2 PUSH2 0x1599 JUMP JUMPDEST PUSH4 0x4E487B71 PUSH1 0xE0 SHL PUSH1 0x0 MSTORE PUSH1 0x32 PUSH1 0x4 MSTORE PUSH1 0x24 PUSH1 0x0 REVERT JUMPDEST PUSH1 0x0 PUSH1 0x1 DUP3 ADD PUSH2 0x1717 JUMPI PUSH2 0x1717 PUSH2 0x1599 JUMP JUMPDEST POP PUSH1 0x1 ADD SWAP1 JUMP JUMPDEST PUSH4 0x4E487B71 PUSH1 0xE0 SHL PUSH1 0x0 MSTORE PUSH1 0x41 PUSH1 0x4 MSTORE PUSH1 0x24 PUSH1 0x0 REVERT JUMPDEST DUP4 DUP2 MSTORE PUSH1 0x0 PUSH1 0x20 PUSH1 0x60 DUP2 DUP5 ADD MSTORE PUSH2 0x174E PUSH1 0x60 DUP5 ADD DUP7 PUSH2 0x15E1 JUMP JUMPDEST DUP4 DUP2 SUB PUSH1 0x40 DUP6 ADD MSTORE DUP5 MLOAD DUP1 DUP3 MSTORE DUP3 DUP7 ADD SWAP2 DUP4 ADD SWAP1 PUSH1 0x0 JUMPDEST DUP2 DUP2 LT ISZERO PUSH2 0x1781 JUMPI DUP4 MLOAD DUP4 MSTORE SWAP3 DUP5 ADD SWAP3 SWAP2 DUP5 ADD SWAP2 PUSH1 0x1 ADD PUSH2 0x1765 JUMP JUMPDEST POP SWAP1 SWAP9 SWAP8 POP POP POP POP POP POP POP POP JUMP JUMPDEST PUSH1 0x0 DUP3 PUSH2 0x17AC JUMPI PUSH4 0x4E487B71 PUSH1 0xE0 SHL PUSH1 0x0 MSTORE PUSH1 0x12 PUSH1 0x4 MSTORE PUSH1 0x24 PUSH1 0x0 REVERT JUMPDEST POP DIV SWAP1 JUMP INVALID 0x4F 0xD7 0x28 DUP1 ORIGIN 0x27 0x1E PUSH21 0xAFA3073BDAD87433C58165B48192FEE01CB3CA4D11 0x4C GASPRICE 0xF LOG2 PUSH5 0x6970667358 0x22 SLT KECCAK256 JUMPI CREATE2 SWAP2 0xCE TIMESTAMP 0x2C CALLER 0xB2 SWAP14 BALANCE 0xB1 SHR 0x5E 0xD5 PUSH15 0xA56A3424F2ADAFC921AA1EBBDA45FC 0xEB 0xAB PUSH5 0x736F6C6343 STOP ADDMOD GT STOP CALLER "},"gasEstimates":{"creation":{"codeDepositCost":"1230200","executionCost":"infinite","totalCost":"infinite"},"external":{"currentRound()":"2318","getCurrentPricePool()":"2382","getCurrentRound()":"2425","getCurrentRoundPartecipants()":"2336","getLastWinners()":"infinite","getLatestRoundPrice()":"2360","getMaxPartecipants()":"2404","getNextVerificationTime()":"2426","getPartecipants()":"infinite","getPredictions()":"infinite","getPrice()":"infinite","isRoundOpen()":"2452","keeperPercentageFee()":"2363","lastRoundPrice()":"2340","maxParticipants()":"2385","oracle()":"2426","predictions(uint256)":"11034","priceFeedAddress()":"2426","prizePool()":"2340","resolutionEndTime()":"2383","resolveTournament()":"infinite","roundWinners(uint256)":"4681","submissionEndTime()":"2341","submitPrediction(uint256)":"infinite","verificationEndTime()":"2362","verificationTime()":"2341"},"internal":{"_resetTournament()":"infinite"}},"methodIdentifiers":{"currentRound()":"8a19c8bc","getCurrentPricePool()":"5d21b255","getCurrentRound()":"a32bf597","getCurrentRoundPartecipants()":"e2f1dcc6","getLastWinners()":"95690936","getLatestRoundPrice()":"58f6b9c5","getMaxPartecipants()":"308d19ab","getNextVerificationTime()":"344c8e37","getPartecipants()":"f9ceb3ea","getPredictions()":"c78c3a83","getPrice()":"98d5fdca","isRoundOpen()":"bb9b110b","keeperPercentageFee()":"149c6dac","lastRoundPrice()":"8dd78d67","maxParticipants()":"24924bf7","oracle()":"7dc0d1d0","predictions(uint256)":"004fbbb0","priceFeedAddress()":"e0abca0b","prizePool()":"719ce73e","resolutionEndTime()":"f985ad93","resolveTournament()":"ef949f4a","roundWinners(uint256)":"76a4956c","submissionEndTime()":"532eaca0","submitPrediction(uint256)":"85d62b45","verificationEndTime()":"93bc976e","verificationTime()":"00614418"}},"storageLayout":{"storage":[{"astId":56,"contract":"contracts/Tournament.sol:Tournament","label":"_status","offset":0,"slot":"0","type":"t_uint256"},{"astId":2775,"contract":"contracts/Tournament.sol:Tournament","label":"oracle","offset":0,"slot":"1","type":"t_contract(Oracle)553"},{"astId":2778,"contract":"contracts/Tournament.sol:Tournament","label":"keeperPercentageFee","offset":0,"slot":"2","type":"t_uint256"},{"astId":2781,"contract":"contracts/Tournament.sol:Tournament","label":"submissionEndTime","offset":0,"slot":"3","type":"t_uint256"},{"astId":2784,"contract":"contracts/Tournament.sol:Tournament","label":"verificationEndTime","offset":0,"slot":"4","type":"t_uint256"},{"astId":2787,"contract":"contracts/Tournament.sol:Tournament","label":"resolutionEndTime","offset":0,"slot":"5","type":"t_uint256"},{"astId":2798,"contract":"contracts/Tournament.sol:Tournament","label":"maxParticipants","offset":0,"slot":"6","type":"t_uint256"},{"astId":2800,"contract":"contracts/Tournament.sol:Tournament","label":"lastRoundPrice","offset":0,"slot":"7","type":"t_uint256"},{"astId":2804,"contract":"contracts/Tournament.sol:Tournament","label":"predictions","offset":0,"slot":"8","type":"t_array(t_struct(Prediction)2796_storage)dyn_storage"},{"astId":2806,"contract":"contracts/Tournament.sol:Tournament","label":"verificationTime","offset":0,"slot":"9","type":"t_uint256"},{"astId":2808,"contract":"contracts/Tournament.sol:Tournament","label":"priceFeedAddress","offset":0,"slot":"10","type":"t_address"},{"astId":2810,"contract":"contracts/Tournament.sol:Tournament","label":"prizePool","offset":0,"slot":"11","type":"t_uint256"},{"astId":2813,"contract":"contracts/Tournament.sol:Tournament","label":"currentRound","offset":0,"slot":"12","type":"t_uint256"},{"astId":2817,"contract":"contracts/Tournament.sol:Tournament","label":"scores","offset":0,"slot":"13","type":"t_mapping(t_uint256,t_uint256)"},{"astId":2821,"contract":"contracts/Tournament.sol:Tournament","label":"prizePerScore","offset":0,"slot":"14","type":"t_mapping(t_uint256,t_uint256)"},{"astId":2824,"contract":"contracts/Tournament.sol:Tournament","label":"roundWinners","offset":0,"slot":"15","type":"t_array(t_address)dyn_storage"}],"types":{"t_address":{"encoding":"inplace","label":"address","numberOfBytes":"20"},"t_array(t_address)dyn_storage":{"base":"t_address","encoding":"dynamic_array","label":"address[]","numberOfBytes":"32"},"t_array(t_struct(Prediction)2796_storage)dyn_storage":{"base":"t_struct(Prediction)2796_storage","encoding":"dynamic_array","label":"struct Tournament.Prediction[]","numberOfBytes":"32"},"t_contract(Oracle)553":{"encoding":"inplace","label":"contract Oracle","numberOfBytes":"20"},"t_mapping(t_uint256,t_uint256)":{"encoding":"mapping","key":"t_uint256","label":"mapping(uint256 => uint256)","numberOfBytes":"32","value":"t_uint256"},"t_struct(Prediction)2796_storage":{"encoding":"inplace","label":"struct Tournament.Prediction","members":[{"astId":2789,"contract":"contracts/Tournament.sol:Tournament","label":"round","offset":0,"slot":"0","type":"t_uint256"},{"astId":2791,"contract":"contracts/Tournament.sol:Tournament","label":"predictor","offset":0,"slot":"1","type":"t_address"},{"astId":2793,"contract":"contracts/Tournament.sol:Tournament","label":"predictedPrice","offset":0,"slot":"2","type":"t_uint256"},{"astId":2795,"contract":"contracts/Tournament.sol:Tournament","label":"amount","offset":0,"slot":"3","type":"t_uint256"}],"numberOfBytes":"128"},"t_uint256":{"encoding":"inplace","label":"uint256","numberOfBytes":"32"}}},"userdoc":{"kind":"user","methods":{},"version":1}}}}