{
  "address": "0x41D1341541aB776A35f671309C7035c5B4BBBC63",
  "abi": [
    {
      "inputs": [
        {
          "internalType": "address",
          "name": "_oracleAddress",
          "type": "address"
        }
      ],
      "stateMutability": "nonpayable",
      "type": "constructor"
    },
    {
      "anonymous": false,
      "inputs": [
        {
          "indexed": true,
          "internalType": "address",
          "name": "predictor",
          "type": "address"
        },
        {
          "indexed": false,
          "internalType": "enum BaluniPoolV1.Coin",
          "name": "token",
          "type": "uint8"
        },
        {
          "indexed": false,
          "internalType": "uint256",
          "name": "predictedPrice",
          "type": "uint256"
        },
        {
          "indexed": false,
          "internalType": "uint256",
          "name": "actualPrice",
          "type": "uint256"
        },
        {
          "indexed": false,
          "internalType": "uint256",
          "name": "timestamp",
          "type": "uint256"
        },
        {
          "indexed": false,
          "internalType": "uint256",
          "name": "endTime",
          "type": "uint256"
        }
      ],
      "name": "PredictionRegistered",
      "type": "event"
    },
    {
      "anonymous": false,
      "inputs": [
        {
          "indexed": true,
          "internalType": "address",
          "name": "predictor",
          "type": "address"
        },
        {
          "indexed": false,
          "internalType": "uint256",
          "name": "amount",
          "type": "uint256"
        }
      ],
      "name": "RewardWithdrawn",
      "type": "event"
    },
    {
      "inputs": [
        {
          "internalType": "address",
          "name": "user",
          "type": "address"
        }
      ],
      "name": "calculateReward",
      "outputs": [
        {
          "internalType": "uint256",
          "name": "",
          "type": "uint256"
        }
      ],
      "stateMutability": "view",
      "type": "function"
    },
    {
      "inputs": [
        {
          "internalType": "address",
          "name": "",
          "type": "address"
        }
      ],
      "name": "distributionCounter",
      "outputs": [
        {
          "internalType": "uint256",
          "name": "",
          "type": "uint256"
        }
      ],
      "stateMutability": "view",
      "type": "function"
    },
    {
      "inputs": [],
      "name": "exit",
      "outputs": [],
      "stateMutability": "nonpayable",
      "type": "function"
    },
    {
      "inputs": [
        {
          "internalType": "uint256",
          "name": "index",
          "type": "uint256"
        }
      ],
      "name": "getPrediction",
      "outputs": [
        {
          "components": [
            {
              "internalType": "address",
              "name": "predictor",
              "type": "address"
            },
            {
              "internalType": "enum BaluniPoolV1.Coin",
              "name": "token",
              "type": "uint8"
            },
            {
              "internalType": "uint256",
              "name": "predictedPrice",
              "type": "uint256"
            },
            {
              "internalType": "uint256",
              "name": "actualPrice",
              "type": "uint256"
            },
            {
              "internalType": "uint256",
              "name": "resolvedPrice",
              "type": "uint256"
            },
            {
              "internalType": "uint256",
              "name": "difference",
              "type": "uint256"
            },
            {
              "internalType": "uint256",
              "name": "timestamp",
              "type": "uint256"
            },
            {
              "internalType": "uint256",
              "name": "endTime",
              "type": "uint256"
            },
            {
              "internalType": "bool",
              "name": "resolved",
              "type": "bool"
            }
          ],
          "internalType": "struct BaluniPoolV1.Prediction",
          "name": "",
          "type": "tuple"
        }
      ],
      "stateMutability": "view",
      "type": "function"
    },
    {
      "inputs": [],
      "name": "getPredictionCount",
      "outputs": [
        {
          "internalType": "uint256",
          "name": "",
          "type": "uint256"
        }
      ],
      "stateMutability": "view",
      "type": "function"
    },
    {
      "inputs": [
        {
          "internalType": "uint256",
          "name": "from",
          "type": "uint256"
        },
        {
          "internalType": "uint256",
          "name": "to",
          "type": "uint256"
        }
      ],
      "name": "getPredictionFromTo",
      "outputs": [
        {
          "components": [
            {
              "internalType": "address",
              "name": "predictor",
              "type": "address"
            },
            {
              "internalType": "enum BaluniPoolV1.Coin",
              "name": "token",
              "type": "uint8"
            },
            {
              "internalType": "uint256",
              "name": "predictedPrice",
              "type": "uint256"
            },
            {
              "internalType": "uint256",
              "name": "actualPrice",
              "type": "uint256"
            },
            {
              "internalType": "uint256",
              "name": "resolvedPrice",
              "type": "uint256"
            },
            {
              "internalType": "uint256",
              "name": "difference",
              "type": "uint256"
            },
            {
              "internalType": "uint256",
              "name": "timestamp",
              "type": "uint256"
            },
            {
              "internalType": "uint256",
              "name": "endTime",
              "type": "uint256"
            },
            {
              "internalType": "bool",
              "name": "resolved",
              "type": "bool"
            }
          ],
          "internalType": "struct BaluniPoolV1.Prediction[]",
          "name": "",
          "type": "tuple[]"
        }
      ],
      "stateMutability": "view",
      "type": "function"
    },
    {
      "inputs": [],
      "name": "getSubmissionFee",
      "outputs": [
        {
          "internalType": "uint256",
          "name": "",
          "type": "uint256"
        }
      ],
      "stateMutability": "view",
      "type": "function"
    },
    {
      "inputs": [],
      "name": "getTotalPredictions",
      "outputs": [
        {
          "internalType": "uint256",
          "name": "",
          "type": "uint256"
        }
      ],
      "stateMutability": "view",
      "type": "function"
    },
    {
      "inputs": [],
      "name": "hasAnyUnresolvedPastEndTime",
      "outputs": [
        {
          "internalType": "bool",
          "name": "",
          "type": "bool"
        }
      ],
      "stateMutability": "view",
      "type": "function"
    },
    {
      "inputs": [],
      "name": "hasUnresolvedPredictions",
      "outputs": [
        {
          "internalType": "bool",
          "name": "",
          "type": "bool"
        }
      ],
      "stateMutability": "view",
      "type": "function"
    },
    {
      "inputs": [],
      "name": "last10Predictions",
      "outputs": [
        {
          "components": [
            {
              "internalType": "address",
              "name": "predictor",
              "type": "address"
            },
            {
              "internalType": "enum BaluniPoolV1.Coin",
              "name": "token",
              "type": "uint8"
            },
            {
              "internalType": "uint256",
              "name": "predictedPrice",
              "type": "uint256"
            },
            {
              "internalType": "uint256",
              "name": "actualPrice",
              "type": "uint256"
            },
            {
              "internalType": "uint256",
              "name": "resolvedPrice",
              "type": "uint256"
            },
            {
              "internalType": "uint256",
              "name": "difference",
              "type": "uint256"
            },
            {
              "internalType": "uint256",
              "name": "timestamp",
              "type": "uint256"
            },
            {
              "internalType": "uint256",
              "name": "endTime",
              "type": "uint256"
            },
            {
              "internalType": "bool",
              "name": "resolved",
              "type": "bool"
            }
          ],
          "internalType": "struct BaluniPoolV1.Prediction[]",
          "name": "",
          "type": "tuple[]"
        }
      ],
      "stateMutability": "view",
      "type": "function"
    },
    {
      "inputs": [
        {
          "internalType": "address",
          "name": "",
          "type": "address"
        }
      ],
      "name": "lastWithdraw",
      "outputs": [
        {
          "internalType": "uint256",
          "name": "",
          "type": "uint256"
        }
      ],
      "stateMutability": "view",
      "type": "function"
    },
    {
      "inputs": [],
      "name": "oracle",
      "outputs": [
        {
          "internalType": "contract Oracle",
          "name": "",
          "type": "address"
        }
      ],
      "stateMutability": "view",
      "type": "function"
    },
    {
      "inputs": [
        {
          "internalType": "uint256",
          "name": "",
          "type": "uint256"
        }
      ],
      "name": "predictions",
      "outputs": [
        {
          "internalType": "address",
          "name": "predictor",
          "type": "address"
        },
        {
          "internalType": "enum BaluniPoolV1.Coin",
          "name": "token",
          "type": "uint8"
        },
        {
          "internalType": "uint256",
          "name": "predictedPrice",
          "type": "uint256"
        },
        {
          "internalType": "uint256",
          "name": "actualPrice",
          "type": "uint256"
        },
        {
          "internalType": "uint256",
          "name": "resolvedPrice",
          "type": "uint256"
        },
        {
          "internalType": "uint256",
          "name": "difference",
          "type": "uint256"
        },
        {
          "internalType": "uint256",
          "name": "timestamp",
          "type": "uint256"
        },
        {
          "internalType": "uint256",
          "name": "endTime",
          "type": "uint256"
        },
        {
          "internalType": "bool",
          "name": "resolved",
          "type": "bool"
        }
      ],
      "stateMutability": "view",
      "type": "function"
    },
    {
      "inputs": [],
      "name": "registrationFee",
      "outputs": [
        {
          "internalType": "uint256",
          "name": "",
          "type": "uint256"
        }
      ],
      "stateMutability": "view",
      "type": "function"
    },
    {
      "inputs": [],
      "name": "resolve",
      "outputs": [],
      "stateMutability": "nonpayable",
      "type": "function"
    },
    {
      "inputs": [
        {
          "internalType": "enum BaluniPoolV1.Coin",
          "name": "_token",
          "type": "uint8"
        },
        {
          "internalType": "uint256",
          "name": "_predictedPrice",
          "type": "uint256"
        }
      ],
      "name": "submit",
      "outputs": [],
      "stateMutability": "payable",
      "type": "function"
    },
    {
      "inputs": [],
      "name": "totalPredictions",
      "outputs": [
        {
          "internalType": "uint256",
          "name": "",
          "type": "uint256"
        }
      ],
      "stateMutability": "view",
      "type": "function"
    },
    {
      "inputs": [
        {
          "internalType": "address",
          "name": "",
          "type": "address"
        }
      ],
      "name": "userSubmissionFees",
      "outputs": [
        {
          "internalType": "uint256",
          "name": "",
          "type": "uint256"
        }
      ],
      "stateMutability": "view",
      "type": "function"
    },
    {
      "stateMutability": "payable",
      "type": "receive"
    }
  ],
  "transactionHash": "0xa4efa73ef6fa9b97753f75acbc655ad86917efbee6a63e62243ffa6f2de9823d",
  "args": [
    "0xaC81354605019e00FfCfb36df3031419E62540B3"
  ],
  "numDeployments": 4,
  "solcInputHash": "1d9c0fafeb99e3e18cf1cabfc12115dd",
  "bytecode": "0x6080604052662386f26fc10000600355600060045534801561002057600080fd5b506040516115e03803806115e083398101604081905261003f91610069565b6001600081905580546001600160a01b0319166001600160a01b0392909216919091179055610099565b60006020828403121561007b57600080fd5b81516001600160a01b038116811461009257600080fd5b9392505050565b611538806100a86000396000f3fe6080604052600436106101175760003560e01c80635c580061116100a0578063d1c4e1b411610064578063d1c4e1b414610311578063d82e396214610326578063e9fad8ee14610346578063f9be85231461035b578063fe83bece1461037d57600080fd5b80635c58006114610254578063600bebf514610269578063624d7b7214610296578063779bd562146102c35780637dc0d1d0146102d957600080fd5b80632810e1d6116100e75780632810e1d6146101c3578063371d5d02146101da5780634abf93b7146101ff5780634ce93cc8146102145780635590cfa91461022757600080fd5b80624fbbb0146101235780630166809614610161578063037361e91461018057806314c44e09146101ad57600080fd5b3661011e57005b600080fd5b34801561012f57600080fd5b5061014361013e36600461120f565b6103aa565b60405161015899989796959493929190611260565b60405180910390f35b34801561016d57600080fd5b506002545b604051908152602001610158565b34801561018c57600080fd5b5061017261019b3660046112b7565b60056020526000908152604090205481565b3480156101b957600080fd5b5061017260035481565b3480156101cf57600080fd5b506101d8610417565b005b3480156101e657600080fd5b506101ef610669565b6040519015158152602001610158565b34801561020b57600080fd5b506101ef6106c7565b6101d86102223660046112e0565b61074e565b34801561023357600080fd5b50610247610242366004611310565b610a4f565b60405161015891906113a1565b34801561026057600080fd5b50600454610172565b34801561027557600080fd5b506101726102843660046112b7565b60076020526000908152604090205481565b3480156102a257600080fd5b506101726102b13660046112b7565b60066020526000908152604090205481565b3480156102cf57600080fd5b5061017260045481565b3480156102e557600080fd5b506001546102f9906001600160a01b031681565b6040516001600160a01b039091168152602001610158565b34801561031d57600080fd5b50610247610c3b565b34801561033257600080fd5b506101726103413660046112b7565b610dc6565b34801561035257600080fd5b506101d8610e34565b34801561036757600080fd5b5033600090815260076020526040902054610172565b34801561038957600080fd5b5061039d61039836600461120f565b610f97565b60405161015891906113f0565b600281815481106103ba57600080fd5b6000918252602090912060089091020180546001820154600283015460038401546004850154600586015460068701546007909701546001600160a01b038716985060ff600160a01b909704871697959694959394929391921689565b60015460408051638e15f47360e01b815290516000926001600160a01b031691638e15f4739160048083019260209291908290030181865afa158015610461573d6000803e3d6000fd5b505050506040513d601f19601f8201168201806040525081019061048591906113ff565b610494906402540be40061142e565b90506000805b600254811080156104a9575081155b156104f657600281815481106104c1576104c1611445565b6000918252602082206007600890920201015460ff16151590036104e457600191505b806104ee8161145b565b91505061049a565b5080610500575050565b60005b60025481101561062f576002818154811061052057610520611445565b600091825260209091206007600890920201015460ff1615801561056857506002818154811061055257610552611445565b9060005260206000209060080201600601544210155b1561061d5760006002828154811061058257610582611445565b906000526020600020906008020160010154905060008482116105ae576105a98286611474565b6105b8565b6105b88583611474565b905080600284815481106105ce576105ce611445565b9060005260206000209060080201600401819055506001600284815481106105f8576105f8611445565b60009182526020909120600890910201600701805460ff191691151591909117905550505b806106278161145b565b915050610503565b50600480549060006106408361145b565b90915550503360009081526005602052604081208054916106608361145b565b91905055505050565b6000805b6002548110156106bf576002818154811061068a5761068a611445565b600091825260209091206007600890920201015460ff166106ad57600191505090565b806106b78161145b565b91505061066d565b506000905090565b6000805b6002548110156106bf57600281815481106106e8576106e8611445565b600091825260209091206007600890920201015460ff1615801561072f57506002818154811061071a5761071a611445565b90600052602060002090600802016006015442115b1561073c57600191505090565b806107468161145b565b9150506106cb565b662386f26fc1000034101561079f5760405162461bcd60e51b8152602060048201526012602482015271125b9d985b1a590819995948185b5bdd5b9d60721b60448201526064015b60405180910390fd5b336000908152600760205260409020543410156107f35760405162461bcd60e51b8152602060048201526012602482015271125b9d985b1a590819995948185b5bdd5b9d60721b6044820152606401610796565b3360009081526007602052604081203480825566038d7ea4c68000929061081b908490611487565b909155505060015460408051638e15f47360e01b815290516000926001600160a01b031691638e15f4739160048083019260209291908290030181865afa15801561086a573d6000803e3d6000fd5b505050506040513d601f19601f8201168201806040525081019061088e91906113ff565b61089d906402540be40061142e565b90506002604051806101200160405280336001600160a01b031681526020018560008111156108ce576108ce611228565b8152602001848152602001838152602001600081526020016000815260200142815260200142620151806109029190611487565b8152600060209182018190528354600181018555938152819020825160089094020180546001600160a01b039094166001600160a01b031985168117825591830151929390929183916001600160a81b03191617600160a01b83801561096a5761096a611228565b021790555060408201516001820155606082015160028201556080820151600382015560a082015160048083019190915560c0830151600583015560e08301516006830155610100909201516007909101805460ff191691151591909117905580549060006109d88361145b565b90915550503360009081526005602052604081208054916109f88361145b565b909155503390507f046796fc72779cbabd1ea8b64c35f18f13d4d3d4693526deb779040b773c311b84848442610a318162015180611487565b604051610a4295949392919061149a565b60405180910390a2505050565b6060818310610a905760405162461bcd60e51b815260206004820152600d60248201526c496e76616c69642072616e676560981b6044820152606401610796565b600254821115610ad25760405162461bcd60e51b815260206004820152600d60248201526c496e76616c69642072616e676560981b6044820152606401610796565b6000610ade8484611474565b67ffffffffffffffff811115610af657610af66114ca565b604051908082528060200260200182016040528015610b2f57816020015b610b1c6111c0565b815260200190600190039081610b145790505b509050835b83811015610c315760028181548110610b4f57610b4f611445565b600091825260209182902060408051610120810190915260089092020180546001600160a01b0381168352919290919083019060ff600160a01b909104168015610b9b57610b9b611228565b8015610ba957610ba9611228565b815260018201546020820152600282015460408201526003820154606082015260048201546080820152600582015460a0820152600682015460c082015260079091015460ff16151560e09091015282610c038784611474565b81518110610c1357610c13611445565b60200260200101819052508080610c299061145b565b915050610b34565b5090505b92915050565b6002546060906000600a8211610c52576000610c5d565b610c5d600a83611474565b90506000610c6b8284611474565b67ffffffffffffffff811115610c8357610c836114ca565b604051908082528060200260200182016040528015610cbc57816020015b610ca96111c0565b815260200190600190039081610ca15790505b509050815b83811015610dbe5760028181548110610cdc57610cdc611445565b600091825260209182902060408051610120810190915260089092020180546001600160a01b0381168352919290919083019060ff600160a01b909104168015610d2857610d28611228565b8015610d3657610d36611228565b815260018201546020820152600282015460408201526003820154606082015260048201546080820152600582015460a0820152600682015460c082015260079091015460ff16151560e09091015282610d908584611474565b81518110610da057610da0611445565b60200260200101819052508080610db69061145b565b915050610cc1565b509392505050565b6004546001600160a01b03821660009081526005602052604081205490918291610df890670de0b6b3a764000061142e565b610e0291906114e0565b90506002670de0b6b3a7640000610e19834761142e565b610e2391906114e0565b610e2d91906114e0565b9392505050565b3360009081526006602052604090205462278d0090610e539042611474565b1015610eaf5760405162461bcd60e51b815260206004820152602560248201527f5761697420666f722033302064617973206265666f7265206e65787420776974604482015264686472617760d81b6064820152608401610796565b6000610eba33610dc6565b905060008111610f025760405162461bcd60e51b81526020600482015260136024820152724e6f2072657761726420617661696c61626c6560681b6044820152606401610796565b336000908152600560205260408120546004805491929091610f25908490611474565b909155505033600081815260056020908152604080832083905560068252808320429055600354600790925290912055610f5f90826110a2565b60405181815233907f1d3eee4ca001cff39eec6ec7615aacf2f2bd61791273830728ba00ccbd6e13379060200160405180910390a250565b610f9f6111c0565b6002548210610fe05760405162461bcd60e51b815260206004820152600d60248201526c092dcecc2d8d2c840d2dcc8caf609b1b6044820152606401610796565b60028281548110610ff357610ff3611445565b600091825260209182902060408051610120810190915260089092020180546001600160a01b0381168352919290919083019060ff600160a01b90910416801561103f5761103f611228565b801561104d5761104d611228565b815260018201546020820152600282015460408201526003820154606082015260048201546080820152600582015460a0820152600682015460c082015260079091015460ff16151560e09091015292915050565b804710156110f25760405162461bcd60e51b815260206004820152601d60248201527f416464726573733a20696e73756666696369656e742062616c616e63650000006044820152606401610796565b6000826001600160a01b03168260405160006040518083038185875af1925050503d806000811461113f576040519150601f19603f3d011682016040523d82523d6000602084013e611144565b606091505b50509050806111bb5760405162461bcd60e51b815260206004820152603a60248201527f416464726573733a20756e61626c6520746f2073656e642076616c75652c207260448201527f6563697069656e74206d617920686176652072657665727465640000000000006064820152608401610796565b505050565b6040805161012081019091526000808252602082019081526020016000815260200160008152602001600081526020016000815260200160008152602001600081526020016000151581525090565b60006020828403121561122157600080fd5b5035919050565b634e487b7160e01b600052602160045260246000fd5b6001811061125c57634e487b7160e01b600052602160045260246000fd5b9052565b6001600160a01b038a168152610120810161127e602083018b61123e565b60408201989098526060810196909652608086019490945260a085019290925260c084015260e083015215156101009091015292915050565b6000602082840312156112c957600080fd5b81356001600160a01b0381168114610e2d57600080fd5b600080604083850312156112f357600080fd5b82356001811061130257600080fd5b946020939093013593505050565b6000806040838503121561132357600080fd5b50508035926020909101359150565b80516001600160a01b03168252602080820151906113529084018261123e565b5060408101516040830152606081015160608301526080810151608083015260a081015160a083015260c081015160c083015260e081015160e083015261010080820151151581840152505050565b6020808252825182820181905260009190848201906040850190845b818110156113e4576113d0838551611332565b9284019261012092909201916001016113bd565b50909695505050505050565b6101208101610c358284611332565b60006020828403121561141157600080fd5b5051919050565b634e487b7160e01b600052601160045260246000fd5b8082028115828204841417610c3557610c35611418565b634e487b7160e01b600052603260045260246000fd5b60006001820161146d5761146d611418565b5060010190565b81810381811115610c3557610c35611418565b80820180821115610c3557610c35611418565b60a081016114a8828861123e565b8560208301528460408301528360608301528260808301529695505050505050565b634e487b7160e01b600052604160045260246000fd5b6000826114fd57634e487b7160e01b600052601260045260246000fd5b50049056fea2646970667358221220239fb35c2add4bbfd261da648a11e1ac4c7b23d7f9b4037519d736da59d5a8e664736f6c63430008110033",
  "devdoc": {
    "kind": "dev",
    "methods": {},
    "version": 1
  },
  "userdoc": {
    "kind": "user",
    "methods": {},
    "version": 1
  },
  "storageLayout": {
    "storage": [
      {
        "astId": 56,
        "contract": "contracts/BaluniPoolPolygon_v1.sol:BaluniPoolV1",
        "label": "_status",
        "offset": 0,
        "slot": "0",
        "type": "t_uint256"
      },
      {
        "astId": 450,
        "contract": "contracts/BaluniPoolPolygon_v1.sol:BaluniPoolV1",
        "label": "oracle",
        "offset": 0,
        "slot": "1",
        "type": "t_contract(Oracle)1877"
      },
      {
        "astId": 476,
        "contract": "contracts/BaluniPoolPolygon_v1.sol:BaluniPoolV1",
        "label": "predictions",
        "offset": 0,
        "slot": "2",
        "type": "t_array(t_struct(Prediction)472_storage)dyn_storage"
      },
      {
        "astId": 479,
        "contract": "contracts/BaluniPoolPolygon_v1.sol:BaluniPoolV1",
        "label": "registrationFee",
        "offset": 0,
        "slot": "3",
        "type": "t_uint256"
      },
      {
        "astId": 482,
        "contract": "contracts/BaluniPoolPolygon_v1.sol:BaluniPoolV1",
        "label": "totalPredictions",
        "offset": 0,
        "slot": "4",
        "type": "t_uint256"
      },
      {
        "astId": 486,
        "contract": "contracts/BaluniPoolPolygon_v1.sol:BaluniPoolV1",
        "label": "distributionCounter",
        "offset": 0,
        "slot": "5",
        "type": "t_mapping(t_address,t_uint256)"
      },
      {
        "astId": 490,
        "contract": "contracts/BaluniPoolPolygon_v1.sol:BaluniPoolV1",
        "label": "lastWithdraw",
        "offset": 0,
        "slot": "6",
        "type": "t_mapping(t_address,t_uint256)"
      },
      {
        "astId": 494,
        "contract": "contracts/BaluniPoolPolygon_v1.sol:BaluniPoolV1",
        "label": "userSubmissionFees",
        "offset": 0,
        "slot": "7",
        "type": "t_mapping(t_address,t_uint256)"
      }
    ],
    "types": {
      "t_address": {
        "encoding": "inplace",
        "label": "address",
        "numberOfBytes": "20"
      },
      "t_array(t_struct(Prediction)472_storage)dyn_storage": {
        "base": "t_struct(Prediction)472_storage",
        "encoding": "dynamic_array",
        "label": "struct BaluniPoolV1.Prediction[]",
        "numberOfBytes": "32"
      },
      "t_bool": {
        "encoding": "inplace",
        "label": "bool",
        "numberOfBytes": "1"
      },
      "t_contract(Oracle)1877": {
        "encoding": "inplace",
        "label": "contract Oracle",
        "numberOfBytes": "20"
      },
      "t_enum(Coin)452": {
        "encoding": "inplace",
        "label": "enum BaluniPoolV1.Coin",
        "numberOfBytes": "1"
      },
      "t_mapping(t_address,t_uint256)": {
        "encoding": "mapping",
        "key": "t_address",
        "label": "mapping(address => uint256)",
        "numberOfBytes": "32",
        "value": "t_uint256"
      },
      "t_struct(Prediction)472_storage": {
        "encoding": "inplace",
        "label": "struct BaluniPoolV1.Prediction",
        "members": [
          {
            "astId": 454,
            "contract": "contracts/BaluniPoolPolygon_v1.sol:BaluniPoolV1",
            "label": "predictor",
            "offset": 0,
            "slot": "0",
            "type": "t_address"
          },
          {
            "astId": 457,
            "contract": "contracts/BaluniPoolPolygon_v1.sol:BaluniPoolV1",
            "label": "token",
            "offset": 20,
            "slot": "0",
            "type": "t_enum(Coin)452"
          },
          {
            "astId": 459,
            "contract": "contracts/BaluniPoolPolygon_v1.sol:BaluniPoolV1",
            "label": "predictedPrice",
            "offset": 0,
            "slot": "1",
            "type": "t_uint256"
          },
          {
            "astId": 461,
            "contract": "contracts/BaluniPoolPolygon_v1.sol:BaluniPoolV1",
            "label": "actualPrice",
            "offset": 0,
            "slot": "2",
            "type": "t_uint256"
          },
          {
            "astId": 463,
            "contract": "contracts/BaluniPoolPolygon_v1.sol:BaluniPoolV1",
            "label": "resolvedPrice",
            "offset": 0,
            "slot": "3",
            "type": "t_uint256"
          },
          {
            "astId": 465,
            "contract": "contracts/BaluniPoolPolygon_v1.sol:BaluniPoolV1",
            "label": "difference",
            "offset": 0,
            "slot": "4",
            "type": "t_uint256"
          },
          {
            "astId": 467,
            "contract": "contracts/BaluniPoolPolygon_v1.sol:BaluniPoolV1",
            "label": "timestamp",
            "offset": 0,
            "slot": "5",
            "type": "t_uint256"
          },
          {
            "astId": 469,
            "contract": "contracts/BaluniPoolPolygon_v1.sol:BaluniPoolV1",
            "label": "endTime",
            "offset": 0,
            "slot": "6",
            "type": "t_uint256"
          },
          {
            "astId": 471,
            "contract": "contracts/BaluniPoolPolygon_v1.sol:BaluniPoolV1",
            "label": "resolved",
            "offset": 0,
            "slot": "7",
            "type": "t_bool"
          }
        ],
        "numberOfBytes": "256"
      },
      "t_uint256": {
        "encoding": "inplace",
        "label": "uint256",
        "numberOfBytes": "32"
      }
    }
  }
}