{
  "address": "0xbAc698969620A4e129eBE3cdDD7Be93d8bd637B8",
  "abi": [
    {
      "inputs": [
        {
          "internalType": "address",
          "name": "_oracleAddress",
          "type": "address"
        },
        {
          "internalType": "uint256",
          "name": "_maxParticipants",
          "type": "uint256"
        }
      ],
      "stateMutability": "nonpayable",
      "type": "constructor"
    },
    {
      "anonymous": false,
      "inputs": [
        {
          "indexed": false,
          "internalType": "uint256",
          "name": "round",
          "type": "uint256"
        },
        {
          "indexed": true,
          "internalType": "address",
          "name": "predictor",
          "type": "address"
        },
        {
          "indexed": false,
          "internalType": "uint256",
          "name": "predictedPrice",
          "type": "uint256"
        },
        {
          "indexed": false,
          "internalType": "uint256",
          "name": "amount",
          "type": "uint256"
        }
      ],
      "name": "PredictionSubmitted",
      "type": "event"
    },
    {
      "anonymous": false,
      "inputs": [
        {
          "indexed": false,
          "internalType": "uint256",
          "name": "round",
          "type": "uint256"
        },
        {
          "indexed": false,
          "internalType": "address[]",
          "name": "winners",
          "type": "address[]"
        },
        {
          "indexed": false,
          "internalType": "uint256[]",
          "name": "prizeAmounts",
          "type": "uint256[]"
        }
      ],
      "name": "TournamentResolved",
      "type": "event"
    },
    {
      "inputs": [],
      "name": "currentRound",
      "outputs": [
        {
          "internalType": "uint256",
          "name": "",
          "type": "uint256"
        }
      ],
      "stateMutability": "view",
      "type": "function"
    },
    {
      "inputs": [],
      "name": "getCurrentPricePool",
      "outputs": [
        {
          "internalType": "uint256",
          "name": "",
          "type": "uint256"
        }
      ],
      "stateMutability": "view",
      "type": "function"
    },
    {
      "inputs": [],
      "name": "getCurrentRound",
      "outputs": [
        {
          "internalType": "uint256",
          "name": "",
          "type": "uint256"
        }
      ],
      "stateMutability": "view",
      "type": "function"
    },
    {
      "inputs": [],
      "name": "getCurrentRoundPartecipants",
      "outputs": [
        {
          "internalType": "uint256",
          "name": "",
          "type": "uint256"
        }
      ],
      "stateMutability": "view",
      "type": "function"
    },
    {
      "inputs": [],
      "name": "getLatestRoundPrice",
      "outputs": [
        {
          "internalType": "uint256",
          "name": "",
          "type": "uint256"
        }
      ],
      "stateMutability": "view",
      "type": "function"
    },
    {
      "inputs": [],
      "name": "getMaxPartecipants",
      "outputs": [
        {
          "internalType": "uint256",
          "name": "",
          "type": "uint256"
        }
      ],
      "stateMutability": "view",
      "type": "function"
    },
    {
      "inputs": [],
      "name": "getNextVerificationTime",
      "outputs": [
        {
          "internalType": "uint256",
          "name": "",
          "type": "uint256"
        }
      ],
      "stateMutability": "view",
      "type": "function"
    },
    {
      "inputs": [],
      "name": "getPrice",
      "outputs": [
        {
          "internalType": "uint256",
          "name": "",
          "type": "uint256"
        }
      ],
      "stateMutability": "view",
      "type": "function"
    },
    {
      "inputs": [],
      "name": "isRoundOpen",
      "outputs": [
        {
          "internalType": "bool",
          "name": "",
          "type": "bool"
        }
      ],
      "stateMutability": "view",
      "type": "function"
    },
    {
      "inputs": [],
      "name": "keeperPercentageFee",
      "outputs": [
        {
          "internalType": "uint256",
          "name": "",
          "type": "uint256"
        }
      ],
      "stateMutability": "view",
      "type": "function"
    },
    {
      "inputs": [],
      "name": "lastRoundPrice",
      "outputs": [
        {
          "internalType": "uint256",
          "name": "",
          "type": "uint256"
        }
      ],
      "stateMutability": "view",
      "type": "function"
    },
    {
      "inputs": [],
      "name": "maxParticipants",
      "outputs": [
        {
          "internalType": "uint256",
          "name": "",
          "type": "uint256"
        }
      ],
      "stateMutability": "view",
      "type": "function"
    },
    {
      "inputs": [],
      "name": "oracle",
      "outputs": [
        {
          "internalType": "contract Oracle",
          "name": "",
          "type": "address"
        }
      ],
      "stateMutability": "view",
      "type": "function"
    },
    {
      "inputs": [
        {
          "internalType": "uint256",
          "name": "",
          "type": "uint256"
        }
      ],
      "name": "predictions",
      "outputs": [
        {
          "internalType": "uint256",
          "name": "round",
          "type": "uint256"
        },
        {
          "internalType": "address",
          "name": "predictor",
          "type": "address"
        },
        {
          "internalType": "uint256",
          "name": "predictedPrice",
          "type": "uint256"
        },
        {
          "internalType": "uint256",
          "name": "amount",
          "type": "uint256"
        }
      ],
      "stateMutability": "view",
      "type": "function"
    },
    {
      "inputs": [],
      "name": "priceFeedAddress",
      "outputs": [
        {
          "internalType": "address",
          "name": "",
          "type": "address"
        }
      ],
      "stateMutability": "view",
      "type": "function"
    },
    {
      "inputs": [],
      "name": "prizePool",
      "outputs": [
        {
          "internalType": "uint256",
          "name": "",
          "type": "uint256"
        }
      ],
      "stateMutability": "view",
      "type": "function"
    },
    {
      "inputs": [],
      "name": "resolveTournament",
      "outputs": [],
      "stateMutability": "nonpayable",
      "type": "function"
    },
    {
      "inputs": [
        {
          "internalType": "uint256",
          "name": "_predictedPrice",
          "type": "uint256"
        }
      ],
      "name": "submitPrediction",
      "outputs": [],
      "stateMutability": "payable",
      "type": "function"
    },
    {
      "inputs": [],
      "name": "verificationTime",
      "outputs": [
        {
          "internalType": "uint256",
          "name": "",
          "type": "uint256"
        }
      ],
      "stateMutability": "view",
      "type": "function"
    },
    {
      "stateMutability": "payable",
      "type": "receive"
    }
  ],
  "transactionHash": "0xa6de13fb3f33b571cc391a4f49ef3a9f5e9ce16b077f03bd45cc5e7e6a716558",
  "args": [
    "0xaC81354605019e00FfCfb36df3031419E62540B3",
    50
  ],
  "numDeployments": 4,
  "solcInputHash": "c085da685201f767e6d7b47f9d4e7c36",
  "bytecode": "0x60806040526064600255600060095534801561001a57600080fd5b5060405161152a38038061152a83398101604081905261003991610076565b6001600081905580546001600160a01b0319166001600160a01b038416179055600381905561006b42620151806100b0565b600655506100d79050565b6000806040838503121561008957600080fd5b82516001600160a01b03811681146100a057600080fd5b6020939093015192949293505050565b808201808211156100d157634e487b7160e01b600052601160045260246000fd5b92915050565b611444806100e66000396000f3fe6080604052600436106101165760003560e01c80637dc0d1d0116100a0578063a32bf59711610064578063a32bf597146102cf578063bb9b110b146102e4578063e0abca0b14610309578063e2f1dcc614610329578063ef949f4a1461033e57600080fd5b80637dc0d1d01461024157806385d62b45146102795780638a19c8bc1461028e5780638dd78d67146102a457806398d5fdca146102ba57600080fd5b8063308d19ab116100e7578063308d19ab146101d7578063344c8e37146101ec57806358f6b9c5146102015780635d21b25514610216578063719ce73e1461022b57600080fd5b80624fbbb01461013a57806261441814610187578063149c6dac146101ab57806324924bf7146101c157600080fd5b3661013557346008600082825461012d919061128c565b925050819055005b600080fd5b34801561014657600080fd5b5061015a6101553660046112a5565b610353565b604080519485526001600160a01b0390931660208501529183015260608201526080015b60405180910390f35b34801561019357600080fd5b5061019d60065481565b60405190815260200161017e565b3480156101b757600080fd5b5061019d60025481565b3480156101cd57600080fd5b5061019d60035481565b3480156101e357600080fd5b5060035461019d565b3480156101f857600080fd5b5060065461019d565b34801561020d57600080fd5b5060045461019d565b34801561022257600080fd5b5060085461019d565b34801561023757600080fd5b5061019d60085481565b34801561024d57600080fd5b50600154610261906001600160a01b031681565b6040516001600160a01b03909116815260200161017e565b61028c6102873660046112a5565b610396565b005b34801561029a57600080fd5b5061019d60095481565b3480156102b057600080fd5b5061019d60045481565b3480156102c657600080fd5b5061019d61060b565b3480156102db57600080fd5b5060095461019d565b3480156102f057600080fd5b506102f961068d565b604051901515815260200161017e565b34801561031557600080fd5b50600754610261906001600160a01b031681565b34801561033557600080fd5b5060055461019d565b34801561034a57600080fd5b5061028c6106a7565b6005818154811061036357600080fd5b600091825260209091206004909102018054600182015460028301546003909301549193506001600160a01b0316919084565b662386f26fc100003410156103f25760405162461bcd60e51b815260206004820152601760248201527f456e7472792066656520697320302e303120657468657200000000000000000060448201526064015b60405180910390fd5b600354600554106104455760405162461bcd60e51b815260206004820152601960248201527f5061727469636970616e74206c696d697420726561636865640000000000000060448201526064016103e9565b61384060065461045591906112be565b4211156104b95760405162461bcd60e51b815260206004820152602c60248201527f5375626d697373696f6e7320636c6f736564203420686f757273206265666f7260448201526b6520726f756e6420656e647360a01b60648201526084016103e9565b6040805160808101825260095481523360208201908152918101838152346060830181815260058054600181018255600091825294517f036b6384b5eca791c62761152d0c79bb0604c104a5fb6f4eb0703f3154bb3db060049096029586015594517f036b6384b5eca791c62761152d0c79bb0604c104a5fb6f4eb0703f3154bb3db1850180546001600160a01b0319166001600160a01b0390921691909117905591517f036b6384b5eca791c62761152d0c79bb0604c104a5fb6f4eb0703f3154bb3db284015590517f036b6384b5eca791c62761152d0c79bb0604c104a5fb6f4eb0703f3154bb3db39092019190915560088054919290916105be90849061128c565b90915550506009546040805191825260208201839052349082015233907f6508c7e3d28df907ed24f614c03b61c067dbc85e84a98bb8f78ffb1c8a711e559060600160405180910390a250565b60015460408051638e15f47360e01b815290516000926001600160a01b031691638e15f4739160048083019260209291908290030181865afa158015610655573d6000803e3d6000fd5b505050506040513d601f19601f8201168201806040525081019061067991906112d1565b610688906402540be4006112ea565b905090565b600061384060065461069f91906112be565b421115905090565b6106af61101a565b60065442101561070b5760405162461bcd60e51b815260206004820152602160248201527f546f75726e616d656e742063616e6e6f74206265207265736f6c7665642079656044820152601d60fa1b60648201526084016103e9565b60015460408051638e15f47360e01b815290516000926001600160a01b031691638e15f4739160048083019260209291908290030181865afa158015610755573d6000803e3d6000fd5b505050506040513d601f19601f8201168201806040525081019061077991906112d1565b9050600061078c826402540be4006112ea565b6004819055905061079b6111cf565b604080516003808252608082019092526000916020820160608036833750506040805160038082526080820190925292935060009291506020820160608036833750506005549192505060000361083b577f4fd7288032271e74afa3073bdad87433c58165b48192fee01cb3ca4d114c3a0f600954838360405161082193929190611317565b60405180910390a1610831611073565b505050505061100e565b600554600090600103610967576108a7600560008154811061085f5761085f6113a6565b60009182526020822060016004909202010154600580546001600160a01b03909216929091610890576108906113a6565b9060005260206000209060040201600301546110b1565b60056000815481106108bb576108bb6113a6565b906000526020600020906004020160010160009054906101000a90046001600160a01b03168382815181106108f2576108f26113a6565b60200260200101906001600160a01b031690816001600160a01b0316815250506005600081548110610926576109266113a6565b90600052602060002090600402016003015482828151811061094a5761094a6113a6565b60209081029190910101528061095f816113bc565b915050610e91565b600554600203610a78576000600260085461098291906113d5565b905060005b6002811015610a71576109c9600582815481106109a6576109a66113a6565b60009182526020909120600160049092020101546001600160a01b0316836110b1565b600581815481106109dc576109dc6113a6565b906000526020600020906004020160010160009054906101000a90046001600160a01b0316858481518110610a1357610a136113a6565b60200260200101906001600160a01b031690816001600160a01b03168152505081848481518110610a4657610a466113a6565b602090810291909101015282610a5b816113bc565b9350508080610a69906113bc565b915050610987565b5050610e91565b60005b6003811015610ada57600019858260038110610a9957610a996113a6565b602002015160200181815250506000858260038110610aba57610aba6113a6565b602002015190151560409091015280610ad2816113bc565b915050610a7b565b5060005b600554811015610c6f5760008660058381548110610afe57610afe6113a6565b90600052602060002090600402016002015411610b4a5760058281548110610b2857610b286113a6565b90600052602060002090600402016002015487610b4591906112be565b610b7a565b8660058381548110610b5e57610b5e6113a6565b906000526020600020906004020160020154610b7a91906112be565b905060005b6003811015610c5a57868160038110610b9a57610b9a6113a6565b602002015160200151821015610c48576000610bb8600160036112be565b90505b81811115610c0d5787610bcf6001836112be565b60038110610bdf57610bdf6113a6565b6020020151888260038110610bf657610bf66113a6565b602002015280610c05816113f7565b915050610bbb565b50604051806060016040528084815260200183815260200160011515815250878260038110610c3e57610c3e6113a6565b6020020152610c5a565b80610c52816113bc565b915050610b7f565b50508080610c67906113bc565b915050610ade565b506000805b6003811015610cf957858160038110610c8f57610c8f6113a6565b60200201516040015115610ce7576005868260038110610cb157610cb16113a6565b60200201515181548110610cc757610cc76113a6565b90600052602060002090600402016003015482610ce4919061128c565b91505b80610cf1816113bc565b915050610c74565b5060008111610d4a5760405162461bcd60e51b815260206004820152601e60248201527f546f74616c20626574206f6620746f70207468726565206973207a65726f000060448201526064016103e9565b6000612710600254600854610d5f91906112ea565b610d6991906113d5565b905080600854610d7991906112be565b600855610d8633826110b1565b60005b6003811015610e8d57868160038110610da457610da46113a6565b60200201516040015115610e7b5760008360085460058a8560038110610dcc57610dcc6113a6565b60200201515181548110610de257610de26113a6565b906000526020600020906004020160030154610dfe91906112ea565b610e0891906113d5565b9050610e5a6005898460038110610e2157610e216113a6565b60200201515181548110610e3757610e376113a6565b60009182526020909120600160049092020101546001600160a01b0316826110b1565b80868381518110610e6d57610e6d6113a6565b602002602001018181525050505b80610e85816113bc565b915050610d89565b5050505b60008167ffffffffffffffff811115610eac57610eac611301565b604051908082528060200260200182016040528015610ed5578160200160208202803683370190505b50905060008267ffffffffffffffff811115610ef357610ef3611301565b604051908082528060200260200182016040528015610f1c578160200160208202803683370190505b50905060005b83811015610fbf57858181518110610f3c57610f3c6113a6565b6020026020010151838281518110610f5657610f566113a6565b60200260200101906001600160a01b031690816001600160a01b031681525050848181518110610f8857610f886113a6565b6020026020010151828281518110610fa257610fa26113a6565b602090810291909101015280610fb7816113bc565b915050610f22565b507f4fd7288032271e74afa3073bdad87433c58165b48192fee01cb3ca4d114c3a0f6009548383604051610ff593929190611317565b60405180910390a1611005611073565b50505050505050505b6110186001600055565b565b60026000540361106c5760405162461bcd60e51b815260206004820152601f60248201527f5265656e7472616e637947756172643a207265656e7472616e742063616c6c0060448201526064016103e9565b6002600055565b61107f6005600061121a565b6000600855611091426201518061128c565b6006819055506001600960008282546110aa919061128c565b9091555050565b804710156111015760405162461bcd60e51b815260206004820152601d60248201527f416464726573733a20696e73756666696369656e742062616c616e636500000060448201526064016103e9565b6000826001600160a01b03168260405160006040518083038185875af1925050503d806000811461114e576040519150601f19603f3d011682016040523d82523d6000602084013e611153565b606091505b50509050806111ca5760405162461bcd60e51b815260206004820152603a60248201527f416464726573733a20756e61626c6520746f2073656e642076616c75652c207260448201527f6563697069656e74206d6179206861766520726576657274656400000000000060648201526084016103e9565b505050565b60405180606001604052806003905b611204604051806060016040528060008152602001600081526020016000151581525090565b8152602001906001900390816111de5790505090565b508054600082556004029060005260206000209081019061123b919061123e565b50565b5b808211156112725760008082556001820180546001600160a01b031916905560028201819055600382015560040161123f565b5090565b634e487b7160e01b600052601160045260246000fd5b8082018082111561129f5761129f611276565b92915050565b6000602082840312156112b757600080fd5b5035919050565b8181038181111561129f5761129f611276565b6000602082840312156112e357600080fd5b5051919050565b808202811582820484141761129f5761129f611276565b634e487b7160e01b600052604160045260246000fd5b6000606082018583526020606081850152818651808452608086019150828801935060005b818110156113615784516001600160a01b03168352938301939183019160010161133c565b50508481036040860152855180825290820192508186019060005b818110156113985782518552938301939183019160010161137c565b509298975050505050505050565b634e487b7160e01b600052603260045260246000fd5b6000600182016113ce576113ce611276565b5060010190565b6000826113f257634e487b7160e01b600052601260045260246000fd5b500490565b60008161140657611406611276565b50600019019056fea2646970667358221220111eac2d6a0233576d7d66c7a7ec230fa9b10b13fc37bfabc195af4620a73a0d64736f6c63430008110033",
  "devdoc": {
    "kind": "dev",
    "methods": {},
    "version": 1
  },
  "userdoc": {
    "kind": "user",
    "methods": {},
    "version": 1
  },
  "storageLayout": {
    "storage": [
      {
        "astId": 56,
        "contract": "contracts/BaluniTournamentPolygon_v1.sol:BaluniTournamentV1",
        "label": "_status",
        "offset": 0,
        "slot": "0",
        "type": "t_uint256"
      },
      {
        "astId": 451,
        "contract": "contracts/BaluniTournamentPolygon_v1.sol:BaluniTournamentV1",
        "label": "oracle",
        "offset": 0,
        "slot": "1",
        "type": "t_contract(Oracle)1216"
      },
      {
        "astId": 454,
        "contract": "contracts/BaluniTournamentPolygon_v1.sol:BaluniTournamentV1",
        "label": "keeperPercentageFee",
        "offset": 0,
        "slot": "2",
        "type": "t_uint256"
      },
      {
        "astId": 465,
        "contract": "contracts/BaluniTournamentPolygon_v1.sol:BaluniTournamentV1",
        "label": "maxParticipants",
        "offset": 0,
        "slot": "3",
        "type": "t_uint256"
      },
      {
        "astId": 467,
        "contract": "contracts/BaluniTournamentPolygon_v1.sol:BaluniTournamentV1",
        "label": "lastRoundPrice",
        "offset": 0,
        "slot": "4",
        "type": "t_uint256"
      },
      {
        "astId": 471,
        "contract": "contracts/BaluniTournamentPolygon_v1.sol:BaluniTournamentV1",
        "label": "predictions",
        "offset": 0,
        "slot": "5",
        "type": "t_array(t_struct(Prediction)463_storage)dyn_storage"
      },
      {
        "astId": 473,
        "contract": "contracts/BaluniTournamentPolygon_v1.sol:BaluniTournamentV1",
        "label": "verificationTime",
        "offset": 0,
        "slot": "6",
        "type": "t_uint256"
      },
      {
        "astId": 475,
        "contract": "contracts/BaluniTournamentPolygon_v1.sol:BaluniTournamentV1",
        "label": "priceFeedAddress",
        "offset": 0,
        "slot": "7",
        "type": "t_address"
      },
      {
        "astId": 477,
        "contract": "contracts/BaluniTournamentPolygon_v1.sol:BaluniTournamentV1",
        "label": "prizePool",
        "offset": 0,
        "slot": "8",
        "type": "t_uint256"
      },
      {
        "astId": 480,
        "contract": "contracts/BaluniTournamentPolygon_v1.sol:BaluniTournamentV1",
        "label": "currentRound",
        "offset": 0,
        "slot": "9",
        "type": "t_uint256"
      }
    ],
    "types": {
      "t_address": {
        "encoding": "inplace",
        "label": "address",
        "numberOfBytes": "20"
      },
      "t_array(t_struct(Prediction)463_storage)dyn_storage": {
        "base": "t_struct(Prediction)463_storage",
        "encoding": "dynamic_array",
        "label": "struct BaluniTournamentV1.Prediction[]",
        "numberOfBytes": "32"
      },
      "t_contract(Oracle)1216": {
        "encoding": "inplace",
        "label": "contract Oracle",
        "numberOfBytes": "20"
      },
      "t_struct(Prediction)463_storage": {
        "encoding": "inplace",
        "label": "struct BaluniTournamentV1.Prediction",
        "members": [
          {
            "astId": 456,
            "contract": "contracts/BaluniTournamentPolygon_v1.sol:BaluniTournamentV1",
            "label": "round",
            "offset": 0,
            "slot": "0",
            "type": "t_uint256"
          },
          {
            "astId": 458,
            "contract": "contracts/BaluniTournamentPolygon_v1.sol:BaluniTournamentV1",
            "label": "predictor",
            "offset": 0,
            "slot": "1",
            "type": "t_address"
          },
          {
            "astId": 460,
            "contract": "contracts/BaluniTournamentPolygon_v1.sol:BaluniTournamentV1",
            "label": "predictedPrice",
            "offset": 0,
            "slot": "2",
            "type": "t_uint256"
          },
          {
            "astId": 462,
            "contract": "contracts/BaluniTournamentPolygon_v1.sol:BaluniTournamentV1",
            "label": "amount",
            "offset": 0,
            "slot": "3",
            "type": "t_uint256"
          }
        ],
        "numberOfBytes": "128"
      },
      "t_uint256": {
        "encoding": "inplace",
        "label": "uint256",
        "numberOfBytes": "32"
      }
    }
  }
}