{
  "address": "0xf823c515eAdC0C8fC2699f88F3e87389e97953b0",
  "abi": [
    {
      "inputs": [
        {
          "internalType": "address",
          "name": "_oracleAddress",
          "type": "address"
        },
        {
          "internalType": "uint256",
          "name": "_maxParticipants",
          "type": "uint256"
        }
      ],
      "stateMutability": "nonpayable",
      "type": "constructor"
    },
    {
      "anonymous": false,
      "inputs": [
        {
          "indexed": false,
          "internalType": "uint256",
          "name": "round",
          "type": "uint256"
        },
        {
          "indexed": true,
          "internalType": "address",
          "name": "predictor",
          "type": "address"
        },
        {
          "indexed": false,
          "internalType": "uint256",
          "name": "predictedPrice",
          "type": "uint256"
        },
        {
          "indexed": false,
          "internalType": "uint256",
          "name": "amount",
          "type": "uint256"
        }
      ],
      "name": "PredictionSubmitted",
      "type": "event"
    },
    {
      "anonymous": false,
      "inputs": [
        {
          "indexed": false,
          "internalType": "uint256",
          "name": "round",
          "type": "uint256"
        },
        {
          "indexed": false,
          "internalType": "address[]",
          "name": "winners",
          "type": "address[]"
        },
        {
          "indexed": false,
          "internalType": "uint256[]",
          "name": "prizeAmounts",
          "type": "uint256[]"
        }
      ],
      "name": "TournamentResolved",
      "type": "event"
    },
    {
      "inputs": [],
      "name": "currentRound",
      "outputs": [
        {
          "internalType": "uint256",
          "name": "",
          "type": "uint256"
        }
      ],
      "stateMutability": "view",
      "type": "function"
    },
    {
      "inputs": [],
      "name": "getCurrentPricePool",
      "outputs": [
        {
          "internalType": "uint256",
          "name": "",
          "type": "uint256"
        }
      ],
      "stateMutability": "view",
      "type": "function"
    },
    {
      "inputs": [],
      "name": "getCurrentRound",
      "outputs": [
        {
          "internalType": "uint256",
          "name": "",
          "type": "uint256"
        }
      ],
      "stateMutability": "view",
      "type": "function"
    },
    {
      "inputs": [],
      "name": "getCurrentRoundPartecipants",
      "outputs": [
        {
          "internalType": "uint256",
          "name": "",
          "type": "uint256"
        }
      ],
      "stateMutability": "view",
      "type": "function"
    },
    {
      "inputs": [],
      "name": "getLastWinners",
      "outputs": [
        {
          "internalType": "address[]",
          "name": "",
          "type": "address[]"
        }
      ],
      "stateMutability": "view",
      "type": "function"
    },
    {
      "inputs": [],
      "name": "getLatestRoundPrice",
      "outputs": [
        {
          "internalType": "uint256",
          "name": "",
          "type": "uint256"
        }
      ],
      "stateMutability": "view",
      "type": "function"
    },
    {
      "inputs": [],
      "name": "getMaxPartecipants",
      "outputs": [
        {
          "internalType": "uint256",
          "name": "",
          "type": "uint256"
        }
      ],
      "stateMutability": "view",
      "type": "function"
    },
    {
      "inputs": [],
      "name": "getNextVerificationTime",
      "outputs": [
        {
          "internalType": "uint256",
          "name": "",
          "type": "uint256"
        }
      ],
      "stateMutability": "view",
      "type": "function"
    },
    {
      "inputs": [],
      "name": "getPartecipants",
      "outputs": [
        {
          "internalType": "address[]",
          "name": "",
          "type": "address[]"
        }
      ],
      "stateMutability": "view",
      "type": "function"
    },
    {
      "inputs": [],
      "name": "getPredictions",
      "outputs": [
        {
          "components": [
            {
              "internalType": "uint256",
              "name": "round",
              "type": "uint256"
            },
            {
              "internalType": "address",
              "name": "predictor",
              "type": "address"
            },
            {
              "internalType": "uint256",
              "name": "predictedPrice",
              "type": "uint256"
            },
            {
              "internalType": "uint256",
              "name": "amount",
              "type": "uint256"
            }
          ],
          "internalType": "struct BaluniTournamentV1.Prediction[]",
          "name": "",
          "type": "tuple[]"
        }
      ],
      "stateMutability": "view",
      "type": "function"
    },
    {
      "inputs": [],
      "name": "getPrice",
      "outputs": [
        {
          "internalType": "uint256",
          "name": "",
          "type": "uint256"
        }
      ],
      "stateMutability": "view",
      "type": "function"
    },
    {
      "inputs": [],
      "name": "isRoundOpen",
      "outputs": [
        {
          "internalType": "bool",
          "name": "",
          "type": "bool"
        }
      ],
      "stateMutability": "view",
      "type": "function"
    },
    {
      "inputs": [],
      "name": "keeperPercentageFee",
      "outputs": [
        {
          "internalType": "uint256",
          "name": "",
          "type": "uint256"
        }
      ],
      "stateMutability": "view",
      "type": "function"
    },
    {
      "inputs": [],
      "name": "lastRoundPrice",
      "outputs": [
        {
          "internalType": "uint256",
          "name": "",
          "type": "uint256"
        }
      ],
      "stateMutability": "view",
      "type": "function"
    },
    {
      "inputs": [],
      "name": "maxParticipants",
      "outputs": [
        {
          "internalType": "uint256",
          "name": "",
          "type": "uint256"
        }
      ],
      "stateMutability": "view",
      "type": "function"
    },
    {
      "inputs": [],
      "name": "oracle",
      "outputs": [
        {
          "internalType": "contract Oracle",
          "name": "",
          "type": "address"
        }
      ],
      "stateMutability": "view",
      "type": "function"
    },
    {
      "inputs": [
        {
          "internalType": "uint256",
          "name": "",
          "type": "uint256"
        }
      ],
      "name": "predictions",
      "outputs": [
        {
          "internalType": "uint256",
          "name": "round",
          "type": "uint256"
        },
        {
          "internalType": "address",
          "name": "predictor",
          "type": "address"
        },
        {
          "internalType": "uint256",
          "name": "predictedPrice",
          "type": "uint256"
        },
        {
          "internalType": "uint256",
          "name": "amount",
          "type": "uint256"
        }
      ],
      "stateMutability": "view",
      "type": "function"
    },
    {
      "inputs": [],
      "name": "priceFeedAddress",
      "outputs": [
        {
          "internalType": "address",
          "name": "",
          "type": "address"
        }
      ],
      "stateMutability": "view",
      "type": "function"
    },
    {
      "inputs": [],
      "name": "prizePool",
      "outputs": [
        {
          "internalType": "uint256",
          "name": "",
          "type": "uint256"
        }
      ],
      "stateMutability": "view",
      "type": "function"
    },
    {
      "inputs": [],
      "name": "resolutionEndTime",
      "outputs": [
        {
          "internalType": "uint256",
          "name": "",
          "type": "uint256"
        }
      ],
      "stateMutability": "view",
      "type": "function"
    },
    {
      "inputs": [],
      "name": "resolveTournament",
      "outputs": [],
      "stateMutability": "nonpayable",
      "type": "function"
    },
    {
      "inputs": [
        {
          "internalType": "uint256",
          "name": "",
          "type": "uint256"
        }
      ],
      "name": "roundWinners",
      "outputs": [
        {
          "internalType": "address",
          "name": "",
          "type": "address"
        }
      ],
      "stateMutability": "view",
      "type": "function"
    },
    {
      "inputs": [],
      "name": "submissionEndTime",
      "outputs": [
        {
          "internalType": "uint256",
          "name": "",
          "type": "uint256"
        }
      ],
      "stateMutability": "view",
      "type": "function"
    },
    {
      "inputs": [
        {
          "internalType": "uint256",
          "name": "_predictedPrice",
          "type": "uint256"
        }
      ],
      "name": "submitPrediction",
      "outputs": [],
      "stateMutability": "payable",
      "type": "function"
    },
    {
      "inputs": [],
      "name": "verificationEndTime",
      "outputs": [
        {
          "internalType": "uint256",
          "name": "",
          "type": "uint256"
        }
      ],
      "stateMutability": "view",
      "type": "function"
    },
    {
      "inputs": [],
      "name": "verificationTime",
      "outputs": [
        {
          "internalType": "uint256",
          "name": "",
          "type": "uint256"
        }
      ],
      "stateMutability": "view",
      "type": "function"
    },
    {
      "stateMutability": "payable",
      "type": "receive"
    }
  ],
  "transactionHash": "0x9437fa5371f61982722c5a5187387bf695253af39163bdb7c747ad48674ee885",
  "args": [
    "0xaC81354605019e00FfCfb36df3031419E62540B3",
    50
  ],
  "numDeployments": 5,
  "solcInputHash": "3d2f6baedbf78b7b1c24291f14160280",
  "bytecode": "0x6080604052606460025561708060035562015180600455610e106005556000600c5534801561002d57600080fd5b50604051620019033803806200190383398101604081905261004e9161008b565b6001600081905580546001600160a01b0319166001600160a01b038416179055600681905560045461008090426100c5565b600955506100ec9050565b6000806040838503121561009e57600080fd5b82516001600160a01b03811681146100b557600080fd5b6020939093015192949293505050565b808201808211156100e657634e487b7160e01b600052601160045260246000fd5b92915050565b61180780620000fc6000396000f3fe6080604052600436106101835760003560e01c80638a19c8bc116100d1578063bb9b110b1161008a578063e2f1dcc611610064578063e2f1dcc614610426578063ef949f4a1461043b578063f985ad9314610450578063f9ceb3ea1461046657600080fd5b8063bb9b110b146103bf578063c78c3a83146103e4578063e0abca0b1461040657600080fd5b80638a19c8bc146103315780638dd78d671461034757806393bc976e1461035d578063956909361461037357806398d5fdca14610395578063a32bf597146103aa57600080fd5b8063532eaca01161013e578063719ce73e11610118578063719ce73e146102ae57806376a4956c146102c45780637dc0d1d0146102fc57806385d62b451461031c57600080fd5b8063532eaca01461026e57806358f6b9c5146102845780635d21b2551461029957600080fd5b80624fbbb0146101a7578062614418146101f4578063149c6dac1461021857806324924bf71461022e578063308d19ab14610244578063344c8e371461025957600080fd5b366101a25734600b600082825461019a91906115af565b925050819055005b600080fd5b3480156101b357600080fd5b506101c76101c23660046115c8565b61047b565b604080519485526001600160a01b0390931660208501529183015260608201526080015b60405180910390f35b34801561020057600080fd5b5061020a60095481565b6040519081526020016101eb565b34801561022457600080fd5b5061020a60025481565b34801561023a57600080fd5b5061020a60065481565b34801561025057600080fd5b5060065461020a565b34801561026557600080fd5b5060095461020a565b34801561027a57600080fd5b5061020a60035481565b34801561029057600080fd5b5060075461020a565b3480156102a557600080fd5b50600b5461020a565b3480156102ba57600080fd5b5061020a600b5481565b3480156102d057600080fd5b506102e46102df3660046115c8565b6104be565b6040516001600160a01b0390911681526020016101eb565b34801561030857600080fd5b506001546102e4906001600160a01b031681565b61032f61032a3660046115c8565b6104e8565b005b34801561033d57600080fd5b5061020a600c5481565b34801561035357600080fd5b5061020a60075481565b34801561036957600080fd5b5061020a60045481565b34801561037f57600080fd5b5061038861075d565b6040516101eb9190611625565b3480156103a157600080fd5b5061020a6107bf565b3480156103b657600080fd5b50600c5461020a565b3480156103cb57600080fd5b506103d4610841565b60405190151581526020016101eb565b3480156103f057600080fd5b506103f961085b565b6040516101eb919061163f565b34801561041257600080fd5b50600a546102e4906001600160a01b031681565b34801561043257600080fd5b5060085461020a565b34801561044757600080fd5b5061032f6108e5565b34801561045c57600080fd5b5061020a60055481565b34801561047257600080fd5b506103886111f3565b6008818154811061048b57600080fd5b600091825260209091206004909102018054600182015460028301546003909301549193506001600160a01b0316919084565b600f81815481106104ce57600080fd5b6000918252602090912001546001600160a01b0316905081565b662386f26fc100003410156105445760405162461bcd60e51b815260206004820152601760248201527f456e7472792066656520697320302e303120657468657200000000000000000060448201526064015b60405180910390fd5b600654600854106105975760405162461bcd60e51b815260206004820152601960248201527f5061727469636970616e74206c696d6974207265616368656400000000000000604482015260640161053b565b6003546009546105a791906116ac565b42111561060b5760405162461bcd60e51b815260206004820152602c60248201527f5375626d697373696f6e7320636c6f736564203420686f757273206265666f7260448201526b6520726f756e6420656e647360a01b606482015260840161053b565b60408051608081018252600c5481523360208201908152918101838152346060830181815260088054600181018255600091825294517ff3f7a9fe364faab93b216da50a3214154f22a0a2b415b23a84c8169e8b636ee360049096029586015594517ff3f7a9fe364faab93b216da50a3214154f22a0a2b415b23a84c8169e8b636ee4850180546001600160a01b0319166001600160a01b0390921691909117905591517ff3f7a9fe364faab93b216da50a3214154f22a0a2b415b23a84c8169e8b636ee584015590517ff3f7a9fe364faab93b216da50a3214154f22a0a2b415b23a84c8169e8b636ee690920191909155600b8054919290916107109084906115af565b9091555050600c546040805191825260208201839052349082015233907f6508c7e3d28df907ed24f614c03b61c067dbc85e84a98bb8f78ffb1c8a711e559060600160405180910390a250565b6060600f8054806020026020016040519081016040528092919081815260200182805480156107b557602002820191906000526020600020905b81546001600160a01b03168152600190910190602001808311610797575b5050505050905090565b60015460408051638e15f47360e01b815290516000926001600160a01b031691638e15f4739160048083019260209291908290030181865afa158015610809573d6000803e3d6000fd5b505050506040513d601f19601f8201168201806040525081019061082d91906116bf565b61083c906402540be4006116d8565b905090565b600061384060095461085391906116ac565b421115905090565b60606008805480602002602001604051908101604052809291908181526020016000905b828210156108dc5760008481526020908190206040805160808101825260048602909201805483526001808201546001600160a01b031684860152600282015492840192909252600301546060830152908352909201910161087f565b50505050905090565b6108ed6112c7565b6009544210156109495760405162461bcd60e51b815260206004820152602160248201527f546f75726e616d656e742063616e6e6f74206265207265736f6c7665642079656044820152601d60fa1b606482015260840161053b565b60055460095461095991906115af565b4210610a305760005b6008548110156109e3576109d160088281548110610982576109826116ef565b906000526020600020906004020160010160009054906101000a90046001600160a01b0316600883815481106109ba576109ba6116ef565b906000526020600020906004020160030154611320565b806109db81611705565b915050610962565b50600c5460408051600080825260208201908152818301928390526000805160206117b283398151915293610a1b9390929190611734565b60405180910390a1610a2b61143e565b6111e7565b60015460408051638e15f47360e01b815290516000926001600160a01b031691638e15f4739160048083019260209291908290030181865afa158015610a7a573d6000803e3d6000fd5b505050506040513d601f19601f82011682018060405250810190610a9e91906116bf565b90506000610ab1826402540be4006116d8565b6007819055600854909150600003610b2f57600c5460408051600080825260208201908152818301928390526000805160206117b283398151915293610afa9390929190611734565b60405180910390a16040805160008152602081019182905251610b1f91600f9161147c565b50610b2861143e565b50506111e7565b600854600103610c91576040805160018082528183019092526000916020808301908036833750506040805160018082528183019092529293506000929150602080830190803683370190505090506008600081548110610b9257610b926116ef565b6000918252602082206001600490920201015483516001600160a01b03909116918491610bc157610bc16116ef565b60200260200101906001600160a01b031690816001600160a01b031681525050600b5481600081518110610bf757610bf76116ef565b602002602001018181525050610c4182600081518110610c1957610c196116ef565b602002602001015182600081518110610c3457610c346116ef565b6020026020010151611320565b6000805160206117b2833981519152600c548383604051610c6493929190611734565b60405180910390a18151610c7f90600f90602085019061147c565b50610c8861143e565b505050506111e7565b600854600203610e1b5760408051600280825260608201835260009260208301908036833750506040805160028082526060820183529394506000939092509060208301908036833701905050905060006002600b54610cf1919061178f565b905060005b6002811015610dc95760088181548110610d1257610d126116ef565b906000526020600020906004020160010160009054906101000a90046001600160a01b0316848281518110610d4957610d496116ef565b60200260200101906001600160a01b031690816001600160a01b03168152505081838281518110610d7c57610d7c6116ef565b602002602001018181525050610db7848281518110610d9d57610d9d6116ef565b6020026020010151848381518110610c3457610c346116ef565b80610dc181611705565b915050610cf6565b506000805160206117b2833981519152600c548484604051610ded93929190611734565b60405180910390a18251610e0890600f90602086019061147c565b50610e1161143e565b50505050506111e7565b610e236114e1565b6000805b600854811015610fd45760008460088381548110610e4757610e476116ef565b90600052602060002090600402016002015411610e935760088281548110610e7157610e716116ef565b90600052602060002090600402016002015485610e8e91906116ac565b610ec3565b8460088381548110610ea757610ea76116ef565b906000526020600020906004020160020154610ec391906116ac565b90506003831015610f1557604051806060016040528083815260200182815260200160011515815250848460038110610efe57610efe6116ef565b602002015282610f0d81611705565b935050610fc1565b83516020015160009060015b6003811015610f7f5781878260038110610f3d57610f3d6116ef565b6020020151602001511115610f6d57868160038110610f5e57610f5e6116ef565b60200201516020015191508092505b80610f7781611705565b915050610f21565b5080831015610fbe57604051806060016040528085815260200184815260200160011515815250868360038110610fb857610fb86116ef565b60200201525b50505b5080610fcc81611705565b915050610e27565b506000612710600254600b54610fea91906116d8565b610ff4919061178f565b905080600b600082825461100891906116ac565b9091555061101890503382611320565b600b5460008367ffffffffffffffff8111156110365761103661171e565b60405190808252806020026020018201604052801561105f578160200160208202803683370190505b50905060008467ffffffffffffffff81111561107d5761107d61171e565b6040519080825280602002602001820160405280156110a6578160200160208202803683370190505b50905060005b858110156111965760088782600381106110c8576110c86116ef565b602002015151815481106110de576110de6116ef565b906000526020600020906004020160010160009054906101000a90046001600160a01b0316838281518110611115576111156116ef565b6001600160a01b0390921660209283029190910190910152611137868561178f565b828281518110611149576111496116ef565b60200260200101818152505061118483828151811061116a5761116a6116ef565b6020026020010151838381518110610c3457610c346116ef565b8061118e81611705565b9150506110ac565b5081516111aa90600f90602085019061147c565b506000805160206117b2833981519152600c5483836040516111ce93929190611734565b60405180910390a16111de61143e565b50505050505050505b6111f16001600055565b565b60085460609060009067ffffffffffffffff8111156112145761121461171e565b60405190808252806020026020018201604052801561123d578160200160208202803683370190505b50905060005b6008548110156112c15760088181548110611260576112606116ef565b906000526020600020906004020160010160009054906101000a90046001600160a01b0316828281518110611297576112976116ef565b6001600160a01b0390921660209283029190910190910152806112b981611705565b915050611243565b50919050565b6002600054036113195760405162461bcd60e51b815260206004820152601f60248201527f5265656e7472616e637947756172643a207265656e7472616e742063616c6c00604482015260640161053b565b6002600055565b804710156113705760405162461bcd60e51b815260206004820152601d60248201527f416464726573733a20696e73756666696369656e742062616c616e6365000000604482015260640161053b565b6000826001600160a01b03168260405160006040518083038185875af1925050503d80600081146113bd576040519150601f19603f3d011682016040523d82523d6000602084013e6113c2565b606091505b50509050806114395760405162461bcd60e51b815260206004820152603a60248201527f416464726573733a20756e61626c6520746f2073656e642076616c75652c207260448201527f6563697069656e74206d61792068617665207265766572746564000000000000606482015260840161053b565b505050565b61144a6008600061152c565b6000600b5560045461145c90426115af565b6009819055506001600c600082825461147591906115af565b9091555050565b8280548282559060005260206000209081019282156114d1579160200282015b828111156114d157825182546001600160a01b0319166001600160a01b0390911617825560209092019160019091019061149c565b506114dd929150611550565b5090565b60405180606001604052806003905b611516604051806060016040528060008152602001600081526020016000151581525090565b8152602001906001900390816114f05790505090565b508054600082556004029060005260206000209081019061154d9190611565565b50565b5b808211156114dd5760008155600101611551565b5b808211156114dd5760008082556001820180546001600160a01b0319169055600282018190556003820155600401611566565b634e487b7160e01b600052601160045260246000fd5b808201808211156115c2576115c2611599565b92915050565b6000602082840312156115da57600080fd5b5035919050565b600081518084526020808501945080840160005b8381101561161a5781516001600160a01b0316875295820195908201906001016115f5565b509495945050505050565b60208152600061163860208301846115e1565b9392505050565b602080825282518282018190526000919060409081850190868401855b8281101561169f57815180518552868101516001600160a01b0316878601528581015186860152606090810151908501526080909301929085019060010161165c565b5091979650505050505050565b818103818111156115c2576115c2611599565b6000602082840312156116d157600080fd5b5051919050565b80820281158282048414176115c2576115c2611599565b634e487b7160e01b600052603260045260246000fd5b60006001820161171757611717611599565b5060010190565b634e487b7160e01b600052604160045260246000fd5b8381526000602060608184015261174e60608401866115e1565b838103604085015284518082528286019183019060005b8181101561178157835183529284019291840191600101611765565b509098975050505050505050565b6000826117ac57634e487b7160e01b600052601260045260246000fd5b50049056fe4fd7288032271e74afa3073bdad87433c58165b48192fee01cb3ca4d114c3a0fa26469706673582212208990ec97d04b5c45dba2ea3b528a532da3b0fb63781b315c7e0334726c73177764736f6c63430008110033",
  "devdoc": {
    "kind": "dev",
    "methods": {},
    "version": 1
  },
  "userdoc": {
    "kind": "user",
    "methods": {},
    "version": 1
  },
  "storageLayout": {
    "storage": [
      {
        "astId": 56,
        "contract": "contracts/BaluniTournament_v1.sol:BaluniTournamentV1",
        "label": "_status",
        "offset": 0,
        "slot": "0",
        "type": "t_uint256"
      },
      {
        "astId": 451,
        "contract": "contracts/BaluniTournament_v1.sol:BaluniTournamentV1",
        "label": "oracle",
        "offset": 0,
        "slot": "1",
        "type": "t_contract(Oracle)1324"
      },
      {
        "astId": 454,
        "contract": "contracts/BaluniTournament_v1.sol:BaluniTournamentV1",
        "label": "keeperPercentageFee",
        "offset": 0,
        "slot": "2",
        "type": "t_uint256"
      },
      {
        "astId": 457,
        "contract": "contracts/BaluniTournament_v1.sol:BaluniTournamentV1",
        "label": "submissionEndTime",
        "offset": 0,
        "slot": "3",
        "type": "t_uint256"
      },
      {
        "astId": 460,
        "contract": "contracts/BaluniTournament_v1.sol:BaluniTournamentV1",
        "label": "verificationEndTime",
        "offset": 0,
        "slot": "4",
        "type": "t_uint256"
      },
      {
        "astId": 463,
        "contract": "contracts/BaluniTournament_v1.sol:BaluniTournamentV1",
        "label": "resolutionEndTime",
        "offset": 0,
        "slot": "5",
        "type": "t_uint256"
      },
      {
        "astId": 474,
        "contract": "contracts/BaluniTournament_v1.sol:BaluniTournamentV1",
        "label": "maxParticipants",
        "offset": 0,
        "slot": "6",
        "type": "t_uint256"
      },
      {
        "astId": 476,
        "contract": "contracts/BaluniTournament_v1.sol:BaluniTournamentV1",
        "label": "lastRoundPrice",
        "offset": 0,
        "slot": "7",
        "type": "t_uint256"
      },
      {
        "astId": 480,
        "contract": "contracts/BaluniTournament_v1.sol:BaluniTournamentV1",
        "label": "predictions",
        "offset": 0,
        "slot": "8",
        "type": "t_array(t_struct(Prediction)472_storage)dyn_storage"
      },
      {
        "astId": 482,
        "contract": "contracts/BaluniTournament_v1.sol:BaluniTournamentV1",
        "label": "verificationTime",
        "offset": 0,
        "slot": "9",
        "type": "t_uint256"
      },
      {
        "astId": 484,
        "contract": "contracts/BaluniTournament_v1.sol:BaluniTournamentV1",
        "label": "priceFeedAddress",
        "offset": 0,
        "slot": "10",
        "type": "t_address"
      },
      {
        "astId": 486,
        "contract": "contracts/BaluniTournament_v1.sol:BaluniTournamentV1",
        "label": "prizePool",
        "offset": 0,
        "slot": "11",
        "type": "t_uint256"
      },
      {
        "astId": 489,
        "contract": "contracts/BaluniTournament_v1.sol:BaluniTournamentV1",
        "label": "currentRound",
        "offset": 0,
        "slot": "12",
        "type": "t_uint256"
      },
      {
        "astId": 493,
        "contract": "contracts/BaluniTournament_v1.sol:BaluniTournamentV1",
        "label": "scores",
        "offset": 0,
        "slot": "13",
        "type": "t_mapping(t_uint256,t_uint256)"
      },
      {
        "astId": 497,
        "contract": "contracts/BaluniTournament_v1.sol:BaluniTournamentV1",
        "label": "prizePerScore",
        "offset": 0,
        "slot": "14",
        "type": "t_mapping(t_uint256,t_uint256)"
      },
      {
        "astId": 500,
        "contract": "contracts/BaluniTournament_v1.sol:BaluniTournamentV1",
        "label": "roundWinners",
        "offset": 0,
        "slot": "15",
        "type": "t_array(t_address)dyn_storage"
      }
    ],
    "types": {
      "t_address": {
        "encoding": "inplace",
        "label": "address",
        "numberOfBytes": "20"
      },
      "t_array(t_address)dyn_storage": {
        "base": "t_address",
        "encoding": "dynamic_array",
        "label": "address[]",
        "numberOfBytes": "32"
      },
      "t_array(t_struct(Prediction)472_storage)dyn_storage": {
        "base": "t_struct(Prediction)472_storage",
        "encoding": "dynamic_array",
        "label": "struct BaluniTournamentV1.Prediction[]",
        "numberOfBytes": "32"
      },
      "t_contract(Oracle)1324": {
        "encoding": "inplace",
        "label": "contract Oracle",
        "numberOfBytes": "20"
      },
      "t_mapping(t_uint256,t_uint256)": {
        "encoding": "mapping",
        "key": "t_uint256",
        "label": "mapping(uint256 => uint256)",
        "numberOfBytes": "32",
        "value": "t_uint256"
      },
      "t_struct(Prediction)472_storage": {
        "encoding": "inplace",
        "label": "struct BaluniTournamentV1.Prediction",
        "members": [
          {
            "astId": 465,
            "contract": "contracts/BaluniTournament_v1.sol:BaluniTournamentV1",
            "label": "round",
            "offset": 0,
            "slot": "0",
            "type": "t_uint256"
          },
          {
            "astId": 467,
            "contract": "contracts/BaluniTournament_v1.sol:BaluniTournamentV1",
            "label": "predictor",
            "offset": 0,
            "slot": "1",
            "type": "t_address"
          },
          {
            "astId": 469,
            "contract": "contracts/BaluniTournament_v1.sol:BaluniTournamentV1",
            "label": "predictedPrice",
            "offset": 0,
            "slot": "2",
            "type": "t_uint256"
          },
          {
            "astId": 471,
            "contract": "contracts/BaluniTournament_v1.sol:BaluniTournamentV1",
            "label": "amount",
            "offset": 0,
            "slot": "3",
            "type": "t_uint256"
          }
        ],
        "numberOfBytes": "128"
      },
      "t_uint256": {
        "encoding": "inplace",
        "label": "uint256",
        "numberOfBytes": "32"
      }
    }
  }
}